:100000000C9462000C948A000C948A000C948A0070
:100010000C948A000C948A000C948A000C948A0038
:100020000C948A000C948A000C948A000C949F070C
:100030000C948A000C948A000C948A000C948A0018
:100040000C94FD060C948A000C946D070C944707E1
:100050000C948A000C948A000C948A000C948A00F8
:100060000C948A000C948A000000000023002600F3
:10007000290000000000240027002A0000000000E2
:10008000250028002B0004040404040404040202D4
:100090000202020203030303030301020408102007
:1000A0004080010204081020010204081020000012
:1000B0000008000201000003040700000000000027
:1000C00000006A0A11241FBECFEFD8E0DEBFCDBF0B
:1000D00024E0A4E3B3E001C01D92A135B207E1F72B
:1000E00013E0A0E0B1E0EAE6F5E102C005900D9270
:1000F000A433B107D9F710E0C2E6D0E004C02197DD
:10010000FE010E94AD0AC136D107C9F70E94B407AB
:100110000C94B30A0C940000833081F028F48130F1
:1001200099F08230A9F008958730A9F08830C9F09D
:100130008430B1F4809180008F7D03C08091800075
:100140008F7780938000089584B58F7784BD08955C
:1001500084B58F7DFBCF8091B0008F778093B00006
:1001600008958091B0008F7DF9CF1F93CF93DF93D7
:10017000282F30E0F901E255FF4F8491F901E6564E
:10018000FF4FD491F901EA57FF4FC491CC23A9F056
:10019000162F81110E948C00EC2FF0E0EE0FFF1F54
:1001A000E458FF4FA591B4918FB7F894EC911111D9
:1001B00008C0D095DE23DC938FBFDF91CF911F91D4
:1001C0000895DE2BF8CFCF93DF9390E0FC01E65645
:1001D000FF4F24918A579F4FFC0184918823C9F0D7
:1001E00090E0880F991FFC01EE58FF4FA591B49144
:1001F000FC01E458FF4FC591D49161110DC09FB728
:10020000F8948C91209582238C93888128232883CD
:100210009FBFDF91CF910895623051F49FB7F8945A
:100220003C91822F809583238C93E8812E2BEFCFF6
:100230008FB7F894EC912E2B2C938FBFEACF3FB75A
:10024000F89480916B0390916C03A0916D03B09131
:100250006E0326B5A89B05C02F3F19F00196A11D7E
:10026000B11D3FBFBA2FA92F982F8827BC01CD0100
:10027000620F711D811D911D42E0660F771F881F5F
:10028000991F4A95D1F708958F929F92AF92BF928E
:10029000CF92DF92EF92FF926B017C010E941F01CF
:1002A0004B015C01C114D104E104F104B9F00E94D6
:1002B0001F01681979098A099B09683E7340810505
:1002C000910580F321E0C21AD108E108F10888EE17
:1002D000880E83E0981EA11CB11CE4CFFF90EF9024
:1002E000DF90CF90BF90AF909F908F900895AF9286
:1002F000BF92CF92DF92EF92FF920F931F93CF9313
:10030000DF936C017B018B01040F151FEB015E0174
:10031000AE18BF08C017D10759F06991D601ED9109
:10032000FC910190F081E02DC6010995892B79F7A8
:10033000C501DF91CF911F910F91FF90EF90DF905A
:10034000CF90BF90AF900895FC01538D448D252F21
:1003500030E0842F90E0821B930B541710F0CF965F
:10036000089501970895FC01918D828D981761F091
:10037000A28DAE0FBF2FB11D5D968C91928D9F5FA8
:100380009F73928F90E008958FEF9FEF0895EF9203
:10039000FF920F931F93CF93DF937B018C01D0E0EB
:1003A000C0E02FB7F8948091B0039091B103A09171
:1003B000B203B091B3032FBF8093BC039093BD03EE
:1003C000A093BE03B093BF0384EB93E00E94B301FC
:1003D00097FF2CC02FB7F8948091B0039091B10390
:1003E000A091B203B091B3032FBF4091BC035091D1
:1003F000BD036091BE037091BF03841B950BA60BD8
:10040000B70B4091B8035091B9036091BA03709152
:10041000BB0384179507A607B707B0F2CE01DF919B
:10042000CF911F910F91FF90EF900895F801819364
:100430008F012196EC16FD0609F0B3CFEFCFFC013A
:10044000918D828D981731F0828DE80FF11D858D89
:1004500090E008958FEF9FEF0895FC01918D228D1C
:10046000892F90E0805C9F4F821B91098F739927A1
:10047000089584EB93E00E942D0221E0892B09F47A
:1004800020E0822F089580E090E0892B29F00E94DF
:10049000390281110C9400000895FC01A48DA80F6D
:1004A000B92FB11DA35ABF4F2C91848D90E00196B6
:1004B0008F739927848FA689B7892C93A089B189D6
:1004C0008C91837080648C93938D848D981306C077
:1004D0000288F389E02D80818F7D80830895EF92DB
:1004E000FF920F931F93CF93DF93EC0181E0888FEE
:1004F0009B8D8C8D98131AC0E889F989808185FFBE
:1005000015C09FB7F894EE89FF896083E889F9895F
:1005100080818370806480839FBF81E090E0DF9161
:10052000CF911F910F91FF90EF900895F62E0B8DB4
:1005300010E00F5F1F4F0F731127E02E8C8D8E116F
:100540000CC00FB607FCFACFE889F989808185FFD6
:10055000F5CFCE010E944D02F1CFEB8DEC0FFD2FB8
:10056000F11DE35AFF4FF0829FB7F8940B8FEA8991
:10057000FB8980818062CFCFCF93DF93EC01888DA0
:100580008823B9F0AA89BB89E889F9898C9185FD0E
:1005900003C0808186FD0DC00FB607FCF7CF8C919C
:1005A00085FFF2CF808185FFEDCFCE010E944D0205
:1005B000E9CFDF91CF910895982F9F7195B9807EF3
:1005C0008BB987E00E94B500419A41980895FF9247
:1005D0000F931F93CF93DF93EC01F62E08811981BF
:1005E000C8010E94970AF81621F06F2DC8010E94D9
:1005F0009F0ACE01DF91CF911F910F91FF90089537
:10060000CF93DF9300D0CDB7DEB780EF93E09A832E
:1006100089836091AF03CE0101960E94E7028FEAC1
:1006200093E00F900F90DF91CF910895EF92FF929A
:100630000F931F93CF93DF9300D0CDB7DEB70FE6B4
:1006400013E08F5693407C01C701800F911F9A835E
:100650008983F80161918F01CE0101960E94E70222
:10066000F3E00F3A1F0781F78FE693E00F900F90AA
:10067000DF91CF911F910F91FF90EF9008958F3FE1
:10068000910511F00E94160310924F038091810092
:100690008B6F80938100809107018B7F809307018E
:1006A00010924E030895CF93DF93C62FD82FD627ED
:1006B000D0FF04C0617088E20E94DC02D1FF06C056
:1006C000C1FB662760F981E10E94DC02D5FF06C00C
:1006D000C5FB662760F988E20E94DC0280914F0327
:1006E000882379F080914E03811102C0CC2349F018
:1006F000E82FF0E0E159FC4FC068C0838F5F809322
:100700004E03DF91CF910895CF92DF92EF92FF9247
:100710000F931F93CF93DF9300D0CDB7DEB788231D
:10072000B1F0F62E662309F4DCC2282F30E0F9017F
:10073000EE0FFF1FEF5EFE4F90819A3199F461E05A
:1007400083E10E94E30060E083E10E94B5000F9026
:100750000F90DF91CF911F910F91FF90EF90DF905D
:10076000CF9008959A3231F461E083E10E94E30072
:1007700061E0EACF9B3139F461E082E10E94E3005D
:1007800060E082E1E2CF9B3231F461E082E10E94DD
:10079000E30061E0F6CF9C3139F461E081E10E9431
:1007A000E30060E081E1D1CF9C3231F461E081E18E
:1007B0000E94E30061E0F6CF9091610397FF03C0D0
:1007C00098609093610390916103492F487093FF63
:1007D00069C08E3129F41092AF030E940003B7CF95
:1007E0008F3121F481E08093AF03F7CF803211F491
:1007F00082E0F9CF813211F483E0F5CF873279F4CA
:1008000060910F0181E0682760930F0181EF93E011
:100810009A838983CE0101960E94E70298CF8A329B
:1008200009F040C0109280001092810088E09DE3A2
:1008300090938900809388008091810088608093E4
:1008400081008091810084608093810080916F009D
:10085000826080936F00EFE6F3E0119283E0EF3A5D
:10086000F807D9F7109247031092480310924903F2
:1008700010924A0310924B0310924C0310923F03C4
:1008800010924003109241031092420310924303CE
:100890001092440381E080934F0310924E03109214
:1008A0003C0355CF893249F490914F03992329F0A5
:1008B0008FEF90E00E943F034ACF96EC980F9C3058
:1008C00008F012C180914F03811141CF66E0220FE1
:1008D000331F6A95E1F710924E031092470310926E
:1008E00048031092490310924A0310924B0310924E
:1008F0004C037FEAC72E73E0D72EEFE6EE2EE3E03F
:10090000FE2E89010F5E1141C8018E0D9F1D0E94B0
:10091000970AF70181937F01CE16DF06A9F71091A0
:100920006F03112309F413CFE0914E03F0E0E15976
:10093000FC4F108117FF17C0012F0F7780913C03E8
:10094000081719F0602F0E94530300933C03809115
:100950004E038F5F80934E0362E370E080E090E08F
:100960000E944401DECF8091470318133EC060E02F
:10097000812F0E9484031092470381E090914803E5
:10098000191307C060E0812F0E948403109248036E
:1009900081E090914903191307C060E0812F0E9404
:1009A00084031092490381E090914A03191307C010
:1009B00060E0812F0E94840310924A0381E09091AD
:1009C0004B03191307C060E0812F0E94840310922B
:1009D0004B0381E000914C03101309C060E0812FAC
:1009E0000E94840310924C03B2CF80E0C7CF8111E4
:1009F000AECFA12FB0E0AA0FBB1FAF5EBE4F8C9150
:100A0000882389F0E0914D03F0E0EE0FFF1FEF5EC9
:100A1000FE4F9081992311F08917D1F0918199238C
:100A200011F08917A9F011968C918823B9F0E09103
:100A30004D03F0E0EE0FFF1FEF5EFE4F9081992314
:100A400011F0891729F09181992341F0891306C08B
:100A500062E370E080E090E00E94440180914703EF
:100A6000811121C01093470361E0809147030E94E8
:100A7000840361E0809148030E94840361E08091D7
:100A800049030E94840361E080914A030E94840329
:100A900061E080914B030E94840361E080914C03EC
:100AA0000E94840354CF80914803811103C01093A6
:100AB0004803DACF80914903811103C010934903A1
:100AC000D3CF80914A03811103C010934A03CCCF46
:100AD00080914B03811103C010934B03C5CF0111CB
:100AE000C3CF10934C03C0CF411131CE90914F032F
:100AF000992309F445C0823008F442C060913F0355
:100B0000861304C090913603F916D1F14091400349
:100B1000841304C090913703F91691F12091410399
:100B2000821304C090913803F91651F19091420359
:100B3000891304C030913903F31611F13091430346
:100B4000831304C050913A03F516D1F05091440339
:100B5000851304C070913B03F71691F086132CC0E7
:100B6000F110DAC090914E03E92FF0E0E159FC4F0B
:100B700080839F5F90934E031092360310923F0341
:100B800080934D03082F10E0000F111F0F5E1E4FC2
:100B9000F8018081882319F06F2D0E94DC02F80192
:100BA0008181882309F4D3CD6F2D0E94DC02CFCD43
:100BB000222309F49BCFCBCD841311C0F110AEC01A
:100BC00090914E03E92FF0E0E159FC4F80839F5F45
:100BD00090934E031092370310924003D1CF8213AB
:100BE00011C0F1109DC090914E03E92FF0E0E15942
:100BF000FC4F80839F5F90934E03109238031092B6
:100C00004103BECF891311C0F1108CC090914E03E7
:100C1000E92FF0E0E159FC4F80839F5F90934E03F2
:100C20001092390310924203ABCF831311C0F1101D
:100C30007BC090914E03E92FF0E0E159FC4F808397
:100C40009F5F90934E0310923A031092430398CF04
:100C5000851311C0F1106AC090914E03E92FF0E0A6
:100C6000E159FC4F80839F5F90934E0310923B03AA
:100C70001092440385CF61115CC0FF2009F463C06A
:100C800080933F0391E09093360390914E03E92FB8
:100C9000F0E0E159FC4F80839F5F90934E0370CF4B
:100CA000211109C0FF2009F452C08093410391E053
:100CB00090933803EACF911109C0FF2009F449C08D
:100CC0008093420391E090933903DFCF311144C008
:100CD000FF2009F455CF8093430391E090933A03AA
:100CE000D4CF90916103292F287093FF03C08A32DB
:100CF00009F42DCD96EC980F9C3008F059CF9091C7
:100D00004F03992309F423CD8A53990B26E0880FCA
:100D1000991F2A95E1F7CECD841302C0821372CFBA
:100D2000891383CF831394CF8513A5CF662309F44A
:100D3000A7CF4111B5CFFF2041F08093400391E050
:100D400090933703A2CF411112C02111B4CF91115A
:100D5000BDCF332309F414CF511112CFFF2009F472
:100D60000FCF8093440391E090933B038ECF2111EA
:100D7000F0CFEDCF882309F43FC0E82FF0E0EE0F6D
:100D8000FF1FEF5EFE4F908161E09A3119F09A32B9
:100D900049F460E083E10E94B50062E083E10E94D3
:100DA000E30008959B3121F460E082E10C94E300BC
:100DB0009B32D1F39C3119F460E081E1F7CF9C3292
:100DC000D9F3909163038917B9F09091640389175F
:100DD00099F090916503891779F0909166038917CE
:100DE00059F090916703891739F09091680389173A
:100DF00019F060E00C94840308951F920F920FB6CF
:100E00000F9211242F933F938F939F93AF93BF9390
:100E10008091B0039091B103A091B203B091B3035C
:100E200030916A0323E0230F2D3758F50196A11D59
:100E3000B11D20936A038093B0039093B103A093F4
:100E4000B203B093B30380916B0390916C03A091B4
:100E50006D03B0916E030196A11DB11D80936B03CC
:100E600090936C03A0936D03B0936E03BF91AF9109
:100E70009F918F913F912F910F900FBE0F901F90D8
:100E8000189526E8230F0296A11DB11DD2CF1F92FF
:100E90000F920FB60F9211242F933F934F935F93AE
:100EA0006F937F938F939F93AF93BF93EF93FF9332
:100EB00084EB93E00E944D02FF91EF91BF91AF91BF
:100EC0009F918F917F916F915F914F913F912F9162
:100ED0000F900FBE0F901F9018951F920F920FB694
:100EE0000F9211242F938F939F93EF93FF93E09191
:100EF000C403F091C5038081E091CA03F091CB0354
:100F000082FD1BC090818091CD038F5F8F732091F4
:100F1000CE03821741F0E091CD03F0E0EC54FC4F9A
:100F2000958F8093CD03FF91EF919F918F912F919A
:100F30000F900FBE0F901F9018958081F4CF1F92D5
:100F40000F920FB60F9211248F938091070182FDAB
:100F500009C08460809307018F910F900FBE0F909E
:100F60001F9018958B7FF6CFCF93DF9300D0CDB72E
:100F7000DEB7789484B5826084BD84B5816084BD19
:100F800085B5826085BD85B5816085BD80916E0027
:100F9000816080936E001092810080918100826058
:100FA0008093810080918100816080938100809195
:100FB00080008160809380008091B1008460809384
:100FC000B1008091B00081608093B00080917A0080
:100FD000846080937A0080917A00826080937A00A6
:100FE00080917A00816080937A0080917A00806895
:100FF00080937A001092C100F894109280001092B1
:10100000810088E09DE3909389008093880080911F
:10101000810088608093810080916F00826080935E
:101020006F00789461E084E00E94E30061E083E077
:101030000E94E30061E082E00E94E30061E08FE053
:101040000E94E30061E088E00E94E30061E089E043
:101050000E94E30061E08AE00E94E30061E08BE02F
:101060000E94E30061E08CE00E94E30061E085E023
:101070000E94E30061E086E00E94E30061E087E017
:101080000E94E30062E083E10E94E3008FEF93E0BF
:101090000E94970A843389F1EFE6F3E08FEA93E048
:1010A00011928E179F07E1F710E000E0C8010E943F
:1010B0001603005C1F4F011523E01207B9F780EFFC
:1010C00093E09A83898360E0CE0101960E94E70253
:1010D00001EF13E01A83098360E0CE0101960E94BC
:1010E000E7021A83098361E0CE0101960E94E702BC
:1010F00064E38FEF93E00E949F0A68EE73E080E064
:1011000090E00E9444018FEF8093580315B81BB8FC
:101110005B9A5B9815B81BB85A9A5A988FE185B9B3
:1011200080EE8BB95C9A5C9880EF93E00E94970AFE
:101130008093AF0381EF93E00E94970A80930F01A1
:10114000EFE6F3E08FEA93E011928E179F07E1F745
:101150009EE190936F032FE12093700380E28093D0
:101160007103209372039093730380937403E0914F
:10117000C403F091C50382E08083E091C003F09145
:10118000C1031082E091C203F091C30380E1808328
:101190001092CC03E091C803F091C90386E08083EC
:1011A000E091C603F091C703808180618083E09164
:1011B000C603F091C703808188608083E091C603F5
:1011C000F091C703808180688083E091C603F0912D
:1011D000C70380818F7D8083809107018160809328
:1011E0000701E1EC6E2EE0E07E2EFDEAEF2EF0E04E
:1011F000FF2EA9E9CA2EA0E0DA2EBFE15B2E8824DB
:101200008A94912C00E0A02E00E0B02E33243A9472
:1012100070EE472EF3018491F7011491F6010491C9
:10122000002309F43AC081110E948C00E02FF0E005
:10123000EE0FFF1FE859FF4FA591B4918C91182331
:1012400061F11092690384EB93E00E942D020397F1
:10125000C4F084EB93E00E94B3018735910589F4D3
:1012600084EB93E00E94B3018B3A910551F484EB37
:1012700093E00E94B30181309105E9F0029709F4EF
:101280007DC0A114B10409F4C5CF0E94390288239E
:1012900009F4C0CF0E940000BBCF80916903811187
:1012A00006C03092580355B84BB85C9A5C98F1E090
:1012B000F0936903C8CF68E070E081E693E00E9494
:1012C000C701809152030E94BA06809153030E9485
:1012D000BA06809154030E94BA06809155030E9479
:1012E000BA06809156030E94BA06809157030E9465
:1012F000BA0660916103809150036813E8C061E011
:10130000809163030E94840361E0809164030E94E2
:10131000840361E0809165030E94840361E0809111
:1013200066030E94840361E0809167030E94840346
:1013300061E0809168030E9484038091610380933F
:1013400050038091620380935103809163038093E3
:1013500052038091640380935303809165038093CB
:1013600054038091660380935503809167038093B3
:101370005603809168038093570383CF64E070E045
:101380008DE593E00E94C70180915E0390E0803874
:10139000910508F09A9520915B0330915C03820FD0
:1013A000931F90935C0380935B0320915F0330E075
:1013B0002038310508F03A954091590350915A036D
:1013C000240F351F30935A032093590320915D0356
:1013D000209310012091580330916003230F209334
:1013E00058032091AF0302C0969587952A95E2F79E
:1013F000982F9F7195B9807E8BB95B9A5B9880918D
:10140000590390915A032091AF0302C09695879596
:101410002A95E2F79401281B390BC901922F9F717D
:1014200095B9807E8BB95A9A5A9820901001022D56
:1014300010E055B84BB82094322D3170232E809196
:101440000F01009510958823C9F1632F88E00E9451
:10145000B500B80176956795617089E00E94B50086
:101460001695079516950795602F61708AE00E9482
:10147000B50060915803062F10E061708CE00E9467
:10148000B500B80176956795617085E00E94B5005A
:10149000B8017695679576956795617086E00E94AC
:1014A000B50033E0169507953A95E1F7602F617026
:1014B00087E00E94B5005C9A5C98E3CEB80176950F
:1014C0006795617088E00E94B500622DC6CF0E94CA
:1014D000530315CFE4EBF3E01382128288EE93E01E
:1014E000A0E0B0E084839583A683B78385E293E090
:1014F0009183808385EC90E09587848784EC90E0ED
:101500009787868780EC90E0918B808B81EC90E0D0
:10151000938B828B82EC90E0958B848B86EC90E0B1
:10152000978B868B118E128E138E148E0895F999D7
:10153000FECF92BD81BDF89A992780B50895262FD8
:10154000F999FECF1FBA92BD81BD20BD0FB6F894A8
:10155000FA9AF99A0FBE01960895EE0FFF1F0590B3
:0A156000F491E02D0994F894FFCFF8
:10156A0057AB12000000000020FF2100000000011C
:10157A00FF00000000000000001200580041003285
:10158A000033004200520057003600470037002758
:10159A0000380048002600160013004300220053BA
:1015AA000046005100230031005600210014002497
:1015BA00003400440054005500450035002500154C
:1015CA000017001811111511141800284728372878
:1015DA0016282700002858282628211128284828B4
:1015EA00382841112400000000000000000000001B
:1015FA00000000000000001C001B001A001125005A
:10160A000000000000000000000000283528251115
:10161A0035115411551145000028512858284728DA
:10162A0037170014002400340044005400550045C4
:10163A0000350025001500283800000000000000D1
:10164A000000000000000000000000000000000090
:10165A000000000000000000000000000000000080
:10166A000000000000000000000000000000000070
:10167A000000000000000000000000000000000060
:10168A000000000000000000000000000000000050
:10169A000000000000000000000000000000000040
:1016AA000000000000000000000000000000000030
:1016BA000000000000000000000000000000000020
:1016CA000000000000000000000000000000000010
:1016DA000000000000000000000000000000000000
:1016EA0000000000000000000000000000000000F0
:1016FA0000000000000000000000000000000000E0
:10170A0000000000000000000000000000000000CF
:10171A0000000000000000000000000000000000BF
:10172A0000000000000000000000000000000000AF
:10173A00002800110000000000000028000000003E
:10174A00000000000000000000000000000000008F
:10175A00000000000000000000000000000000007F
:10176A00000000000000000000000000000000006F
:10177A0000AAFFAAFFAAFFAAFF00000000000000BB
:10178A0000000000006F027701A401BC022D02B321
:04179A00011F020029
:00000001FF
