:100000000C946A010C9492010C9492010C9492014C
:100010000C9492010C9492010C9492010C94920114
:100020000C9492010C9492010C9492010C94790A14
:100030000C9492010C9492010C9492010C949201F4
:100040000C94D7090C9492010C94470A0C94210A41
:100050000C9492010C9492010C9492010C949201D4
:100060000C9492010C94920100000000000000002A
:100070001200580041003200330042005200570085
:1000800036004700370027003800480026001600D9
:1000900013004300220053004600510023003100AA
:1000A0005600210014002400340044005400550080
:1000B0004500350025001500170018111115111401
:1000C00018002847283728162827000028582826EF
:1000D0002821112828482838284111240000000030
:1000E000000000000000000000001E001D001C00B9
:1000F0001B001A0011250000000000000000000095
:1001000000002835282511351154115511450000DE
:100110002851285828472837170014002400340095
:1001200044005400550045003500250015002838CE
:1001300000000000000000000000000000000000BF
:1001400000000000000000000000000000000000AF
:10015000000000000000000000000000000000009F
:10016000000000000000000000000000000000008F
:10017000000000000000000000000000000000007F
:10018000000000000000000000000000000000006F
:10019000000000000000000000000000000000005F
:1001A000000000000000000000000000000000004F
:1001B000000000000000000000000000000000003F
:1001C000000000000000000000000000000000002F
:1001D000000000000000000000000000000000001F
:1001E000000000000000000000000000000000000F
:1001F00000000000000000000000000000000000FF
:1002000000000000000000000000000000000000EE
:1002100000000000000000000000000000000000DE
:100220000000000000000000280011000000000095
:100230000000280000000000000000000000000096
:1002400000000000000000000000000000000000AE
:10025000000000000000000000000000000000009E
:100260000000000000000000AAFFAAFFAAFFAAFFEA
:100270000000000000000000000000002400270033
:100280002A0000000000250028002B0000000000CC
:1002900023002600290004040404040404040202C8
:1002A00002020202030303030303010204081020F5
:1002B0004080010204081020010204081020000000
:1002C0000008000201000003040700000000000015
:1002D0000000721311241FBECFEFD8E0DEBFCDBFE8
:1002E00022E0A8E2B1E001C01D92AD35B207E1F70E
:1002F00011E0A0E0B1E0EAE7F7E202C005900D925C
:10030000A832B107D9F711E0CAE6D1E004C02197BD
:10031000FE010E94B513C936D107C9F70E94040B2C
:100320000C94BB130C940000833081F028F48130CE
:1003300099F08230A9F008958730A9F08830C9F08B
:100340008430B1F4809180008F7D03C08091800063
:100350008F7780938000089584B58F7784BD08954A
:1003600084B58F7DFBCF8091B0008F778093B000F4
:1003700008958091B0008F7DF9CFCF93DF93E1EDA9
:10038000F2E08491EDEBF2E0D491E9EAF2E0C4917D
:10039000CC23A1F081110E949401EC2FF0E0EE0F2C
:1003A000FF1FE457FD4FA591B491EC91ED2381E03F
:1003B00090E009F480E0DF91CF91089580E090E033
:1003C000FACF1F93CF93DF93282F30E0F901E25447
:1003D000FD4F8491F901E655FD4FD491F901EA569C
:1003E000FD4FC491CC23A9F0162F81110E949401D6
:1003F000EC2FF0E0EE0FFF1FEE57FD4FA591B491EB
:100400008FB7F894EC91111108C0D095DE23DC93DE
:100410008FBFDF91CF911F910895DE2BF8CFCF933F
:10042000DF9390E0FC01E655FD4F24918A569D4FE5
:10043000FC0184918823D1F090E0880F991FFC0182
:10044000E858FD4FA591B491FC01EE57FD4FC591C1
:10045000D49161110EC09FB7F8948C91E22FE09572
:100460008E238C932881E223E8839FBFDF91CF9175
:1004700008958FB7F894EC91E22BEC938FBFF6CFF1
:100480003FB7F8948091770190917801A09179011C
:10049000B0917A0126B5A89B05C02F3F19F00196AF
:1004A000A11DB11D3FBFBA2FA92F982F8827BC01CE
:1004B000CD01620F711D811D911D42E0660F771FF6
:1004C000881F991F4A95D1F708958F929F92AF92F6
:1004D000BF92CF92DF92EF92FF926B017C010E945C
:1004E00040024B015C01C114D104E104F104B9F0F4
:1004F0000E944002681979098A099B09683E734085
:100500008105910580F321E0C21AD108E108F108C4
:1005100088EE880E83E0981EA11CB11CE4CFFF90EA
:10052000EF90DF90CF90BF90AF909F908F90089505
:10053000AF92BF92CF92DF92EF92FF920F931F93F1
:10054000CF93DF936C017B018B01040F151FEB012F
:100550005E01AE18BF08C017D10759F06991D601E6
:10056000ED91FC910190F081E02DC6010995892B58
:1005700079F7C501DF91CF911F910F91FF90EF9017
:10058000DF90CF90BF90AF900895FC01538D448DC4
:10059000252F30E0842F90E0821B930B541710F02E
:1005A000CF96089501970895FC01918D828D98173B
:1005B00061F0A28DAE0FBF2FB11D5D968C91928D13
:1005C0009F5F9F73928F90E008958FEF9FEF089544
:1005D000FC01918D828D981731F0828DE80FF11D0D
:1005E000858D90E008958FEF9FEF0895FC01918D28
:1005F000228D892F90E0805C9F4F821B91098F7321
:100600009927089580EC91E00E94F60221E0892B61
:1006100009F420E0822F089580E090E0892B29F0F2
:100620000E94020381110C9400000895FC01A48D26
:10063000A80FB92FB11DA35ABF4F2C91848D90E004
:1006400001968F739927848FA689B7892C93A089E7
:10065000B1898C91837080648C93938D848D981371
:1006600006C00288F389E02D80818F7D8083089504
:10067000EF92FF920F931F93CF93DF93EC0181E0F2
:10068000888F9B8D8C8D98131AC0E889F989808199
:1006900085FF15C09FB7F894EE89FF896083E889CC
:1006A000F98980818370806480839FBF81E090E0BE
:1006B000DF91CF911F910F91FF90EF900895F62E4B
:1006C0000B8D10E00F5F1F4F0F731127E02E8C8DE5
:1006D0008E110CC00FB607FCFACFE889F98980812A
:1006E00085FFF5CFCE010E941603F1CFEB8DEC0F05
:1006F000FD2FF11DE35AFF4FF0829FB7F8940B8F47
:10070000EA89FB8980818062CFCFCF93DF93EC01B0
:10071000888D8823B9F0AA89BB89E889F9898C91E9
:1007200085FD03C0808186FD0DC00FB607FCF7CFA5
:100730008C9185FFF2CF808185FFEDCFCE010E94A5
:100740001603E9CFDF91CF9108958EBD00000DB45F
:1007500007FEFDCF8EB50895662369F0806880930B
:100760004501809145019BB19F739BB940980E94C0
:10077000A503409A08958F77F2CF81110C94AC03B2
:1007800008951F93CF93DF93C62FD82FD627D0FF7E
:100790000EC0E8E2F2E08491162F1170612F0E94E2
:1007A000BD03E9E2F2E08491612F0E94BD03D1FF15
:1007B0000FC0C1FB112710F9EAE2F2E08491612F2A
:1007C0000E94BD03EBE2F2E08491612F0E94BD0321
:1007D000D2FF0FC0C2FB112710F9ECE2F2E08491C6
:1007E000612F0E94BD03EDE2F2E08491612F0E942F
:1007F000BD03D3FF0FC0C3FB112710F9EEE2F2E0F7
:100800008491612F0E94BD03EFE2F2E08491612F99
:100810000E94BD03D4FF0FC0C4FB112710F9E0E311
:10082000F2E08491612F0E94BD03E1E3F2E0849144
:10083000612F0E94BD03D5FF0FC0C5FB112710F922
:10084000E2E3F2E08491612F0E94BD03E3E3F2E072
:100850008491612F0E94BD03D6FF0FC0C6FB1127F4
:1008600010F9E4E3F2E08491612F0E94BD03E5E317
:10087000F2E08491612F0E94BD03D7FF10C0E6E330
:10088000F2E08491DC2FDD1FDD27DD1F6D2F0E943C
:10089000BD03E7E3F2E084916D2F0E94BD038091D8
:1008A0004301882379F080914201811102C0CC2359
:1008B00049F0E82FF0E0E558FE4FC068C0838F5F35
:1008C00080934201DF91CF911F910895CF93DF93E1
:1008D000D62FC42F40989BB19F739BB95E9A0E94FC
:1008E000A503409A40988BB18F738BB95F9A8D2F77
:1008F0000E94A503409A40988BB18F738BB98BB13E
:10090000806C8BB98C2F0E94A503409ADF91CF9108
:1009100008958FEF80930F014FEF60914E0180910A
:100920004F010C946604FF920F931F93CF93DF93B4
:10093000EC01F62E08811981C8010E949F13F81658
:1009400021F06F2DC8010E94A713CE01DF91CF9136
:100950001F910F91FF900895CF93DF9300D0CDB7F3
:10096000DEB780EF93E09A8389836091BB01CE016B
:1009700001960E9493048BEB91E00F900F90DF9112
:10098000CF910895EF92FF920F931F93CF93DF9330
:1009900000D0CDB7DEB70BE711E08B5791407C015B
:1009A000C701800F911F9A838983F80161918F019C
:1009B000CE0101960E949304F1E00B3B1F0781F7E3
:1009C0008BE791E00F900F90DF91CF911F910F91E6
:1009D000FF90EF9008958F3F910511F00E94C2049F
:1009E00010924301809181008B6F809381008091F0
:1009F00007018460809307014BE050E060E071E004
:100A000080EC91E00E9498021092420108950F93A9
:100A10001F93CF93DF9300D0CDB7DEB78B019A83BE
:100A20008983FB016081CE0101960E949304C80175
:100A30000F900F90DF91CF911F910F910895CF9359
:100A4000DF93EB010E949F138883CE01DF91CF914A
:100A50000895CF93DF93EB010E949F138883CE010B
:100A6000DF91CF910895EF92FF920F931F93CF9351
:100A7000DF93882309F486C0162FC82F662309F454
:100A8000AEC3893349F58091070181FD23C082609F
:100A9000809307014BE050E060E071E080EC91E072
:100AA0000E9498028C2F90E0FC01EE0FFF1FE85986
:100AB000FF4F24912B31D1F561E082E10E940F02BA
:100AC00060E082E1DF91CF911F910F91FF90EF9055
:100AD0000C94E1018D7FDCCF8C3421F761E081E162
:100AE0000E94AC0369E170E080E090E00E94650242
:100AF00061E085E30E94AC0369E170E080E090E092
:100B00000E94650260E085E30E94AC0369E170E049
:100B100080E090E00E94650261E085E1DF91CF9185
:100B20001F910F91FF90EF900C94AC0324912B3206
:100B300031F461E082E10E940F0261E0C2CF2491B2
:100B40002C3139F461E081E10E940F0260E081E123
:100B5000B9CF24912C3231F461E081E10E940F027F
:100B600061E0F5CF24912A31A1F461E083E10E9494
:100B70000F0260E083E10E94E1010E94890481E0AC
:100B800080937401DF91CF911F910F91FF90EF90AF
:100B9000089524912D3139F461E080E10E940F0223
:100BA00060E080E18FCF24912D3231F461E080E16B
:100BB0000E940F0261E0F5CF24912E3139F461E0FB
:100BC0008FE00E940F0260E08FE07CCFE491EE3274
:100BD00031F461E08FE00E940F0261E0F5CF2091D7
:100BE0006C0127FF03C0286020936C0120916C01E9
:100BF000322F387023FF95C0CE3151F41092BB01D3
:100C0000DF91CF911F910F91FF90EF900C94AC0466
:100C1000CF3121F481E08093BB01F2CFC03211F4D7
:100C200082E0F9CFC13211F483E0F5CFC73291F4FD
:100C30008091100191E089278093100160E171E0BB
:100C400081EF93E0DF91CF911F910F91FF90EF9093
:100C50000C940705C63259F48091110191E089275F
:100C60008093110161E171E082EF93E0EBCFC43139
:100C700021F481E08093590185CFCA3111F482E0DB
:100C8000F9CFC83011F483E0F5CFC53111F484E019
:100C9000F1CFC73111F485E0EDCFCA3209F041C080
:100CA000109280001092810088E09DE3909389006B
:100CB000809388008091810088608093810080917A
:100CC000810084608093810080916F0082608093B6
:100CD0006F00EBE7F1E08BEB91E011928E179F072D
:100CE000E1F710923B0110923C0110923D011092ED
:100CF0003E0110923F011092400110923301109278
:100D00003401109235011092360110923701109281
:100D1000380181E08093430110924201109230012A
:100D200031CFC93271F420914301222351F08FEF6A
:100D300090E0DF91CF911F910F91FF90EF900C9475
:100D4000EB0426EC2C0F283008F040C12091430121
:100D5000211118CFF6E0880F991FFA95E1F710924C
:100D6000420110923B0110923C0110923D01109201
:100D70003E0110923F0110924001ABEBEA2EA1E040
:100D8000FA2E0BE711E0EC01CB5FDF40CE01800FC4
:100D9000911F0E949F13F80181938F01EE16FF06A9
:100DA000A9F7C0917B01CC2309F4ECCEE09142017C
:100DB000F0E0E558FE4FC081C7FF17C0DC2FDF779A
:100DC00080913001D81719F06D2F0E94C103D09384
:100DD0003001809142018F5F8093420162E370E0B5
:100DE00080E090E00E946502DECF80913B01C81355
:100DF0003EC060E08C2F0E94330510923B0181E0E1
:100E000090913C01C91307C060E08C2F0E9433050C
:100E100010923C0181E090913D01C91307C060E050
:100E20008C2F0E94330510923D0181E090913E018C
:100E3000C91307C060E08C2F0E94330510923E0159
:100E400081E090913F01C91307C060E08C2F0E94A0
:100E5000330510923F0181E0D0914001CD1309C0CC
:100E600060E08C2F0E94330510924001B2CF80E0E9
:100E7000C7CF8111AECF8C2F90E0880F991FAC01A6
:100E800048595F4FFA012491222391F020914101AA
:100E900030E0220F331F28593F4FF9016491662338
:100EA00039F0FA016491F9012491621709F442C002
:100EB000FA012491222391F02091410130E0220F88
:100EC000331F27593F4FF9016491662339F0FA0126
:100ED0004491F9012491421709F42CC087599F4F7E
:100EE000FC012491222389F02091410130E0220F5E
:100EF000331F28593F4FF9014491442331F0FC013D
:100F00004491F90124914217A9F0FC012491222374
:100F1000B9F02091410130E0220F331F27593F4F94
:100F2000F9014491442361F0FC018491F901249179
:100F3000821306C062E370E080E090E00E946502E8
:100F400080913B01811121C0C0933B0161E0809100
:100F50003B010E94330561E080913C010E94330512
:100F600061E080913D010E94330561E080913E0186
:100F70000E94330561E080913F010E94330561E0EA
:100F8000809140010E94330524CF80913C01811162
:100F900003C0C0933C01DACF80913D01811103C0B1
:100FA000C0933D01D3CF80913E01811103C0C09316
:100FB0003E01CCCF80913F01811103C0C0933F011E
:100FC000C5CFD111C3CFC0934001C0CF3111DACD0D
:100FD00080914301882309F445C0C23008F442C01F
:100FE00050913301C51304C080912A011817D1F123
:100FF00030913401C31304C080912B01181791F173
:1010000090913501C91304C080912C01181751F13A
:1010100080913601C81304C020912D01121711F1DF
:1010200020913701C21304C040912E011417D1F052
:1010300040913801C41304C060912F01161791F03C
:10104000C51338C01111E7C080914201E82FF0E0CC
:10105000E558FE4FC0838F5F8093420110922A01B2
:1010600010923301C0934101D0E0CC0FDD1FFE018F
:10107000E859FF4F8491612F0E94BD03FE01E7599B
:10108000FF4F8491612FDF91CF911F910F91FF90BE
:10109000EF900C94BD03911175CDCC3409F098CF2D
:1010A00060E085E30E94AC0360E085E30E94AC034E
:1010B00060E033CDC31311C01111AFC08091420164
:1010C000E82FF0E0E558FE4FC0838F5F8093420128
:1010D00010922B0110923401C5CFC91311C0111108
:1010E0009EC080914201E82FF0E0E558FE4FC0839A
:1010F0008F5F8093420110922C0110923501B2CF84
:10110000C81311C011118DC080914201E82FF0E089
:10111000E558FE4FC0838F5F8093420110922D01EE
:10112000109236019FCFC21311C011117CC0809163
:101130004201E82FF0E0E558FE4FC0838F5F8093B7
:10114000420110922E01109237018CCFC41311C0AE
:1011500011116BC080914201E82FF0E0E558FE4F7D
:10116000C0838F5F8093420110922F01109238014B
:1011700079CF51115DC0112309F464C0C0933301CC
:1011800081E080932A0180914201E82FF0E0E55848
:10119000FE4FC0838F5F8093420164CF911109C0DD
:1011A000112309F453C0C093350181E080932C01D1
:1011B000EACF811109C0112309F44AC0C093360156
:1011C00081E080932D01DFCF211145C0112309F467
:1011D00049CFC093370181E080932E01D4CF809115
:1011E0006C01982F987083FF03C0CA3209F4CACCEF
:1011F00086EC8C0F883008F04ECF80914301882315
:1012000009F4C0CCCA53DD0BCE0126E0880F991F2C
:101210002A95E1F78ECDC31302C0C91371CFC8134D
:1012200082CFC21393CFC413A4CF552309F4A6CF02
:101230003111B4CF112341F0C093340181E0809388
:101240002B01A1CF311112C09111B3CF8111BCCFAD
:10125000222309F407CF411105CF112309F402CF4E
:10126000C093380181E080932F018DCF9111F0CF91
:10127000EDCF1F93CF93DF93882309F494C0182FE9
:10128000C82FD0E0CC0FDD1FC859DF4FFE0184917D
:1012900090E08A3169F460E083E10E940F0264E625
:1012A00070E080E090E00E9465021092740191E08D
:1012B000FE0184918D3149F460E080E10E940F02CB
:1012C00060E080E10E94E10191E0FE0184918D32B5
:1012D00049F460E080E10E940F0260E080E10E943A
:1012E000E10191E0FE0184918E3149F460E08FE0EC
:1012F0000E940F0260E08FE00E94E10191E0FE0198
:1013000084918E3249F460E08FE00E940F0260E029
:101310008FE00E94E10191E0FE0184918B3129F47C
:1013200060E082E10E940F0291E0FE0184918B3225
:1013300029F460E082E10E940F0291E0FE018491B5
:101340008C3129F460E081E10E940F0291E0FE01FE
:10135000C491CC3239F460E081E1DF91CF911F91EB
:101360000C940F0291111FC080916E011817D9F0D3
:1013700080916F011817B9F080917001181799F0DA
:1013800080917101181779F080917201181759F046
:1013900080917301181739F060E0812FDF91CF91B0
:1013A0001F910C943305DF91CF911F9108951F92E7
:1013B0000F920FB60F9211242F933F938F939F9309
:1013C000AF93BF938091BC019091BD01A091BE01EC
:1013D000B091BF013091760123E0230F2D3758F5EE
:1013E0000196A11DB11D209376018093BC019093BD
:1013F000BD01A093BE01B093BF0180917701909190
:101400007801A0917901B0917A010196A11DB11DD9
:101410008093770190937801A0937901B0937A013A
:10142000BF91AF919F918F913F912F910F900FBEE0
:101430000F901F90189526E8230F0296A11DB11D4D
:10144000D2CF1F920F920FB60F9211242F933F937A
:101450004F935F936F937F938F939F93AF93BF93BC
:10146000EF93FF9380EC91E00E941603FF91EF91C0
:10147000BF91AF919F918F917F916F915F914F91AC
:101480003F912F910F900FBE0F901F9018951F92B4
:101490000F920FB60F9211242F938F939F93EF9378
:1014A000FF93E091D001F091D1018081E091D601CC
:1014B000F091D70182FD1BC090818091D9018F5F8F
:1014C0008F732091DA01821741F0E091D901F0E0A9
:1014D000E054FE4F958F8093D901FF91EF919F913A
:1014E0008F912F910F900FBE0F901F9018958081B4
:1014F000F4CF1F920F920FB60F9211242F933F93A8
:101500004F935F936F937F938F939F93AF93BF930B
:10151000EF93FF938091070182FD1CC0846080934C
:1015200007014BE050E060E071E080EC91E00E9448
:101530009802FF91EF91BF91AF919F918F917F9111
:101540006F915F914F913F912F910F900FBE0F9030
:101550001F9018958B7FE3CFEF92FF920F931F930D
:10156000CF93DF937B018C01D0E0C0E02FB7F894DC
:101570008091BC019091BD01A091BE01B091BF01CD
:101580002FBF8093C8019093C901A093CA01B09363
:10159000CB0180EC91E00E94D40297FF2CC02FB7C2
:1015A000F8948091BC019091BD01A091BE01B091D1
:1015B000BF012FBF4091C8015091C9016091CA017C
:1015C0007091CB01841B950BA60BB70B4091C40106
:1015D0005091C5016091C6017091C70184179507AC
:1015E000A607B707B0F2CE01DF91CF911F910F91FF
:1015F000FF90EF900895F80181938F012196EC16EA
:10160000FD0609F0B3CFEFCFCF93DF9300D0CDB776
:10161000DEB7789484B5826084BD84B5816084BD72
:1016200085B5826085BD85B5816085BD80916E0080
:10163000816080936E0010928100809181008260B1
:1016400080938100809181008160809381008091EE
:1016500080008160809380008091B10084608093DD
:10166000B1008091B00081608093B00080917A00D9
:10167000846080937A0080917A00826080937A00FF
:1016800080917A00816080937A0080917A008068EE
:1016900080937A001092C10061E083E10E940F0202
:1016A00060E083E10E94E10180E58CBD81E08DBDB9
:1016B0001FB7F89480914401811127C0E0EAF2E05D
:1016C0008491E4EBF2E09491E82FF0E0EE0FFF1F3D
:1016D000E858FD4FA591B491EC91E92321F461E024
:1016E0008AE00E94E10161E08AE00E940F028CB56D
:1016F00080618CBD8CB580648CBD61E08DE00E9402
:101700000F0261E08BE00E940F02809144018F5F25
:10171000809344011FBF60E082E10E940F0260E0FD
:1017200081E10E940F0260E080E10E940F0260E010
:101730008FE00E940F0261E086E00E940F0261E0EC
:1017400087E00E940F0261E08EE00E940F0260E0DD
:1017500086E00E94E10160E087E00E94E10160E034
:101760008EE00E94E10110926100F8948FEF93E007
:101770000E949F138433D9F1EBE7F1E08BEB91E00A
:1017800011928E179F07E1F710E000E0C8010E9458
:10179000C204005C1F4F011582E01807B9F780EF03
:1017A00093E09A83898360E0CE0101960E949304BE
:1017B00081EF93E09A83898360E0CE0101960E94D5
:1017C000930411E01983BE016F5F7F4F81EF93E0B7
:1017D0000E9407051983BE016F5F7F4F82EF93E080
:1017E0000E94070564E38FEF93E00E94A7138FEF39
:1017F00080930F0185E180934E0186E180934F0134
:1018000010924501109280001092810088E09DE3C3
:1018100090938900809388008091810088608093F4
:10182000810080916F00826080936F0078946BEBF1
:1018300071E080EF93E00E94290560E171E081EFA3
:1018400093E00E941F0561E171E082EF93E00E9446
:101850001F0569E571E083EF93E00E942905EBE73E
:10186000F1E08BEB91E011928E179F07E1F79EE17B
:1018700090937B012FE120937C0180E280937D0196
:1018800020937E0190937F018093800164E670E055
:1018900080E090E00E94650240910F0160914E014E
:1018A00080914F010E94660464EF71E080E090E057
:1018B0000E94650260E083E10E940F02E091D00186
:1018C000F091D10182E08083E091CC01F091CD01D3
:1018D0001082E091CE01F091CF0180E180831092DF
:1018E000D801E091D401F091D50186E08083E091A8
:1018F000D201F091D301808180618083E091D20197
:10190000F091D301808188608083E091D201F091D1
:10191000D301808180688083E091D201F091D3016E
:1019200080818F7D8083809107018460809307018F
:101930001092750139EA232E30E0332E44EA442E0A
:1019400040E0542E55EA652E50E0752E06EA10E070
:1019500097EAE92E90E0F92E2AEAC22E20E0D22E54
:101960008BEAA82E80E0B82E8091750181110DC000
:1019700080917401811109C00E94BD01892B29F455
:101980000E94890481E0809375010E94BD01019746
:1019900011F41092750180EC91E00E94F6020C9710
:1019A0006CF180EC91E00E94D4028735910531F50D
:1019B00080EC91E00E94D4028B3A9105F9F480EC1E
:1019C00091E00E94D40288389105C1F480EC91E046
:1019D0000E94D4024C0180EC91E00E94D402992430
:1019E0009AE089169104BCF4E8E08E1691040CF09C
:1019F0008AC3F7E08F16910409F48CC380E090E06D
:101A0000892B09F4B1CF0E940203882309F4A8CFDF
:101A10000E9400009DCF9BE08916910479F78051C8
:101A200068E070E0823008F062C08CE691E00E94CD
:101A3000AC0A809148010E943909809149010E94B5
:101A4000390980914A010E94390980914B010E9415
:101A5000390980914C010E94390980914D010E9401
:101A6000390960916C018091460168130C946C13E4
:101A700061E080916E010E94330561E080916F0109
:101A80000E94330561E0809170010E94330561E09E
:101A9000809171010E94330561E0809172010E9482
:101AA000330561E0809173010E94330580916C01E0
:101AB0008093460180916D018093470180916E0172
:101AC0008093480180916F0180934901809170015A
:101AD00080934A018091710180934B018091720142
:101AE00080934C018091730180934D0187CF84E6F0
:101AF00091E00E94AC0A8091690184FF0FC0E0E987
:101B0000F0E0849161E00E94BD03E1E9F0E084919E
:101B100061E00E94BD0381E08093630180916901CF
:101B200084FD12C080916301882371F0E0E9F0E048
:101B3000849160E00E94BD03E1E9F0E0849160E0FF
:101B40000E94BD03109263018091690187FF0FC05D
:101B5000ECE9F0E0849161E00E94BD03EDE9F0E082
:101B6000849161E00E94BD0381E0809362018091D5
:101B7000690187FD12C080916201882371F0ECE950
:101B8000F0E0849160E00E94BD03EDE9F0E0849113
:101B900060E00E94BD03109262018091690186FF9E
:101BA0000FC0E8E7F0E0849161E00E94BD03E9E73F
:101BB000F0E0849161E00E94BD0381E080936101C7
:101BC0008091690186FD12C080916101882371F0C6
:101BD000E8E7F0E0849160E00E94BD03E9E7F0E00F
:101BE000849160E00E94BD031092610180916901BF
:101BF00085FF0FC0E2E9F0E0849161E00E94BD033F
:101C0000E3E9F0E0849161E00E94BD0381E080930C
:101C100060018091690185FD12C080916001882377
:101C200071F0E2E9F0E0849160E00E94BD03E3E935
:101C3000F0E0849160E00E94BD0310926001809109
:101C40006A0180FF0FC0E6E9F0E0849161E00E9444
:101C5000BD03E7E9F0E0849161E00E94BD0381E00B
:101C600080935F0180916A0180FD12C080915F01C5
:101C7000882371F0E6E9F0E0849160E00E94BD0302
:101C8000E7E9F0E0849160E00E94BD0310925F01FB
:101C900080916A0182FF0FC0E0EAF0E0849161E088
:101CA0000E94BD03E1EAF0E0849161E00E94BD037F
:101CB00081E080935E0180916A0182FD12C0809173
:101CC0005E01882371F0E0EAF0E0849160E00E9418
:101CD000BD03E1EAF0E0849160E00E94BD03109250
:101CE0005E0180916A0181FF0FC0E8E9F0E0849114
:101CF00061E00E94BD03E9E9F0E0849161E00E94A7
:101D0000BD0381E080935D0180916A0181FD12C075
:101D100080915D01882371F0E8E9F0E0849160E052
:101D20000E94BD03E9E9F0E0849160E00E94BD03F8
:101D300010925D0180916A0183FF0FC0E0E8F0E03E
:101D4000849161E00E94BD03E1E8F0E0849161E0EC
:101D50000E94BD0381E080935C0180916A0183FD54
:101D600012C080915C01882371F0E0E8F0E084917A
:101D700060E00E94BD03E1E8F0E0849160E00E9431
:101D8000BD0310925C0180916A0184FF0FC0ECE8F2
:101D9000F0E0849161E00E94BD03EDE8F0E0849101
:101DA00061E00E94BD0381E080935B0180916A0144
:101DB00084FD12C080915B01882371F0ECE8F0E0B3
:101DC000849160E00E94BD03EDE8F0E0849160E062
:101DD0000E94BD0310925B0180916A0185FF0FC0D4
:101DE000EEE8F0E0849161E00E94BD03EFE8F0E0EE
:101DF000849161E00E94BD0381E080935A0180914B
:101E00006A0185FD12C080915A01882371F0EEE8C5
:101E1000F0E0849160E00E94BD03EFE8F0E084917F
:101E200060E00E94BD0310925A0190905901F1E0C8
:101E30009F1295C0809165018D3760F4F601849101
:101E400061E00E94BD03F501849161E00E94BD0341
:101E500090925801809165018E3780F080915801F1
:101E6000813061F4F601849160E00E94BD03F501C8
:101E7000849160E00E94BD03109258018091650139
:101E8000823868F0F801849161E00E94BD03F70197
:101E9000849161E00E94BD0381E0809357018091AD
:101EA0006501813880F480915701813061F4F80137
:101EB000849160E00E94BD03F701849160E00E947C
:101EC000BD0310925701809164018D3768F4F201CF
:101ED000849161E00E94BD03F301849161E00E945E
:101EE000BD0381E080935601809164018E3780F0BC
:101EF00080915601813061F4F201849160E00E948A
:101F0000BD03F301849160E00E94BD03109256016D
:101F100080916401823870F0E8EAF0E0849161E039
:101F20000E94BD03F101849161E00E94BD0381E044
:101F30008093550180916401813888F48091550126
:101F4000813069F4E8EAF0E0849160E00E94BD032A
:101F5000F101849160E00E94BD03109255018091CF
:101F60005901823009F096C090906601F1E09F120D
:101F70000CC0F601849161E00E94BD03F5018491DB
:101F800061E00E94BD039092580180916601803803
:101F900081F480915801813061F4F601849160E010
:101FA0000E94BD03F501849160E00E94BD03109280
:101FB0005801809166018E3F69F4F801849161E0D7
:101FC0000E94BD03F701849161E00E94BD0381E09E
:101FD0008093570180916601803881F48091570188
:101FE000813061F4F801849160E00E94BD03F70143
:101FF000849160E00E94BD031092570190906501AA
:10200000F1E09F120CC0F201849161E00E94BD03D7
:10201000F301849161E00E94BD039092560180918A
:102020006501803881F480915601813061F4F201BC
:10203000849160E00E94BD03F301849160E00E94FE
:10204000BD0310925601809165018E3F71F4E8EA5C
:10205000F0E0849161E00E94BD03F101849161E0B0
:102060000E94BD0381E08093550180916501803815
:1020700089F480915501813069F4E8EAF0E08491B7
:1020800060E00E94BD03F101849160E00E94BD0305
:102090001092550180915901833009F0D7C1809188
:1020A00069018F70982EF6E08F13A0C0E8EAF0E087
:1020B000849160E00E94BD03F101849160E00E9480
:1020C000BD03F601849160E00E94BD03F501849197
:1020D00060E00E94BD03F801849160E00E94BD03AE
:1020E000F701849160E00E94BD03F201849161E0F8
:1020F0000E94BD03F301849161E00E94BD0381E071
:102100008093550170C180EC91E00E94D402019748
:1021100009F074CC64E070E082E191E00E94AC0AC6
:102120008091130190E08038910508F09A952091F4
:10213000530130915401820F931F90935401809367
:1021400053012091140130E02038310508F03A9510
:102150004091510150915201240F351F309352018B
:10216000209351014091120150911501609150014D
:1021700070911101772309F4B3C2651B562F509358
:1021800050015091BB01052E02C0969587950A9487
:10219000E2F780934F0102C0369527955A95E2F7F2
:1021A0006FEF70E0621B730B60934E01A42FA17060
:1021B000542F527020911001222309F483C2242F3E
:1021C00020952170E22FF0E0511103C02260E22F30
:1021D000F0E042FFE460409150014295407F4E0F95
:1021E000486040930F010E94660408CCF4E08F130E
:1021F00026C0E8EAF0E0849160E00E94BD03F101AE
:10220000849160E00E94BD03F601849160E00E9429
:10221000BD03F501849160E00E94BD03F201849149
:1022200060E00E94BD03F301849160E00E94BD0361
:10223000F801849161E00E94BD03F7015CCFF2E0F8
:102240008F1326C0F201849160E00E94BD03F30168
:10225000849160E00E94BD03F601849160E00E94D9
:10226000BD03F501849160E00E94BD03F8018491F3
:1022700060E00E94BD03F701849160E00E94BD030D
:10228000E8EAF0E0849161E00E94BD03F10133CF00
:10229000811126C0E8EAF0E0849160E00E94BD036D
:1022A000F101849160E00E94BD03F201849160E03D
:1022B0000E94BD03F301849160E00E94BD03F80118
:1022C000849160E00E94BD03F701849160E00E9468
:1022D000BD03F601849161E00E94BD03F5010BCFBF
:1022E000F5E08F131EC0F601849160E00E94BD03EB
:1022F000F501849160E00E94BD03E8EAF0E084917A
:1023000060E00E94BD03F101849160E00E94BD0382
:10231000F201849161E00E94BD03F301849161E0C8
:1023200085CFF3E08F131CC0F601849160E00E941A
:10233000BD03F501849160E00E94BD03F201849128
:1023400060E00E94BD03F301849160E00E94BD0340
:10235000E8EAF0E0849161E00E94BD03F101DECF84
:10236000F1E08F131EC0F801849160E00E94BD036C
:10237000F701849160E00E94BD03F201849160E066
:102380000E94BD03F301849160E00E94BD03E8EA6E
:10239000F0E0849161E00E94BD03F101849161E06D
:1023A00096CFF7E08F131CC0F801849160E00E9483
:1023B000BD03F701849160E00E94BD03E8EAF0E00C
:1023C000849160E00E94BD03F101849160E00E946D
:1023D000BD03F201849161E00E94BD03F301DECFF1
:1023E000F8E08F138CCE80915501813009F02EC01A
:1023F00088E098122BC010925501F201849160E0A0
:102400000E94BD03F301849160E00E94BD03F801C6
:10241000849160E00E94BD03F701849160E00E9416
:10242000BD03E8EAF0E0849160E00E94BD03F101A1
:10243000849160E00E94BD03F601849160E00E94F7
:10244000BD03F501849160E00E94BD0380915901B4
:10245000843009F096C0809166018D3768F4F601EA
:10246000849161E00E94BD03F501849161E00E94C6
:10247000BD0381E080935801809166018E3780F022
:1024800080915801813061F4F601849160E00E94EE
:10249000BD03F501849160E00E94BD0310925801D4
:1024A00080916601823868F0F801849161E00E94B1
:1024B000BD03F701849161E00E94BD0381E0809338
:1024C000570180916601813880F4809157018130F5
:1024D00061F4F801849160E00E94BD03F7018491EA
:1024E00060E00E94BD0310925701809165018D3715
:1024F00068F4F201849161E00E94BD03F3018491CC
:1025000061E00E94BD0381E08093560180916501E6
:102510008E3780F080915601813061F4F201849110
:1025200060E00E94BD03F301849160E00E94BD035E
:102530001092560180916501823870F0E8EAF0E06F
:10254000849161E00E94BD03F101849161E00E94E9
:10255000BD0381E08093550180916501813888F445
:1025600080915501813069F4E8EAF0E0849160E0FF
:102570000E94BD03F101849160E00E94BD031092AE
:10258000550180915901853009F038CA8091670161
:102590008D3768F4F601849161E00E94BD03F50176
:1025A000849161E00E94BD0381E080935801809195
:1025B00067018E3780F080915801813061F4F60117
:1025C000849160E00E94BD03F501849160E00E9467
:1025D000BD031092580180916701823868F0F801BC
:1025E000849161E00E94BD03F701849161E00E9443
:1025F000BD0381E08093570180916701813880F4A9
:1026000080915701813061F4F801849160E00E946B
:10261000BD03F701849160E00E94BD031092570151
:10262000809168018D3768F4F201849161E00E9425
:10263000BD03F301849161E00E94BD0381E08093BA
:102640005601809168018E3780F08091560181306B
:1026500061F4F201849160E00E94BD03F301849172
:1026600060E00E94BD03109256018091680182389B
:1026700070F0E8EAF0E0849161E00E94BD03F101AE
:10268000849161E00E94BD0381E0809355018091B7
:102690006801813810F00C94FE0C80915501813056
:1026A00011F00C94FE0CE8EAF0E0849160E00E94E6
:1026B000BD03F101849160E00E94BD0310925501B9
:1026C0000C94FE0C31E020E0511130E0E32FF22FAA
:1026D000A1117FCDE2607DCD0E94C1030C94380D25
:1026E000560F4DCDE0ECF1E01382128288EE93E0BC
:1026F000A0E0B0E084839583A683B7838AE191E06C
:102700009183808385EC90E09587848784EC90E0CA
:102710009787868780EC90E0918B808B81EC90E0AE
:10272000938B828B82EC90E0958B848B86EC90E08F
:10273000978B868B118E128E138E148E0895F999B5
:10274000FECF92BD81BDF89A992780B50895262FB6
:10275000F999FECF1FBA92BD81BD20BD0FB6F89486
:10276000FA9AF99A0FBE01960895EE0FFF1F059091
:0A277000F491E02D0994F894FFCFD6
:10277A0057AB12000000000020FF2100000000FFFC
:10278A000101FF0000FF0000000038039802C502A3
:08279A008503F602D402E802F7
:00000001FF
