:100000000C946A010C9492010C9492010C9492014C
:100010000C9492010C9492010C9492010C94920114
:100020000C9492010C9492010C9492010C94E90AA4
:100030000C9492010C9492010C9492010C949201F4
:100040000C94470A0C9492010C94B70A0C94910AF0
:100050000C9492010C9492010C9492010C949201D4
:100060000C9492010C94920100000000000000002A
:100070001200580041003200330042005200570085
:1000800036004700370027003800480026001600D9
:1000900013004300220053004600510023003100AA
:1000A0005600210014002400340044005400550080
:1000B0004500350025001500170018111115111401
:1000C00018002847283728162827000028582826EF
:1000D0002821112828482838284111240000000030
:1000E00000000000000000000000000000001C00F4
:1000F0001B001A0011250000000000000000000095
:1001000000002835282511351154115511450000DE
:100110002851285828472837170014002400340095
:1001200044005400550045003500250015002838CE
:1001300000000000000000000000000000000000BF
:1001400000000000000000000000000000000000AF
:10015000000000000000000000000000000000009F
:10016000000000000000000000000000000000008F
:10017000000000000000000000000000000000007F
:10018000000000000000000000000000000000006F
:10019000000000000000000000000000000000005F
:1001A000000000000000000000000000000000004F
:1001B000000000000000000000000000000000003F
:1001C000000000000000000000000000000000002F
:1001D000000000000000000000000000000000001F
:1001E000000000000000000000000000000000000F
:1001F00000000000000000000000000000000000FF
:1002000000000000000000000000000000000000EE
:1002100000000000000000000000000000000000DE
:100220000000000000000000280011000000000095
:100230000000280000000000000000000000000096
:1002400000000000000000000000000000000000AE
:10025000000000000000000000000000000000009E
:100260000000000000000000AAFFAAFFAAFFAAFFEA
:100270000000000000000000000000002400270033
:100280002A0000000000250028002B0000000000CC
:1002900023002600290004040404040404040202C8
:1002A00002020202030303030303010204081020F5
:1002B0004080010204081020010204081020000000
:1002C0000008000201000003040700000000000015
:1002D0000000971711241FBECFEFD8E0DEBFCDBFBF
:1002E00022E0A8E2B1E001C01D92AF35B207E1F70C
:1002F00011E0A0E0B1E0E4ECFFE202C005900D9255
:10030000A832B107D9F711E0CAE6D1E004C02197BD
:10031000FE010E94DA17C936D107C9F70E94740B93
:100320000C94E0170C940000833081F028F48130A5
:1003300099F08230A9F008958730A9F08830C9F08B
:100340008430B1F4809180008F7D03C08091800063
:100350008F7780938000089584B58F7784BD08954A
:1003600084B58F7DFBCF8091B0008F778093B000F4
:1003700008958091B0008F7DF9CFCF93DF93E1EDA9
:10038000F2E08491EDEBF2E0D491E9EAF2E0C4917D
:10039000CC23A1F081110E949401EC2FF0E0EE0F2C
:1003A000FF1FE457FD4FA591B491EC91ED2381E03F
:1003B00090E009F480E0DF91CF91089580E090E033
:1003C000FACF1F93CF93DF93282F30E0F901E25447
:1003D000FD4F8491F901E655FD4FD491F901EA569C
:1003E000FD4FC491CC23A9F0162F81110E949401D6
:1003F000EC2FF0E0EE0FFF1FEE57FD4FA591B491EB
:100400008FB7F894EC91111108C0D095DE23DC93DE
:100410008FBFDF91CF911F910895DE2BF8CFCF933F
:10042000DF9390E0FC01E655FD4F24918A569D4FE5
:10043000FC0184918823C9F090E0880F991FFC018A
:10044000E858FD4FA591B491FC01EE57FD4FC591C1
:10045000D49161110DC09FB7F8948C91209582239F
:100460008C938881282328839FBFDF91CF910895A3
:10047000623051F49FB7F8943C91822F809583238A
:100480008C93E8812E2BEFCF8FB7F894EC912E2B25
:100490002C938FBFEACF3FB7F89480917901909168
:1004A0007A01A0917B01B0917C0126B5A89B05C083
:1004B0002F3F19F00196A11DB11D3FBFBA2FA92FE3
:1004C000982F8827BC01CD01620F711D811D911DE0
:1004D00042E0660F771F881F991F4A95D1F708954C
:1004E0008F929F92AF92BF92CF92DF92EF92FF9244
:1004F0006B017C010E944B024B015C01C114D104D1
:10050000E104F104B9F00E944B02681979098A09E3
:100510009B09683E73408105910580F321E0C21A72
:10052000D108E108F10888EE880E83E0981EA11C2E
:10053000B11CE4CFFF90EF90DF90CF90BF90AF90D1
:100540009F908F900895AF92BF92CF92DF92EF92DB
:10055000FF920F931F93CF93DF936C017B018B016D
:10056000040F151FEB015E01AE18BF08C017D107BD
:1005700059F06991D601ED91FC910190F081E02D47
:10058000C6010995892B79F7C501DF91CF911F919C
:100590000F91FF90EF90DF90CF90BF90AF900895B4
:1005A000FC01538D448D252F30E0842F90E0821B79
:1005B000930B541710F0CF96089501970895FC01FE
:1005C000918D828D981761F0A28DAE0FBF2FB11D56
:1005D0005D968C91928D9F5F9F73928F90E00895AE
:1005E0008FEF9FEF0895FC01918D828D981731F068
:1005F000828DE80FF11D858D90E008958FEF9FEFBC
:100600000895FC01918D228D892F90E0805C9F4F91
:10061000821B91098F739927089582EC91E00E94C3
:10062000010321E0892B09F420E0822F089580E066
:1006300090E0892B29F00E940D0381110C94000099
:100640000895FC01A48DA80FB92FB11DA35ABF4F67
:100650002C91848D90E001968F739927848FA689C1
:10066000B7892C93A089B1898C91837080648C9315
:10067000938D848D981306C00288F389E02D8081C4
:100680008F7D80830895EF92FF920F931F93CF93F6
:10069000DF93EC0181E0888F9B8D8C8D98131AC0BD
:1006A000E889F989808185FF15C09FB7F894EE89A4
:1006B000FF896083E889F989808183708064808301
:1006C0009FBF81E090E0DF91CF911F910F91FF904C
:1006D000EF900895F62E0B8D10E00F5F1F4F0F73F4
:1006E0001127E02E8C8D8E110CC00FB607FCFACFAF
:1006F000E889F989808185FFF5CFCE010E94210329
:10070000F1CFEB8DEC0FFD2FF11DE35AFF4FF0827F
:100710009FB7F8940B8FEA89FB8980818062CFCFE5
:10072000CF93DF93EC01888D8823B9F0AA89BB8928
:10073000E889F9898C9185FD03C0808186FD0DC013
:100740000FB607FCF7CF8C9185FFF2CF808185FF34
:10075000EDCFCE010E942103E9CFDF91CF91089523
:100760008EBD00000DB407FEFDCF8EB50895662343
:1007700099F0806880934601809146019BB19F73F8
:100780009BB940980E94B0030000000000000000E8
:1007900000000000409A08958F77ECCF81110C94EF
:1007A000B70308951F93CF93DF93C62FD82FD62773
:1007B000D0FF0EC0E8E2F2E08491162F1170612F95
:1007C0000E94CE03E9E2F2E08491612F0E94CE0301
:1007D000D1FF0FC0C1FB112710F9EAE2F2E08491CA
:1007E000612F0E94CE03EBE2F2E08491612F0E9420
:1007F000CE03D2FF0FC0C2FB112710F9ECE2F2E0EA
:100800008491612F0E94CE03EDE2F2E08491612F8A
:100810000E94CE03D3FF0FC0C3FB112710F9EEE2F5
:10082000F2E08491612F0E94CE03EFE2F2E0849126
:10083000612F0E94CE03D4FF0FC0C4FB112710F913
:10084000E0E3F2E08491612F0E94CE03E1E3F2E065
:100850008491612F0E94CE03D5FF0FC0C5FB1127E5
:1008600010F9E2E3F2E08491612F0E94CE03E3E30A
:10087000F2E08491612F0E94CE03D6FF0FC0C6FB29
:10088000112710F9E4E3F2E08491612F0E94CE0376
:10089000E5E3F2E08491612F0E94CE03D7FF10C000
:1008A000E6E3F2E08491DC2FDD1FDD27DD1F6D2FF5
:1008B0000E94CE03E7E3F2E084916D2F0E94CE0305
:1008C00080914401882379F080914301811102C015
:1008D000CC2349F0E82FF0E0E358FE4FC068C08316
:1008E0008F5F80934301DF91CF911F910895CF9344
:1008F000DF93D62FC42F40989BB19F739BB95E9A0C
:100900000E94B00300000000000000000000000092
:10091000409A40988BB18F738BB95F9A8D2F0E944C
:10092000B003000000000000000000000000409A3A
:1009300040988BB18F738BB98BB1806C8BB98C2F36
:100940000E94B00300000000000000000000000052
:10095000409ADF91CF9108958FEF80930F0180939C
:100960005101809315014FEF60914F01809150012B
:100970000C947704FF920F931F93CF93DF93EC01B6
:10098000F62E08811981C8010E94C417F81621F0BB
:100990006F2DC8010E94CC17CE01DF91CF911F911E
:1009A0000F91FF900895CF93DF9300D0CDB7DEB7BE
:1009B00080EF93E09A8389836091BD01CE01019617
:1009C0000E94BA048DEB91E00F900F90DF91CF91D0
:1009D0000895EF92FF920F931F93CF93DF9300D070
:1009E000CDB7DEB70DE711E08D5791407C01C7010F
:1009F000800F911F9A838983F80161918F01CE0145
:100A000001960E94BA04F1E00D3B1F0781F78DE7C4
:100A100091E00F900F90DF91CF911F910F91FF9078
:100A2000EF9008958F3F910511F00E94E904109214
:100A30004401809181008B6F809381008091070138
:100A40008460809307014BE050E060E071E082EC4D
:100A500091E00E94A302109243010895EF92FF9249
:100A60000F931F93CF93DF9300D0CDB7DEB78C01E8
:100A70007B019A838983FB016081CE0101960E94EC
:100A8000BA040F5F1F4F1A830983F7016181CE01FA
:100A900001960E94BA04C7010F900F90DF91CF9189
:100AA0001F910F91FF90EF9008950F931F93CF9395
:100AB000DF9300D0CDB7DEB78B019A838983FB012A
:100AC0006081CE0101960E94BA04C8010F900F9078
:100AD000DF91CF911F910F910895CF93DF93EB0199
:100AE0000E94C4178883CE01DF91CF910895CF93E0
:100AF000DF93EB010E94C4178883CE01DF91CF9171
:100B00000895EF92FF920F931F93CF93DF93882363
:100B1000E1F0162F662309F4CFC38933F9F49091DD
:100B20004201911159C08091070181FD15C0826079
:100B3000809307014BE050E060E071E082EC91E0CF
:100B40000E94A30281E080934201DF91CF911F9127
:100B50000F91FF90EF9008958D7FEACF8C34E1F5EF
:100B600061E081E10E94B70369E170E080E090E01C
:100B70000E94700261E085E30E94B70369E170E0C2
:100B800080E090E00E94700260E085E30E94B7037D
:100B900069E170E080E090E00E94700261E085E130
:100BA0000E94B70369E170E080E090E00E9470026B
:100BB00060E085E10E94B70369E170E080E090E0C9
:100BC0000E94700260E081E1DF91CF911F910F914F
:100BD000FF90EF900C94B703282F30E0F901EE0F4F
:100BE000FF1FE859FF4F94919B3171F461E082E15E
:100BF0000E940F0260E082E1DF91CF911F910F917F
:100C0000FF90EF900C94E10194919B3231F461E0FC
:100C100082E10E940F0261E0EECF94919C3139F4A1
:100C200061E081E10E940F0260E081E1E5CF9491F3
:100C30009C3231F461E081E10E940F0261E0F5CF66
:100C400094919A3171F461E083E10E940F0260E0B7
:100C500083E10E94E1010E94AC0481E0809376016F
:100C600074CF94919D3139F461E080E10E940F02CC
:100C700060E080E1C1CF94919D3231F461E080E188
:100C80000E940F0261E0F5CF94919E3139F461E04A
:100C90008FE00E940F0260E08FE0AECFE491EE3271
:100CA00031F461E08FE00E940F0261E0F5CF909196
:100CB0006E0197FF03C0986090936E0190916E0152
:100CC000492F487093FF98C08E3151F41092BD01A6
:100CD000DF91CF911F910F91FF90EF900C94D3046F
:100CE0008F3121F481E08093BD01F2CF803211F485
:100CF00082E0F9CF813211F483E0F5CF873291F4AD
:100D00008091100191E089278093100160E171E0EA
:100D100081EF93E0DF91CF911F910F91FF90EF90C2
:100D20000C945505863259F48091110191E0892780
:100D30008093110161E171E082EF93E0EBCF8431A8
:100D400021F481E08093650100CF8A3111F482E0C3
:100D5000F9CF883011F483E0F5CF853111F484E0C8
:100D6000F1CF873111F485E0EDCF8C3111F486E0BD
:100D7000E9CF8A3209F040C01092800010928100C1
:100D800088E09DE3909389008093880080918100A2
:100D900088608093810080918100846080938100CD
:100DA00080916F00826080936F00EDE7F1E0119217
:100DB00081E0ED3BF807D9F710923B0110923C011E
:100DC00010923D0110923E0110923F01109240019D
:100DD00010923301109234011092350110923601B5
:100DE000109237011092380181E0809344011092F3
:100DF000430110923001A9CE893271F490914401DF
:100E0000992351F08FEF90E0DF91CF911F910F91D7
:100E1000FF90EF900C94120596EC980F983008F024
:100E200040C180914401811190CEF6E0220F331F22
:100E3000FA95E1F71092430110923B0110923C01A8
:100E400010923D0110923E0110923F01109240011C
:100E5000ADEBEA2EA1E0FA2E0DE711E0E901CD5F3E
:100E6000DF40CE01800F911F0E94C417F8018193CB
:100E70008F01EE16FF06A9F7C0917D01CC2309F47E
:100E800064CEE0914301F0E0E358FE4FC081C7FF1C
:100E900017C0DC2FDF7780913001D81719F06D2F44
:100EA0000E94D203D0933001809143018F5F8093E1
:100EB000430162E370E080E090E00E947002DECFC8
:100EC00080913B01C8133EC060E08C2F0E948105D9
:100ED00010923B0181E090913C01C91307C060E092
:100EE0008C2F0E94810510923C0181E090913D0180
:100EF000C91307C060E08C2F0E94810510923D014C
:100F000081E090913E01C91307C060E08C2F0E94E0
:100F1000810510923E0181E090913F01C91307C005
:100F200060E08C2F0E94810510923F0181E0D091FA
:100F30004001CD1309C060E08C2F0E948105109202
:100F40004001B2CF80E0C7CF8111AECF8C2F90E0AF
:100F5000880F991FAC0148595F4FFA012491222351
:100F600091F02091410130E0220F331F28593F4F6B
:100F7000F9016491662339F0FA016491F901249131
:100F8000621709F442C0FA012491222391F02091C2
:100F9000410130E0220F331F27593F4FF90164917F
:100FA000662339F0FA014491F9012491421709F4BA
:100FB0002CC087599F4FFC012491222389F0209156
:100FC000410130E0220F331F28593F4FF90144916E
:100FD000442331F0FC014491F90124914217A9F016
:100FE000FC0124912223B9F02091410130E0220F2D
:100FF000331F27593F4FF9014491442361F0FC010D
:101000008491F9012491821306C062E370E080E0CC
:1010100090E00E94700280913B01811121C0C09339
:101020003B0161E080913B010E94810561E080917C
:101030003C010E94810561E080913D010E94810593
:1010400061E080913E010E94810561E080913F0155
:101050000E94810561E0809140010E94810524CFBA
:1010600080913C01811103C0C0933C01DACF809193
:101070003D01811103C0C0933D01D3CF80913E015A
:10108000811103C0C0933E01CCCF80913F018111FB
:1010900003C0C0933F01C5CFD111C3CFC09340015E
:1010A000C0CF411152CD90914401992309F445C01C
:1010B000823008F442C060913301861304C09091DD
:1010C0002A011917D1F140913401841304C0909181
:1010D0002B01191791F120913501821304C09091D1
:1010E0002C01191751F190913601891304C03091E8
:1010F0002D01131711F130913701831304C0509162
:101100002E011517D1F050913801851304C070914C
:101110002F01171791F086133AC01111ECC090916E
:101120004301E92FF0E0E358FE4F80839F5F9093E7
:10113000430110922A011092330180934101C82F7C
:10114000D0E0CC0FDD1FFE01E859FF4F8491612FE5
:101150000E94CE03FE01E759FF4F8491612FDF917A
:10116000CF911F910F91FF90EF900C94CE0321111E
:10117000ECCC8C3409F097CF60E081E10E94B7039A
:1011800060E085E30E94B70360E085E31DCD841332
:1011900011C01111B2C090914301E92FF0E0E35862
:1011A000FE4F80839F5F9093430110922B0110921A
:1011B0003401C3CF821311C01111A1C0909143011A
:1011C000E92FF0E0E358FE4F80839F5F9093430147
:1011D00010922C0110923501B0CF891311C011115A
:1011E00090C090914301E92FF0E0E358FE4F8083D7
:1011F0009F5F9093430110922D01109236019DCF75
:10120000831311C011117FC090914301E92FF0E0C9
:10121000E358FE4F80839F5F9093430110922E010D
:10122000109237018ACF851311C011116EC09091B1
:101230004301E92FF0E0E358FE4F80839F5F9093D6
:10124000430110922F011092380177CF611160C0D5
:10125000112309F467C08093330191E090932A0130
:1012600090914301E92FF0E0E358FE4F80839F5FA8
:101270009093430162CF211109C0112309F456C094
:101280008093350191E090932C01EACF911109C030
:10129000112309F44DC08093360191E090932D0104
:1012A000DFCF311148C0112309F447CF80933701B4
:1012B00091E090932E01D4CF893311F41092420122
:1012C00090916E01292F287093FF03C08A3209F490
:1012D0003CCC96EC980F983008F049CF909144019F
:1012E000992309F432CC8A53990B26E0880F991F71
:1012F0002A95E1F789CD841302C082136ECF89133A
:101300007FCF831390CF8513A1CF662309F4A3CF9A
:101310004111B1CF112341F08093340191E09093BA
:101320002B019ECF411112C02111B0CF9111B9CF25
:10133000332309F402CF511100CF112309F4FDCE5C
:101340008093380191E090932F018ACF2111F0CF43
:10135000EDCF1F93CF93DF93882309F494C0182F08
:10136000C82FD0E0CC0FDD1FC859DF4FFE0184919C
:1013700090E08A3169F460E083E10E940F0264E644
:1013800070E080E090E00E9470021092760191E09F
:10139000FE0184918D3149F460E080E10E940F02EA
:1013A00060E080E10E94E10191E0FE0184918D32D4
:1013B00049F460E080E10E940F0260E080E10E9459
:1013C000E10191E0FE0184918E3149F460E08FE00B
:1013D0000E940F0260E08FE00E94E10191E0FE01B7
:1013E00084918E3249F460E08FE00E940F0260E049
:1013F0008FE00E94E10191E0FE0184918B3129F49C
:1014000060E082E10E940F0291E0FE0184918B3244
:1014100029F460E082E10E940F0291E0FE018491D4
:101420008C3129F460E081E10E940F0291E0FE011D
:10143000C491CC3239F460E081E1DF91CF911F910A
:101440000C940F0291111FC0809170011817D9F0F0
:10145000809171011817B9F080917201181799F0F5
:1014600080917301181779F080917401181759F061
:1014700080917501181739F060E0812FDF91CF91CD
:101480001F910C948105DF91CF911F9108951F92B8
:101490000F920FB60F9211242F933F938F939F9328
:1014A000AF93BF938091BE019091BF01A091C00105
:1014B000B091C1013091780123E0230F2D3758F509
:1014C0000196A11DB11D209378018093BE019093D8
:1014D000BF01A093C001B093C101809179019091A7
:1014E0007A01A0917B01B0917C010196A11DB11DF3
:1014F0008093790190937A01A0937B01B0937C0152
:10150000BF91AF919F918F913F912F910F900FBEFF
:101510000F901F90189526E8230F0296A11DB11D6C
:10152000D2CF1F920F920FB60F9211242F933F9399
:101530004F935F936F937F938F939F93AF93BF93DB
:10154000EF93FF9382EC91E00E942103FF91EF91D2
:10155000BF91AF919F918F917F916F915F914F91CB
:101560003F912F910F900FBE0F901F9018951F92D3
:101570000F920FB60F9211242F938F939F93EF9397
:10158000FF93E091D201F091D3018081E091D801E5
:10159000F091D90182FD1BC090818091DB018F5FAA
:1015A0008F732091DC01821741F0E091DB01F0E0C4
:1015B000EE53FE4F958F8093DB01FF91EF919F914A
:1015C0008F912F910F900FBE0F901F9018958081D3
:1015D000F4CF1F920F920FB60F9211242F933F93C7
:1015E0004F935F936F937F938F939F93AF93BF932B
:1015F000EF93FF938091070182FD1CC0846080936C
:1016000007014BE050E060E071E082EC91E00E9465
:10161000A302FF91EF91BF91AF919F918F917F9125
:101620006F915F914F913F912F910F900FBE0F904F
:101630001F9018958B7FE3CFEF92FF920F931F932C
:10164000CF93DF937B018C01D0E0C0E02FB7F894FB
:101650008091BE019091BF01A091C001B091C101E4
:101660002FBF8093CA019093CB01A093CC01B0937C
:10167000CD0182EC91E00E94DF0297FF2CC02FB7D2
:10168000F8948091BE019091BF01A091C001B091EA
:10169000C1012FBF4091CA015091CB016091CC0193
:1016A0007091CD01841B950BA60BB70B4091C60121
:1016B0005091C7016091C8017091C90184179507C5
:1016C000A607B707B0F2CE01DF91CF911F910F911E
:1016D000FF90EF900895F80181938F012196EC1609
:1016E000FD0609F0B3CFEFCFCF93DF9300D000D04A
:1016F00000D0CDB7DEB7789484B5826084BD84B560
:10170000816084BD85B5826085BD85B5816085BDFC
:1017100080916E00816080936E00109281008091B4
:10172000810082608093810080918100816080933C
:101730008100809180008160809380008091B10061
:1017400084608093B1008091B00081608093B0008C
:1017500080917A00846080937A0080917A00826020
:1017600080937A0080917A00816080937A008091E2
:101770007A00806880937A001092C10061E083E172
:101780000E940F0260E083E10E94E10180E58CBDD0
:1017900081E08DBD1FB7F89480914501811127C06C
:1017A000E0EAF2E08491E4EBF2E09491E82FF0E0DB
:1017B000EE0FFF1FE858FD4FA591B491EC91E9237E
:1017C00021F461E08AE00E94E10161E08AE00E9488
:1017D0000F028CB580618CBD8CB580648CBD61E0DE
:1017E0008DE00E940F0261E08BE00E940F02809169
:1017F00045018F5F809345011FBF60E082E10E9439
:101800000F0260E081E10E940F0260E080E10E942F
:101810000F0260E08FE00E940F0261E086E00E940C
:101820000F0261E087E00E940F0261E08EE00E94FB
:101830000F0260E086E00E94E10160E087E00E9424
:10184000E10160E08EE00E94E10110926100F894F5
:101850008FEF93E00E94C4178433D9F1EDE7F1E0F4
:101860008DEB91E011928E179F07E1F710E000E0F9
:10187000C8010E94E904005C1F4F011583E01807AE
:10188000B9F71A821982BE016F5F7F4F80EF93E034
:101890000E942E0511E01983BE016F5F7F4F81EF1B
:1018A00093E00E9455051983BE016F5F7F4F82EF61
:1018B00093E00E9455051A821982BE016F5F7F4F27
:1018C00083EF93E00E942E0564E38FEF93E00E9484
:1018D000CC17109280001092810088E09DE39093D5
:1018E00089008093880080918100886080938100C6
:1018F00080916F00826080936F0078946DEB71E04F
:1019000080EF93E00E94770560E171E081EF93E062
:101910000E946D0561E171E082EF93E00E946D0528
:1019200065E671E083EF93E00E947705EDE7F1E073
:101930008DEB91E011928E179F07E1F78FEF809367
:101940000F0185E180934F0186E180935001109251
:10195000460164E670E080E090E00E9470024FEF84
:1019600065E186E10E94770464EF71E080E090E039
:101970000E94700262E083E10E940F02E091D201B6
:10198000F091D30182E08083E091CE01F091CF010C
:101990001082E091D001F091D10180E1808310921A
:1019A000DA01E091D601F091D70186E08083E091E1
:1019B000D401F091D501808180618083E091D401D0
:1019C000F091D501808188608083E091D401F0910D
:1019D000D501808180688083E091D401F091D501A8
:1019E00080818F7D808380910701846080930701CF
:1019F0001092770138EA232E30E0332E49EA442E44
:101A000040E0542E54EA652E50E0752E05EA10E0B1
:101A100066EAE62E60E0F62E97EAC92E90E0D92E0F
:101A20002AEAA22E20E0B22E8BEA882E80E0982EA1
:101A30008091770181110DC080917601811109C0DB
:101A40000E94BD01892B29F40E94AC0481E080939F
:101A500077010E94BD01019711F41092770182EC89
:101A600091E00E9401030C970CF447C582EC91E0D1
:101A70000E94DF028735910509F03FC582EC91E0B5
:101A80000E94DF028B3A910509F037C582EC91E0A4
:101A90000E94DF028838910509F02FC582EC91E0A1
:101AA0000E94DF028E8382EC91E00E94DF028B8332
:101AB000EE81EB3009F0A7C08052823010F00C9418
:101AC000911764E070E082E191E00E941C0BF1E06C
:101AD000FC838B818051823028F0EB81E23060F012
:101AE0001D8208C068E070E08EE691E00E941C0B49
:101AF00081E08D831B8209C068E070E086E691E09A
:101B00000E941C0B1D82E1E0EB838E8188508230A5
:101B100008F088C482EC91E00E94DF02019709F08E
:101B200085C464E070E082E191E00E941C0BFB81BF
:101B3000F1116CC08091130190E08038910510F094
:101B40000C9482172091540130915501820F931FFC
:101B500090935501809354012091140130E0203876
:101B6000310508F03A954091520150915301240FEC
:101B7000351F30935301209352014091120150912F
:101B800015016091510170911101772311F40C94AA
:101B90009417651B562F509351015091BD01052E8E
:101BA00002C0969587950A94E2F78093500102C08F
:101BB000369527955A95E2F76FEF70E0621B730B2D
:101BC00060934F01A42FA170542F527020911001E7
:101BD000222311F40C948517242F20952170E22FD5
:101BE000F0E0511103C02260E22FF0E042FFE46018
:101BF000409151014295407F4E0F486040930F0144
:101C00000E94770419C41D821C8274CF81E08C83EA
:101C100080916501863008F09AC180916B0184FF44
:101C20000FC0E0E9F0E0849161E00E94CE03E1E9B9
:101C3000F0E0849161E00E94CE0381E08093640132
:101C400080916B0184FD12C080916401882371F042
:101C5000E0E9F0E0849160E00E94CE03E1E9F0E089
:101C6000849160E00E94CE031092640180916B0128
:101C700087FF0FC0ECE9F0E0849161E00E94CE03A1
:101C8000EDE9F0E0849161E00E94CE0381E0809371
:101C9000630180916B0187FD12C0809163018823ED
:101CA00071F0ECE9F0E0849160E00E94CE03EDE990
:101CB000F0E0849160E00E94CE0310926301809175
:101CC0006B0186FF0FC0E8E7F0E0849161E00E94BD
:101CD000CE03E9E7F0E0849161E00E94CE0381E069
:101CE0008093620180916B0186FD12C08091620138
:101CF000882371F0E8E7F0E0849160E00E94CE0371
:101D0000E9E7F0E0849160E00E94CE031092620166
:101D100080916B0185FF0FC0E2E9F0E0849161E002
:101D20000E94CE03E3E9F0E0849161E00E94CE03DB
:101D300081E08093610180916B0185FD12C08091EB
:101D40006101882371F0E2E9F0E0849160E00E9493
:101D5000CE03E3E9F0E0849160E00E94CE031092AC
:101D6000610180916C0180FF0FC0E6E9F0E0849191
:101D700061E00E94CE03E7E9F0E0849161E00E9417
:101D8000CE0381E08093600180916C0180FD12C0E0
:101D900080916001882371F0E6E9F0E0849160E0D1
:101DA0000E94CE03E7E9F0E0849160E00E94CE0358
:101DB0001092600180916C0182FF0FC0E0EAF0E0B8
:101DC000849161E00E94CE03E1EAF0E0849161E059
:101DD0000E94CE0381E080935F0180916C0182FDBF
:101DE00012C080915F01882371F0E0EAF0E08491F5
:101DF00060E00E94CE03E1EAF0E0849160E00E949E
:101E0000CE0310925F0180916C0181FF0FC0E8E961
:101E1000F0E0849161E00E94CE03E9E9F0E0849172
:101E200061E00E94CE0381E080935E0180916C01AD
:101E300081FD12C080915E01882371F0E8E9F0E035
:101E4000849160E00E94CE03E9E9F0E0849160E0D3
:101E50000E94CE0310925E0180916C0183FF0FC03F
:101E6000E0E8F0E0849161E00E94CE03E1E8F0E078
:101E7000849161E00E94CE0381E080935D018091B6
:101E80006C0183FD12C080915D01882371F0E0E850
:101E9000F0E0849160E00E94CE03E1E8F0E08491FC
:101EA00060E00E94CE0310925D0180916C0184FF7E
:101EB0000FC0ECE8F0E0849161E00E94CE03EDE811
:101EC000F0E0849161E00E94CE0381E080935C01A8
:101ED00080916C0184FD12C080915C01882371F0B7
:101EE000ECE8F0E0849160E00E94CE03EDE8F0E0E1
:101EF000849160E00E94CE0310925C0180916C019D
:101F000085FF0FC0EEE8F0E0849161E00E94CE030F
:101F1000EFE8F0E0849161E00E94CE0381E08093DD
:101F20005B0180916C0185FD12C080915B0188236B
:101F300071F0EEE8F0E0849160E00E94CE03EFE8FB
:101F4000F0E0849160E00E94CE0310925B018091EA
:101F50006501863009F009C480916A0187FF0FC0CE
:101F6000E0E9F0E0849161E00E94CE03E1E9F0E075
:101F7000849161E00E94CE0381E0809364018091AE
:101F80006A0187FD12C080916401882371F0E0E945
:101F9000F0E0849160E00E94CE03E1E9F0E08491FA
:101FA00060E00E94CE031092640180916A0184FF78
:101FB0000FC0ECE9F0E0849161E00E94CE03EDE90E
:101FC000F0E0849161E00E94CE0381E080936301A0
:101FD00080916A0184FD12C080916301882371F0B1
:101FE000ECE9F0E0849160E00E94CE03EDE9F0E0DE
:101FF000849160E00E94CE031092630180916A0197
:1020000085FF0FC0E8E7F0E0849161E00E94CE0315
:10201000E9E7F0E0849161E00E94CE0381E08093E3
:10202000620180916A0185FD12C08091620188235E
:1020300071F0E8E7F0E0849160E00E94CE03E9E708
:10204000F0E0849160E00E94CE03109262018091E2
:102050006A0186FF0FC0E2E9F0E0849161E00E942E
:10206000CE03E3E9F0E0849161E00E94CE0381E0D9
:102070008093610180916A0186FD12C080916101A7
:10208000882371F0E2E9F0E0849160E00E94CE03E1
:10209000E3E9F0E0849160E00E94CE0310926101D8
:1020A00080916B0182FF0FC0E6E9F0E0849161E06E
:1020B0000E94CE03E7E9F0E0849161E00E94CE0344
:1020C00081E08093600180916B0182FD12C080915C
:1020D0006001882371F0E6E9F0E0849160E00E94FD
:1020E000CE03E7E9F0E0849160E00E94CE03109215
:1020F000600180916B0183FF0FC0E0EAF0E0849102
:1021000061E00E94CE03E1EAF0E0849161E00E9488
:10211000CE0381E080935F0180916B0183FD12C04B
:1021200080915F01882371F0E0EAF0E0849160E043
:102130000E94CE03E1EAF0E0849160E00E94CE03C9
:1021400010925F0180916B0180FF0FC0E8E9F0E021
:10215000849161E00E94CE03E9E9F0E0849161E0BE
:102160000E94CE0381E080935E0180916B0180FD2F
:1021700012C080915E01882371F0E8E9F0E084915B
:1021800060E00E94CE03E9E9F0E0849160E00E9403
:10219000CE0310925E0180916B0181FF0FC0E0E8D9
:1021A000F0E0849161E00E94CE03E1E8F0E08491E8
:1021B00061E00E94CE0381E080935D0180916B011C
:1021C00081FD12C080915D01882371F0E0E8F0E0AC
:1021D000849160E00E94CE03E1E8F0E0849160E049
:1021E0000E94CE0310925D0180916B0184FF0FC0AD
:1021F000ECE8F0E0849161E00E94CE03EDE8F0E0CD
:10220000849161E00E94CE0381E080935C01809123
:102210006B0184FD12C080915C01882371F0ECE8B1
:10222000F0E0849160E00E94CE03EDE8F0E084915C
:1022300060E00E94CE0310925C0180916B0185FFEB
:102240000FC0EEE8F0E0849161E00E94CE03EFE879
:10225000F0E0849161E00E94CE0381E080935B0115
:1022600080916B0185FD12C080915B01882371F024
:10227000EEE8F0E0849160E00E94CE03EFE8F0E049
:10228000849160E00E94CE0310925B018091650111
:10229000863009F06AC2809169018F3668F4F501D1
:1022A000849161E00E94CE03F401849161E00E9478
:1022B000CE0381E080935A0180916901803780F0DC
:1022C00080915A01813061F4F501849160E00E94AF
:1022D000CE03F401849160E00E94CE0310925A0173
:1022E00080916901803968F0F701849161E00E9472
:1022F000CE03F601849161E00E94CE0381E08093D9
:102300005901809169018F3880F4809159018130A1
:1023100061F4F701849160E00E94CE03F60184919C
:1023200060E00E94CE0310925901809168018F36BF
:1023300068F4F301849161E00E94CE03F801849176
:1023400061E00E94CE0381E0809358018091680192
:10235000803780F080915801813061F4F3018491DD
:1023600060E00E94CE03F801849160E00E94CE03F9
:102370001092580180916801803968F0F1018491D0
:1023800061E00E94CE03F201849161E00E94CE03DD
:1023900081E080935701809168018F3880F48091AB
:1023A0005701813061F4F101849160E00E94CE0315
:1023B000F201849160E00E94CE0310925701809157
:1023C0006A018F708B83863009F0A4C0F10184917B
:1023D00060E00E94CE03F201849160E00E94CE038F
:1023E000F501849160E00E94CE03F401849160E0E5
:1023F0000E94CE03F701849160E00E94CE03F601B3
:10240000849160E00E94CE03F301849161E00E9418
:10241000CE03F801849161E00E94CE0381E08093B5
:10242000560170C1EE81E73009F47BCB8B818111BD
:10243000EFCBFC81F1117ECB8D81882309F45DC047
:10244000809149010E94A90980914A010E94A9092D
:1024500080914B010E94A90980914C010E94A90919
:1024600080914D010E94A90980914E010E94A90905
:1024700060916E018091470168130E94D20361E070
:10248000809170010E94810561E0809171010E943C
:10249000810561E0809172010E94810561E0809177
:1024A00073010E94810561E0809174010E948105A1
:1024B00061E0809175010E94810580916E01809399
:1024C000470180916F018093480180917001809352
:1024D00049018091710180934A018091720180933A
:1024E0004B018091730180934C0180917401809322
:1024F0004D018091750180934E0180E090E0892B21
:1025000009F496CA0E940D03882309F48DCA0E941B
:10251000000082CAFB81F43029F5F101849160E06A
:102520000E94CE03F201849160E00E94CE03F50187
:10253000849160E00E94CE03F401849160E00E94E7
:10254000CE03F301849160E00E94CE03F8018491F0
:1025500060E00E94CE03F701849161E00E94CE0307
:10256000F60158CFFB81F23029F5F301849160E048
:102570000E94CE03F801849160E00E94CE03F50131
:10258000849160E00E94CE03F401849160E00E9497
:10259000CE03F701849160E00E94CE03F60184919E
:1025A00060E00E94CE03F101849161E00E94CE03BD
:1025B000F20130CFFB81F11125C0F101849160E07F
:1025C0000E94CE03F201849160E00E94CE03F301E9
:1025D000849160E00E94CE03F801849160E00E9443
:1025E000CE03F701849160E00E94CE03F60184914E
:1025F00060E00E94CE03F501849161E00E94CE0369
:10260000F40108CFFB81F530E9F4F501849160E035
:102610000E94CE03F401849160E00E94CE03F10198
:10262000849160E00E94CE03F201849160E00E94F8
:10263000CE03F301849161E00E94CE03F8018491FE
:1026400061E087CFFB81F330D9F4F501849160E03C
:102650000E94CE03F401849160E00E94CE03F30156
:10266000849160E00E94CE03F801849160E00E94B2
:10267000CE03F101849161E00E94CE03F201DFCF2D
:10268000FB81F130E9F4F701849160E00E94CE0310
:10269000F601849160E00E94CE03F301849160E032
:1026A0000E94CE03F801849160E00E94CE03F10104
:1026B000849161E00E94CE03F201849161E099CFA0
:1026C000FB81F730D9F4F701849160E00E94CE03DA
:1026D000F601849160E00E94CE03F101849160E0F4
:1026E0000E94CE03F201849160E00E94CE03F301C8
:1026F000849161E00E94CE03F801DFCFFB81F830C6
:1027000009F08CCE80915601813009F02EC08B816A
:10271000883009F02AC010925601F301849160E0DC
:102720000E94CE03F801849160E00E94CE03F7017D
:10273000849160E00E94CE03F601849160E00E94E3
:10274000CE03F101849160E00E94CE03F2018491F6
:1027500060E00E94CE03F501849160E00E94CE0308
:10276000F401849160E00E94CE03F0916501FB8347
:10277000F13009F094C0809167018F3668F4F5015B
:10278000849161E00E94CE03F401849161E00E9493
:10279000CE03FB81F0935A0180916701803780F06E
:1027A00080915A01813061F4F501849160E00E94CA
:1027B000CE03F401849160E00E94CE0310925A018E
:1027C00080916701803968F0F701849161E00E948F
:1027D000CE03F601849161E00E94CE0381E08093F4
:1027E0005901809167018F3880F4809159018130BF
:1027F00061F4F701849160E00E94CE03F6018491B8
:1028000060E00E94CE0310925901809166018F36DC
:1028100068F4F301849161E00E94CE03F801849191
:1028200061E00E94CE0381E08093580180916601AF
:10283000803780F080915801813061F4F3018491F8
:1028400060E00E94CE03F801849160E00E94CE0314
:102850001092580180916601803968F0F1018491ED
:1028600061E00E94CE03F201849161E00E94CE03F8
:1028700081E080935701809166018F3880F48091C8
:102880005701813061F4F101849160E00E94CE0330
:10289000F201849160E00E94CE0310925701809172
:1028A0006501823009F096C0F0916801FB83F13038
:1028B00069F4F501849161E00E94CE03F4018491F2
:1028C00061E00E94CE03FB81F0935A018091680180
:1028D000803881F480915A01813061F4F50184914E
:1028E00060E00E94CE03F401849160E00E94CE0378
:1028F00010925A01809168018E3F69F4F70184912A
:1029000061E00E94CE03F601849161E00E94CE0353
:1029100081E08093590180916801803881F4809131
:102920005901813061F4F701849160E00E94CE0387
:10293000F601849160E00E94CE0310925901F0915B
:102940006701FB83F13069F4F301849161E00E9437
:10295000CE03F801849161E00E94CE03FB81F093E5
:10296000580180916701803881F48091580181304D
:1029700061F4F301849160E00E94CE03F801849138
:1029800060E00E94CE0310925801809167018E3F53
:1029900069F4F101849161E00E94CE03F201849117
:1029A00061E00E94CE0381E080935701809167012E
:1029B000803881F480915701813061F4F101849174
:1029C00060E00E94CE03F201849160E00E94CE0399
:1029D0001092570180916501833009F05EC18091AA
:1029E0006B018F708B83863009F02CC0F1018491CC
:1029F00060E00E94CE03F201849160E00E94CE0369
:102A0000F501849160E00E94CE03F401849160E0BE
:102A10000E94CE03F701849160E00E94CE03F6018C
:102A2000849160E00E94CE03F301849161E00E94F2
:102A3000CE03F801849161E00E94CE0381E080938F
:102A40005701F8C0FB81F43029F5F101849160E071
:102A50000E94CE03F201849160E00E94CE03F50152
:102A6000849160E00E94CE03F401849160E00E94B2
:102A7000CE03F301849160E00E94CE03F8018491BB
:102A800060E00E94CE03F701849161E00E94CE03D2
:102A9000F601D0CFFB81F23029F5F301849160E09B
:102AA0000E94CE03F801849160E00E94CE03F501FC
:102AB000849160E00E94CE03F401849160E00E9462
:102AC000CE03F701849160E00E94CE03F601849169
:102AD00060E00E94CE03F101849161E00E94CE0388
:102AE000F201A8CFFB81F11125C0F101849160E0D2
:102AF0000E94CE03F201849160E00E94CE03F301B4
:102B0000849160E00E94CE03F801849160E00E940D
:102B1000CE03F701849160E00E94CE03F601849118
:102B200060E00E94CE03F501849161E00E94CE0333
:102B3000F40180CFFB81F530E9F4F501849160E088
:102B40000E94CE03F401849160E00E94CE03F10163
:102B5000849160E00E94CE03F201849160E00E94C3
:102B6000CE03F301849161E00E94CE03F8018491C9
:102B700061E087CFFB81F330D9F4F501849160E007
:102B80000E94CE03F401849160E00E94CE03F30121
:102B9000849160E00E94CE03F801849160E00E947D
:102BA000CE03F101849161E00E94CE03F201DFCFF8
:102BB000FB81F130E9F4F701849160E00E94CE03DB
:102BC000F601849160E00E94CE03F301849160E0FD
:102BD0000E94CE03F801849160E00E94CE03F101CF
:102BE000849161E00E94CE03F201849161E099CF6B
:102BF000FB81F730D9F4F701849160E00E94CE03A5
:102C0000F601849160E00E94CE03F101849160E0BE
:102C10000E94CE03F201849160E00E94CE03F30192
:102C2000849161E00E94CE03F801DFCFFB81F83090
:102C300009F004CF80915701813009F02EC08B81BB
:102C4000883009F02AC010925701F301849160E0A6
:102C50000E94CE03F801849160E00E94CE03F70148
:102C6000849160E00E94CE03F601849160E00E94AE
:102C7000CE03F101849160E00E94CE03F2018491C1
:102C800060E00E94CE03F501849160E00E94CE03D3
:102C9000F401849160E00E94CE038091650184304C
:102CA00009F094C0809168018F3668F4F501849131
:102CB00061E00E94CE03F401849161E00E94CE03A2
:102CC00081E080935A0180916801803780F0809183
:102CD0005A01813061F4F501849160E00E94CE03D5
:102CE000F401849160E00E94CE0310925A01809119
:102CF0006801803968F0F701849161E00E94CE0399
:102D0000F601849161E00E94CE0381E08093590135
:102D1000809168018F3880F480915901813061F48D
:102D2000F701849160E00E94CE03F601849160E097
:102D30000E94CE0310925901809167018F3668F48A
:102D4000F301849161E00E94CE03F801849161E077
:102D50000E94CE0381E08093580180916701803703
:102D600080F080915801813061F4F301849160E03A
:102D70000E94CE03F801849160E00E94CE0310927D
:102D8000580180916701803968F0F101849161E018
:102D90000E94CE03F201849161E00E94CE0381E0A3
:102DA00080935701809167018F3880F4809157019B
:102DB000813061F4F101849160E00E94CE03F20160
:102DC000849160E00E94CE031092570180916501CA
:102DD000853009F02ECB809169018F3668F4F501BA
:102DE000849161E00E94CE03F401849161E00E942D
:102DF000CE0381E080935A0180916901803780F091
:102E000080915A01813061F4F501849160E00E9463
:102E1000CE03F401849160E00E94CE0310925A0127
:102E200080916901803968F0F701849161E00E9426
:102E3000CE03F601849161E00E94CE0381E080938D
:102E40005901809169018F3880F480915901813056
:102E500061F4F701849160E00E94CE03F601849151
:102E600060E00E94CE031092590180916A018F3672
:102E700068F4F301849161E00E94CE03F80184912B
:102E800061E00E94CE0381E08093580180916A0145
:102E9000803780F080915801813061F4F301849192
:102EA00060E00E94CE03F801849160E00E94CE03AE
:102EB0001092580180916A01803968F0F101849183
:102EC00061E00E94CE03F201849161E00E94CE0392
:102ED00081E08093570180916A018F3808F0A9CA78
:102EE00080915701813009F0A4CAF101849160E01A
:102EF0000E94CE03F201849160E00E94CE03109202
:102F0000570197CA9A950C94A20D31E020E0511117
:102F100030E0E32FF22FA1110C94F60DE2600C9437
:102F2000F60D1C820C94690D560F0C94CB0DE2EC3F
:102F3000F1E01382128288EE93E0A0E0B0E0848397
:102F40009583A683B7838AE191E09183808385ECA2
:102F500090E09587848784EC90E09787868780EC63
:102F600090E0918B808B81EC90E0938B828B82EC54
:102F700090E0958B848B86EC90E0978B868B118EFE
:102F8000128E138E148E0895F999FECF92BD81BDD5
:102F9000F89A992780B50895262FF999FECF1FBA80
:102FA00092BD81BD20BD0FB6F894FA9AF99A0FBE72
:102FB00001960895EE0FFF1F0590F491E02D0994FE
:042FC000F894FFCFB3
:102FC40057AB12000000000020FF2100000000FFAA
:102FD4000101FF0000FF000000004303A302D00230
:082FE40090030103DF02F30278
:00000001FF
