:100000000C946A010C9492010C9492010C9492014C
:100010000C9492010C9492010C9492010C94920114
:100020000C9492010C9492010C9492010C94030A8A
:100030000C9492010C9492010C9492010C949201F4
:100040000C9461090C9492010C94D1090C94AB09A5
:100050000C9492010C9492010C9492010C949201D4
:100060000C9492010C94920100000000000000002A
:100070001200580041003200330042005200570085
:1000800036004700370027003800480026001600D9
:1000900013004300220053004600510023003100AA
:1000A0005600210014002400340044005400550080
:1000B0004500350025001500170018111115111401
:1000C00018002847283728162827000028582826EF
:1000D0002821112828482838284111240000000030
:1000E00000000000000000000000000000001C00F4
:1000F0001B001A0011250000000000000000000095
:1001000000002835282511351154115511450000DE
:100110002851285828472837170014002400340095
:1001200044005400550045003500250015002838CE
:1001300000000000000000000000000000000000BF
:1001400000000000000000000000000000000000AF
:10015000000000000000000000000000000000009F
:10016000000000000000000000000000000000008F
:10017000000000000000000000000000000000007F
:10018000000000000000000000000000000000006F
:10019000000000000000000000000000000000005F
:1001A000000000000000000000000000000000004F
:1001B000000000000000000000000000000000003F
:1001C000000000000000000000000000000000002F
:1001D000000000000000000000000000000000001F
:1001E000000000000000000000000000000000000F
:1001F00000000000000000000000000000000000FF
:1002000000000000000000000000000000000000EE
:1002100000000000000000000000000000000000DE
:100220000000000000000000280011000000000095
:100230000000280000000000000000000000000096
:1002400000000000000000000000000000000000AE
:10025000000000000000000000000000000000009E
:100260000000000000000000AAFFAAFFAAFFAAFFEA
:100270000000000000000000000000002300260035
:10028000290000000000240027002A0000000000D0
:10029000250028002B0004040404040404040202C2
:1002A00002020202030303030303010204081020F5
:1002B0004080010204081020010204081020000000
:1002C0000008000201000003040700000000000015
:1002D00000004A1011241FBECFEFD8E0DEBFCDBF13
:1002E00022E0A8E2B1E001C01D92AC35B207E1F70F
:1002F00011E0A0E0B1E0EAE2F1E202C005900D9267
:10030000A832B107D9F711E0CAE6D1E004C02197BD
:10031000FE010E948D10C936D107C9F70E948E0ACE
:100320000C9493100C940000833081F028F48130F9
:1003300099F08230A9F008958730A9F08830C9F08B
:100340008430B1F4809180008F7D03C08091800063
:100350008F7780938000089584B58F7784BD08954A
:1003600084B58F7DFBCF8091B0008F778093B000F4
:1003700008958091B0008F7DF9CF1F93CF93DF93C5
:10038000282F30E0F901E254FD4F8491F901E65540
:10039000FD4FD491F901EA56FD4FC491CC23A9F049
:1003A000162F81110E949401EC2FF0E0EE0FFF1F39
:1003B000E457FD4FA591B4918FB7F894EC911111CA
:1003C00008C0D095DE23DC938FBFDF91CF911F91C2
:1003D0000895DE2BF8CFCF93DF9390E0FC01E65534
:1003E000FD4F24918A569D4FFC0184918823C9F0CA
:1003F00090E0880F991FFC01EE57FD4FA591B49135
:10040000FC01E457FD4FC591D49161110DC09FB718
:10041000F8948C91209582238C93888128232883BB
:100420009FBFDF91CF910895623051F49FB7F89448
:100430003C91822F809583238C93E8812E2BEFCFE4
:100440008FB7F894EC912E2B2C938FBFEACF3FB748
:10045000F8948091760190917701A0917801B09104
:10046000790126B5A89B05C02F3F19F00196A11D63
:10047000B11D3FBFBA2FA92F982F8827BC01CD01EE
:10048000620F711D811D911D42E0660F771F881F4D
:10049000991F4A95D1F708958F929F92AF92BF927C
:1004A000CF92DF92EF92FF926B017C010E942702B4
:1004B0004B015C01C114D104E104F104B9F00E94C4
:1004C0002702681979098A099B09683E73408105EA
:1004D000910580F321E0C21AD108E108F10888EE05
:1004E000880E83E0981EA11CB11CE4CFFF90EF9012
:1004F000DF90CF90BF90AF909F908F900895AF9274
:10050000BF92CF92DF92EF92FF920F931F93CF9300
:10051000DF936C017B018B01040F151FEB015E0162
:10052000AE18BF08C017D10759F06991D601ED91F7
:10053000FC910190F081E02DC6010995892B79F796
:10054000C501DF91CF911F910F91FF90EF90DF9048
:10055000CF90BF90AF900895FC01538D448D252F0F
:1005600030E0842F90E0821B930B541710F0CF964D
:10057000089501970895FC01918D828D981761F07F
:10058000A28DAE0FBF2FB11D5D968C91928D9F5F96
:100590009F73928F90E008958FEF9FEF0895FC0175
:1005A000918D828D981731F0828DE80FF11D858D28
:1005B00090E008958FEF9FEF0895FC01918D228DBB
:1005C000892F90E0805C9F4F821B91098F73992740
:1005D00008958FEB91E00E94DD0221E0892B09F460
:1005E00020E0822F089580E090E0892B29F00E947E
:1005F000E90281110C9400000895FC01A48DA80F5C
:10060000B92FB11DA35ABF4F2C91848D90E0019654
:100610008F739927848FA689B7892C93A089B18974
:100620008C91837080648C93938D848D981306C015
:100630000288F389E02D80818F7D80830895EF9279
:10064000FF920F931F93CF93DF93EC0181E0888F8C
:100650009B8D8C8D98131AC0E889F989808185FF5C
:1006600015C09FB7F894EE89FF896083E889F989FE
:1006700080818370806480839FBF81E090E0DF9100
:10068000CF911F910F91FF90EF900895F62E0B8D53
:1006900010E00F5F1F4F0F731127E02E8C8D8E110E
:1006A0000CC00FB607FCFACFE889F989808185FF75
:1006B000F5CFCE010E94FD02F1CFEB8DEC0FFD2FA7
:1006C000F11DE35AFF4FF0829FB7F8940B8FEA8930
:1006D000FB8980818062CFCFCF93DF93EC01888D3F
:1006E0008823B9F0AA89BB89E889F9898C9185FDAD
:1006F00003C0808186FD0DC00FB607FCF7CF8C913B
:1007000085FFF2CF808185FFEDCFCE010E94FD02F3
:10071000E9CFDF91CF9108958EBD00000DB407FEA3
:10072000FDCF8EB50895662369F0806880934501FA
:10073000809145019BB19F739BB940980E948C03A7
:10074000409A08958F77F2CF81110C949303089506
:100750001F93CF93DF93C62FD82FD627D0FF0EC07D
:10076000E8E2F2E08491162F1170612F0E94A40339
:10077000E9E2F2E08491612F0E94A403D1FF0FC04F
:10078000C1FB112710F9EAE2F2E08491612F0E9487
:10079000A403EBE2F2E08491612F0E94A403D2FF54
:1007A0000FC0C2FB112710F9ECE2F2E08491612F37
:1007B0000E94A403EDE2F2E08491612F0E94A40361
:1007C000D3FF0FC0C3FB112710F9EEE2F2E08491D2
:1007D000612F0E94A403EFE2F2E08491612F0E9456
:1007E000A403D4FF0FC0C4FB112710F9E0E3F2E02B
:1007F0008491612F0E94A403E1E3F2E08491612FD0
:100800000E94A403D5FF0FC0C5FB112710F9E2E336
:10081000F2E08491612F0E94A403E3E3F2E084916B
:10082000612F0E94A403D6FF0FC0C6FB112710F949
:10083000E4E3F2E08491612F0E94A403E5E3F2E097
:100840008491612F0E94A403D7FF10C0E6E3F2E079
:100850008491DC2FDD1FDD27DD1F6D2F0E94A40397
:10086000E7E3F2E084916D2F0E94A403809143019D
:10087000882379F080914201811102C0CC2349F094
:10088000E82FF0E0E658FE4FC068C0838F5F80938A
:100890004201DF91CF911F910895CF93DF93D62F1F
:1008A000C42F40989BB19F739BB95E9A0E948C03A2
:1008B000409A40988BB18F738BB95F9A8D2F0E94AD
:1008C0008C03409A40988BB18F738BB98BB1806C3D
:1008D0008BB98C2F0E948C03409ADF91CF910895A1
:1008E0008FEF80930F014FEF60914E0180914F0188
:1008F0000C944D04FF920F931F93CF93DF93EC0161
:10090000F62E08811981C8010E947710F81621F08F
:100910006F2DC8010E947F10CE01DF91CF911F91F2
:100920000F91FF900895CF93DF9300D0CDB7DEB73E
:1009300080EF93E09A8389836091BA01CE0101969A
:100940000E947A048AEB91E00F900F90DF91CF9193
:100950000895EF92FF920F931F93CF93DF9300D0F0
:10096000CDB7DEB70AE711E08A5791407C01C70195
:10097000800F911F9A838983F80161918F01CE01C5
:1009800001960E947A04F1E00A3B1F0781F78AE78B
:1009900091E00F900F90DF91CF911F910F91FF90F9
:1009A000EF9008958F3F910511F00E94A9041092D5
:1009B0004301809181008B6F8093810080910701BA
:1009C0008460809307014BE050E060E071E08FEBC2
:1009D00091E00E947F021092420108950F931F93AD
:1009E000CF93DF9300D0CDB7DEB78B019A83898395
:1009F000FB016081CE0101960E947A04C8010F902C
:100A00000F90DF91CF911F910F910895CF93DF93B6
:100A1000EB010E9477108883CE01DF91CF9108957A
:100A2000CF93DF93EB010E9477108883CE01DF9193
:100A3000CF910895EF92FF920F931F93CF93DF937F
:100A4000882309F4DAC0162FC82F662309F48AC355
:100A5000893379F58091070181FD29C082608093F7
:100A600007014BE050E060E071E08FEB91E00E9405
:100A70007F028C2F90E0FC01EE0FFF1FE859FF4F23
:100A800024912A3109F03FC061E083E10E94EB012B
:100A900060E083E10E94BD0181E080937401DF91F9
:100AA000CF911F910F91FF90EF900C9470048D7F68
:100AB000D6CF8C34F1F661E081E10E94930369E1C5
:100AC00070E080E090E00E944C0261E085E30E94CB
:100AD000930369E170E080E090E00E944C0260E0E6
:100AE00085E30E94930369E170E080E090E00E945A
:100AF0004C0261E085E1DF91CF911F910F91FF9052
:100B0000EF900C94930324912B3171F461E082E116
:100B10000E94EB0160E082E1DF91CF911F910F9184
:100B2000FF90EF900C94BD0124912B3231F461E0E1
:100B300082E10E94EB0161E0EECF24912C3139F487
:100B400061E081E10E94EB0160E081E1E5CFE491A9
:100B5000EC3231F461E081E10E94EB0161E0F5CF1C
:100B600020916C0127FF03C0286020936C01209125
:100B70006C01322F387023FF97C0CE3151F41092A0
:100B8000BA01DF91CF911F910F91FF90EF900C94DC
:100B90009304CF3121F481E08093BA01F2CFC032C7
:100BA00011F482E0F9CFC13211F483E0F5CFC732FE
:100BB00091F48091100191E089278093100160E108
:100BC00071E081EF93E0DF91CF911F910F91FF9042
:100BD000EF900C94EE04C63259F48091110191E02B
:100BE00089278093110161E171E082EF93E0EBCFFF
:100BF000C43151F481E080935901DF91CF911F916D
:100C00000F91FF90EF900895CA3111F482E0F3CF75
:100C1000C83011F483E0EFCFC53111F484E0EBCF9D
:100C2000CA3209F041C0109280001092810088E021
:100C30009DE3909389008093880080918100886073
:100C400080938100809181008460809381008091F5
:100C50006F00826080936F00EAE7F1E08AEB91E039
:100C600011928E179F07E1F710923B0110923C0101
:100C700010923D0110923E0110923F0110924001EE
:100C80001092330110923401109235011092360106
:100C9000109237011092380181E080934301109245
:100CA000420110923001A9CFC93271F42091430161
:100CB000222351F08FEF90E0DF91CF911F910F91A0
:100CC000FF90EF900C94D20426EC2C0F2C3008F0FF
:100CD00040C120914301211190CFF6E0880F991F68
:100CE000FA95E1F71092420110923B0110923C01FB
:100CF00010923D0110923E0110923F01109240016E
:100D0000AAEBEA2EA1E0FA2E0AE711E0EC01CA5F95
:100D1000DF40CE01800F911F0E947710F801819370
:100D20008F01EE16FF06A9F7C0917A01CC2309F4D2
:100D300064CFE0914201F0E0E658FE4FC081C7FF6A
:100D400017C0DC2FDF7780913001D81719F06D2F95
:100D50000E94A803D0933001809142018F5F80935D
:100D6000420162E370E080E090E00E944C02DECF3E
:100D700080913B01C8133EC060E08C2F0E941A0591
:100D800010923B0181E090913C01C91307C060E0E3
:100D90008C2F0E941A0510923C0181E090913D0138
:100DA000C91307C060E08C2F0E941A0510923D0104
:100DB00081E090913E01C91307C060E08C2F0E9432
:100DC0001A0510923E0181E090913F01C91307C0BE
:100DD00060E08C2F0E941A0510923F0181E0D091B3
:100DE0004001CD1309C060E08C2F0E941A051092BB
:100DF0004001B2CF80E0C7CF8111AECF8C2F90E001
:100E0000880F991FAC0148595F4FFA0124912223A2
:100E100091F02091410130E0220F331F28593F4FBC
:100E2000F9016491662339F0FA016491F901249182
:100E3000621709F442C0FA012491222391F0209113
:100E4000410130E0220F331F27593F4FF9016491D0
:100E5000662339F0FA014491F9012491421709F40B
:100E60002CC087599F4FFC012491222389F02091A7
:100E7000410130E0220F331F28593F4FF9014491BF
:100E8000442331F0FC014491F90124914217A9F067
:100E9000FC0124912223B9F02091410130E0220F7E
:100EA000331F27593F4FF9014491442361F0FC015E
:100EB0008491F9012491821306C062E370E080E01E
:100EC00090E00E944C0280913B01811121C0C093AF
:100ED0003B0161E080913B010E941A0561E0809135
:100EE0003C010E941A0561E080913D010E941A05B3
:100EF00061E080913E010E941A0561E080913F010E
:100F00000E941A0561E0809140010E941A0524CFD9
:100F100080913C01811103C0C0933C01DACF8091E4
:100F20003D01811103C0C0933D01D3CF80913E01AB
:100F3000811103C0C0933E01CCCF80913F0181114C
:100F400003C0C0933F01C5CFD111C3CFC0934001AF
:100F5000C0CF311152CE80914301882309F445C09E
:100F6000C23008F442C050913301C51304C08091CF
:100F70002A011817D1F130913401C31304C08091B4
:100F80002B01181791F190913501C91304C080917C
:100F90002C01181751F180913601C81304C020911B
:100FA0002D01121711F120913701C21304C0409195
:100FB0002E011417D1F040913801C41304C0609180
:100FC0002F01161791F0C51338C01111E7C0809199
:100FD0004201E82FF0E0E658FE4FC0838F5F809318
:100FE000420110922A0110923301C0934101D0E0D6
:100FF000CC0FDD1FFE01E859FF4F8491612F0E9445
:10100000A403FE01E759FF4F8491612FDF91CF9137
:101010001F910F91FF90EF900C94A4039111EDCDCF
:10102000CC3409F098CF60E085E30E94930360E040
:1010300085E30E94930360E05DCDC31311C01111DD
:10104000AFC080914201E82FF0E0E658FE4FC08328
:101050008F5F8093420110922B0110923401C5CF13
:10106000C91311C011119EC080914201E82FF0E018
:10107000E658FE4FC0838F5F8093420110922C018F
:1010800010923501B2CFC81311C011118DC08091DB
:101090004201E82FF0E0E658FE4FC0838F5F809357
:1010A000420110922D01109236019FCFC21311C040
:1010B00011117CC080914201E82FF0E0E658FE4F0C
:1010C000C0838F5F8093420110922E0110923701EE
:1010D0008CCFC41311C011116BC080914201E82F55
:1010E000F0E0E658FE4FC0838F5F8093420110927C
:1010F0002F011092380179CF51115DC0112309F4ED
:1011000064C0C093330181E080932A018091420141
:10111000E82FF0E0E658FE4FC0838F5F80934201D6
:1011200064CF911109C0112309F453C0C093350154
:1011300081E080932C01EACF811109C0112309F4C9
:101140004AC0C093360181E080932D01DFCF211189
:1011500045C0112309F449CFC093370181E0809342
:101160002E01D4CF80916C01982F987083FF03C01B
:10117000CA3209F442CD86EC8C0F8C3008F04ECF89
:1011800080914301882309F438CDCA53DD0BCE0189
:1011900026E0880F991F2A95E1F78ECDC31302C070
:1011A000C91371CFC81382CFC21393CFC413A4CF76
:1011B000552309F4A6CF3111B4CF112341F0C093C8
:1011C000340181E080932B01A1CF311112C0911124
:1011D000B3CF8111BCCF222309F407CF411105CF32
:1011E000112309F402CFC093380181E080932F01CD
:1011F0008DCF9111F0CFEDCF0F931F93CF93882315
:1012000009F45BC0C82F082F10E0000F111F085908
:101210001F4FF80184918A3169F560E083E10E94F3
:10122000EB011092740181E0F80194919B3129F453
:1012300060E082E10E94EB0181E0F80194919B3231
:1012400029F460E082E10E94EB0181E0F8019491D1
:101250009C3129F460E081E10E94EB0181E0F8011A
:1012600004910C3249F460E081E1CF911F910F911C
:101270000C94EB0180E0D8CF81111FC080916E01EA
:10128000C817D9F080916F01C817B9F0809170012B
:10129000C81799F080917101C81779F08091720197
:1012A000C81759F080917301C81739F060E08C2F8E
:1012B000CF911F910F910C941A05CF911F910F910F
:1012C00008951F920F920FB60F9211242F933F9300
:1012D0008F939F93AF93BF938091BB019091BC017B
:1012E000A091BD01B091BE013091750123E0230FA3
:1012F0002D3758F50196A11DB11D209375018093DE
:10130000BB019093BC01A093BD01B093BE0180913D
:10131000760190917701A0917801B09179010196C1
:10132000A11DB11D8093760190937701A093780160
:10133000B0937901BF91AF919F918F913F912F9180
:101340000F900FBE0F901F90189526E8230F02965E
:10135000A11DB11DD2CF1F920F920FB60F92112473
:101360002F933F934F935F936F937F938F939F93AD
:10137000AF93BF93EF93FF938FEB91E00E94FD0239
:10138000FF91EF91BF91AF919F918F917F916F915D
:101390005F914F913F912F910F900FBE0F901F9033
:1013A00018951F920F920FB60F9211242F938F93BF
:1013B0009F93EF93FF93E091CF01F091D001808153
:1013C000E091D501F091D60182FD1BC09081809102
:1013D000D8018F5F8F732091D901821741F0E0917E
:1013E000D801F0E0E154FE4F958F8093D801FF9132
:1013F000EF919F918F912F910F900FBE0F901F90A3
:1014000018958081F4CF1F920F920FB60F9211247E
:101410002F933F934F935F936F937F938F939F93FC
:10142000AF93BF93EF93FF938091070182FD1CC0A0
:101430008460809307014BE050E060E071E08FEB47
:1014400091E00E947F02FF91EF91BF91AF919F9138
:101450008F917F916F915F914F913F912F910F905D
:101460000FBE0F901F9018958B7FE3CFEF92FF92E6
:101470000F931F93CF93DF937B018C01D0E0C0E0EB
:101480002FB7F8948091BB019091BC01A091BD0150
:10149000B091BE012FBF8093C7019093C801A09364
:1014A000C901B093CA018FEB91E00E94BB0297FF84
:1014B0002CC02FB7F8948091BB019091BC01A091F2
:1014C000BD01B091BE012FBF4091C7015091C8012D
:1014D0006091C9017091CA01841B950BA60BB70BD3
:1014E0004091C3015091C4016091C5017091C60142
:1014F00084179507A607B707B0F2CE01DF91CF9109
:101500001F910F91FF90EF900895F80181938F0143
:101510002196EC16FD0609F0B3CFEFCFCF93DF9302
:1015200000D0CDB7DEB7789484B5826084BD84B531
:10153000816084BD85B5826085BD85B5816085BDCE
:1015400080916E00816080936E0010928100809186
:10155000810082608093810080918100816080930E
:101560008100809180008160809380008091B10033
:1015700084608093B1008091B00081608093B0005E
:1015800080917A00846080937A0080917A008260F2
:1015900080937A0080917A00816080937A008091B4
:1015A0007A00806880937A001092C10061E083E144
:1015B0000E94EB0160E083E10E94BD0180E58CBDEB
:1015C00081E08DBD1FB7F89480914401811127C03F
:1015D000E0EAF2E08491E4EBF2E09491E82FF0E0AD
:1015E000EE0FFF1FEE57FD4FA591B491EC91E9234B
:1015F00021F461E08AE00E94BD0161E08AE00E947E
:10160000EB018CB580618CBD8CB580648CBD61E0D4
:101610008DE00E94EB0161E08BE00E94EB01809184
:1016200044018F5F809344011FBF60E082E10E940C
:10163000EB0160E081E10E94EB0160E080E10E944B
:10164000EB0160E08FE00E94EB0161E086E00E9428
:10165000EB0161E087E00E94EB0161E08EE00E9417
:10166000EB0160E086E00E94BD0160E087E00E943F
:10167000BD0160E08EE00E94BD0110926100F8940F
:101680008FEF93E00E9477108433D9F1EAE7F1E01D
:101690008AEB91E011928E179F07E1F710E000E0CE
:1016A000C8010E94A904005C1F4F011583E01807C0
:1016B000B9F780EF93E09A83898360E0CE010196C9
:1016C0000E947A0481EF93E09A83898360E0CE01DF
:1016D00001960E947A0411E01983BE016F5F7F4F6B
:1016E00081EF93E00E94EE041983BE016F5F7F4F8C
:1016F00082EF93E00E94EE0464E38FEF93E00E9498
:101700007F108FEF80930F0185E180934E0186E17A
:1017100080934F0110924501109280001092810039
:1017200088E09DE3909389008093880080918100F8
:1017300088608093810080916F00826080936F0049
:1017400078946AEB71E080EF93E00E94100560E10D
:1017500071E081EF93E00E94060561E171E082EFA4
:1017600093E00E94060569E571E083EF93E00E9433
:101770001005EAE7F1E08AEB91E011928E179F07DE
:10178000E1F79EE190937A012FE120937B0180E2C3
:1017900080937C0120937D0190937E0180937F0153
:1017A00064E670E080E090E00E944C0240910F01FE
:1017B00060914E0180914F010E944D0464EF71E0F1
:1017C00080E090E00E944C0262E083E10E94EB0125
:1017D000E091CF01F091D00182E08083E091CB01D4
:1017E000F091CC011082E091CD01F091CE0180E129
:1017F00080831092D701E091D301F091D40186E06B
:101800008083E091D101F091D20180818061808359
:10181000E091D101F091D201808188608083E091D4
:10182000D101F091D201808180688083E091D10163
:10183000F091D20180818F7D808380910701846047
:101840008093070121ED622E22E0722E3DEBC32E24
:1018500032E0D32E49EAA42E42E0B42E88248A94A2
:10186000912C442443945524539490E0E92E90E025
:10187000F92E8091740181110AC0F3018491F6015F
:101880001491F501049101119AC00E9470048FEB2C
:1018900091E00E94DD020C970CF4DFC38FEB91E026
:1018A0000E94BB028735910509F0D7C38FEB91E009
:1018B0000E94BB028B3A910509F0CFC38FEB91E0F8
:1018C0000E94BB028838910509F0C7C38FEB91E0F5
:1018D0000E94BB028C018FEB91E00E94BB0211279A
:1018E0000830110509F468C20B30110509F0B5C3C1
:1018F000805168E070E0823008F071C08CE691E0C1
:101900000E94360A809148010E94FC08809149019A
:101910000E94FC0880914A010E94FC0880914B01C2
:101920000E94FC0880914C010E94FC0880914D01AE
:101930000E94FC0860916C01809146016813A5C368
:1019400061E080916E010E941A0561E080916F0153
:101950000E941A0561E0809170010E941A0561E001
:10196000809171010E941A0561E0809172010E94CC
:101970001A0561E0809173010E941A0580916C0143
:101980008093460180916D018093470180916E01A3
:101990008093480180916F0180934901809170018B
:1019A00080934A018091710180934B018091720173
:1019B00080934C018091730180934D014EC381113E
:1019C0000E949401E02FF0E0EE0FFF1FE858FD4F5A
:1019D000A591B4918C91182309F457CF58CF84E680
:1019E00091E00E94360A8091690184FF06C061E09F
:1019F00084E10E9493035092630180916901829572
:101A00008170841551F080916301882331F060E08A
:101A100084E10E949303109263018091690187FF22
:101A200006C061E084E20E949303509262018091BB
:101A3000690187FD0AC080916201882331F060E06E
:101A400084E20E949303109262018091690186FFF3
:101A500006C061E084E30E9493035092610180918B
:101A6000690186FB882780F9841551F08091610116
:101A7000882331F060E084E30E94930310926101B7
:101A80008091690185FF06C061E084E40E949303B0
:101A9000509260018091690185FB882780F9841547
:101AA00051F080916001882331F060E084E40E946D
:101AB00093031092600180916A0180FF06C061E08B
:101AC00083E10E94930350925F0180916A0180FD3F
:101AD0000AC080915F01882331F060E083E10E94B9
:101AE000930310925F0180916A0182FF06C061E05A
:101AF00083E20E94930350925E0180916A0182FB0F
:101B0000882780F9841551F080915E01882331F097
:101B100060E083E20E94930310925E0180916A016B
:101B200081FF06C061E083E30E94930350925D0150
:101B300080916A0186958170841551F080915D01D4
:101B4000882331F060E083E30E94930310925D01EB
:101B500080916A0183FF06C061E083E40E949303E1
:101B600050925C0180916A0183FB882780F984157B
:101B700051F080915C01882331F060E083E40E94A1
:101B8000930310925C0180916A0184FF06C061E0BA
:101B900082E10E94930350925B0180916A018295D9
:101BA0008170841551F080915B01882331F060E0F1
:101BB00082E10E94930310925B0180916A0185FF8C
:101BC00006C061E082E20E94930350925A01809124
:101BD0006A0185FB882780F9841551F080915A01AC
:101BE000882331F060E082E20E94930310925A0150
:101BF00010915901113009F060C080916501811187
:101C000006C061E081E20E94930310935801809125
:101C100065018F3751F480915801813031F460E0D3
:101C200081E20E94930310925801809165018F3FD9
:101C300031F461E082E20E94930350925701809157
:101C400065018F3751F480915701813031F460E0A4
:101C500082E20E94930310925701809164018111E6
:101C600006C061E082E10E94930350925601809188
:101C700064018F3751F480915601813031F460E076
:101C800082E10E94930310925601809164018F3F7C
:101C900031F461E085E20E949303509255018091F6
:101CA00064018F3751F480915501813031F460E047
:101CB00085E20E9493031092550180915901823070
:101CC00009F060C010916601113031F461E081E2E9
:101CD0000E9493031093580180916601803851F45B
:101CE00080915801813031F460E081E20E949303D9
:101CF00010925801809166018E3F31F461E082E2DA
:101D00000E9493035092570180916601803851F4EC
:101D100080915701813031F460E082E20E949303A8
:101D20001092570110916501113031F461E082E1A8
:101D30000E9493031093560180916501803851F4FD
:101D400080915601813031F460E082E10E9493037A
:101D500010925601809165018E3F31F461E085E279
:101D60000E9493035092550180916501803851F48F
:101D700080915501813031F460E085E20E94930347
:101D80001092550180915901833009F001C11091E1
:101D900069011F70163009F081C061E082E10E9484
:101DA000930360E085E20E94930360E081E20E9479
:101DB000930360E082E282C08FEB91E00E94BB025D
:101DC000019709F04AC164E070E082E191E00E946D
:101DD000360A8091130190E08038910508F049C1DE
:101DE0002091530130915401820F931F909354011D
:101DF000809353012091140130E02038310508F020
:101E00003A954091510150915201240F351F309362
:101E1000520120935101E09112014091150150911E
:101E2000500160911101662309F432C1541B452F02
:101E3000409350014091BA01042E02C096958795B7
:101E40000A94E2F780934F0102C0369527954A9590
:101E5000E2F7B401621B730B60934E01AE2FA170C9
:101E6000FE2FF27020911001222309F404C12E2FBD
:101E700020952170422F50E0F11103C02260422FC3
:101E800050E0E2FF4460909150019295907F490F9D
:101E9000486040930F010E944D04DFC0143099F454
:101EA00061E082E20E94930360E085E20E94930376
:101EB00060E081E20E94930360E082E10E9493036C
:101EC000509255014DC0123039F461E085E20E9414
:101ED000930360E082E167CF11110BC061E081E202
:101EE0000E94930360E085E20E94930360E082E138
:101EF0005ECF153079F461E082E10E94930361E0E6
:101F000082E20E94930360E085E20E94930360E016
:101F100081E2D4CF133059F461E085E20E9493034B
:101F200061E082E20E94930360E082E1EECF113033
:101F300039F461E085E20E94930361E081E2D4CF4D
:101F4000173059F461E082E10E94930361E081E27D
:101F50000E94930360E085E22ACF183009F0B0CFE9
:101F6000809155018130A1F4183091F410925501FF
:101F700060E082E10E94930360E081E20E949303AB
:101F800060E085E20E94930360E082E20E94930396
:101F900080915901843009F060C0809166018036DB
:101FA00030F461E081E20E949303509258018091E5
:101FB0006601813650F080915801813031F460E043
:101FC00081E20E9493031092580180916601863944
:101FD00030F061E082E20E949303509257018091B9
:101FE0006601853950F480915701813031F460E009
:101FF00082E20E949303109257018091650180361E
:1020000030F461E082E10E94930350925601809186
:102010006501813650F080915601813031F460E0E5
:1020200082E10E94930310925601809165018639E6
:1020300030F061E085E20E94930350925501809157
:102040006501853950F480915501813031F460E0AB
:1020500085E20E94930310925501E114F10409F402
:1020600008CC0E94E902882309F403CC0E940000F6
:10207000FCCB9A95B5CE31E020E0F11130E0432F52
:10208000522FA111FECE4260FCCE0E94A80358CC74
:10209000450FCECEEFEBF1E01382128288EE93E093
:1020A000A0E0B0E084839583A683B7838AE191E0C2
:1020B0009183808385EC90E09587848784EC90E021
:1020C0009787868780EC90E0918B808B81EC90E005
:1020D000938B828B82EC90E0958B848B86EC90E0E6
:1020E000978B868B118E128E138E148E0895F9990C
:1020F000FECF92BD81BDF89A992780B50895262F0D
:10210000F999FECF1FBA92BD81BD20BD0FB6F894DC
:10211000FA9AF99A0FBE01960895EE0FFF1F0590E7
:0A212000F491E02D0994F894FFCF2C
:10212A0057AB12000000000020FF2100000000FF52
:10213A000101FF0000FF000000001F037F02AC0244
:08214A006C03DD02BB02CF02B1
:00000001FF
