:100000000C946A010C9492010C9492010C9492014C
:100010000C9492010C9492010C9492010C94920114
:100020000C9492010C9492010C9492010C94E509A9
:100030000C9492010C9492010C9492010C949201F4
:100040000C9443090C9492010C94B3090C948D09FF
:100050000C9492010C9492010C9492010C949201D4
:100060000C9492010C9492010000000023002600E1
:1000700029000000000000000000120058004100AC
:10008000320033004200520057003600470037006C
:100090002700380048002600160013004300220005
:1000A0005300460051002300310056002100140087
:1000B000240034004400540055004500350025005C
:1000C00015001700181111151114180028472837AA
:1000D00028162827000028582826282111282848D3
:1000E0002838284111240000000000000000000012
:1000F000000000001E001D001C001B001A0011253E
:100100000000000000000000000000002835282545
:100110001135115411551145000028512858284710
:100120002837170014002400340044005400550000
:1001300045003500250015002838000000000000AB
:1001400000000000000000000000000000000000AF
:10015000000000000000000000000000000000009F
:10016000000000000000000000000000000000008F
:10017000000000000000000000000000000000007F
:10018000000000000000000000000000000000006F
:10019000000000000000000000000000000000005F
:1001A000000000000000000000000000000000004F
:1001B000000000000000000000000000000000003F
:1001C000000000000000000000000000000000002F
:1001D000000000000000000000000000000000001F
:1001E000000000000000000000000000000000000F
:1001F00000000000000000000000000000000000FF
:1002000000000000000000000000000000000000EE
:1002100000000000000000000000000000000000DE
:1002200000000000000000000000000000000000CE
:10023000000028001100000000000000280000005D
:1002400000000000000000000000000000000000AE
:10025000000000000000000000000000000000009E
:10026000000000000000000000000000000000008E
:100270000000AAFFAAFFAAFFAAFF000000000000DA
:10028000000000000000240027002A0000000000F9
:10029000250028002B0004040404040404040202C2
:1002A00002020202030303030303010204081020F5
:1002B0004080010204081020010204081020000000
:1002C0000008000201000003040700000000000015
:1002D0000000E71211241FBECFEFD8E0DEBFCDBF74
:1002E00022E0A8E2B1E001C01D92A735B207E1F714
:1002F00011E0A0E0B1E0E4E6F6E202C005900D9264
:10030000A832B107D9F711E0CAE6D1E004C02197BD
:10031000FE010E942A13C936D107C9F70E94700A4C
:100320000C9430130C940000833081F028F4813059
:1003300099F08230A9F008958730A9F08830C9F08B
:100340008430B1F4809180008F7D03C08091800063
:100350008F7780938000089584B58F7784BD08954A
:1003600084B58F7DFBCF8091B0008F778093B000F4
:1003700008958091B0008F7DF9CF1F93CF93DF93C5
:10038000282F30E0F901E254FD4F8491F901E65540
:10039000FD4FD491F901EA56FD4FC491CC23A9F049
:1003A000162F81110E949401EC2FF0E0EE0FFF1F39
:1003B000E457FD4FA591B4918FB7F894EC911111CA
:1003C00008C0D095DE23DC938FBFDF91CF911F91C2
:1003D0000895DE2BF8CFCF93DF9390E0FC01E65534
:1003E000FD4F24918A569D4FFC0184918823D1F0C2
:1003F00090E0880F991FFC01EE57FD4FA591B49135
:10040000FC01E457FD4FC591D49161110EC09FB717
:10041000F8948C91E22FE0958E238C932881E2232F
:10042000E8839FBFDF91CF9108958FB7F894EC9147
:10043000E22BEC938FBFF6CF3FB7F8948091710118
:1004400090917201A0917301B091740126B5A89B9F
:1004500005C02F3F19F00196A11DB11D3FBFBA2F56
:10046000A92F982F8827BC01CD01620F711D811D16
:10047000911D42E0660F771F881F991F4A95D1F79B
:1004800008958F929F92AF92BF92CF92DF92EF9298
:10049000FF926B017C010E941C024B015C01C114A4
:1004A000D104E104F104B9F00E941C026819790931
:1004B0008A099B09683E73408105910580F321E01C
:1004C000C21AD108E108F10888EE880E83E0981E70
:1004D000A11CB11CE4CFFF90EF90DF90CF90BF90B4
:1004E000AF909F908F900895AF92BF92CF92DF927E
:1004F000EF92FF920F931F93CF93DF936C017B01D9
:100500008B01040F151FEB015E01AE18BF08C01769
:10051000D10759F06991D601ED91FC910190F081DC
:10052000E02DC6010995892B79F7C501DF91CF919F
:100530001F910F91FF90EF90DF90CF90BF90AF9001
:100540000895FC01538D448D252F30E0842F90E0D9
:10055000821B930B541710F0CF96089501970895BE
:10056000FC01918D828D981761F0A28DAE0FBF2F87
:10057000B11D5D968C91928D9F5F9F73928F90E0DD
:1005800008958FEF9FEF0895FC01918D828D98174C
:1005900031F0828DE80FF11D858D90E008958FEF89
:1005A0009FEF0895FC01918D228D892F90E0805C52
:1005B0009F4F821B91098F73992708958AEB91E0D1
:1005C0000E94D20221E0892B09F420E0822F0895B5
:1005D00080E090E0892B29F00E94DE0281110C94CA
:1005E00000000895FC01A48DA80FB92FB11DA35AD6
:1005F000BF4F2C91848D90E001968F739927848F43
:10060000A689B7892C93A089B1898C918370806465
:100610008C93938D848D981306C00288F389E02D06
:1006200080818F7D80830895EF92FF920F931F93B7
:10063000CF93DF93EC0181E0888F9B8D8C8D981395
:100640001AC0E889F989808185FF15C09FB7F894A1
:10065000EE89FF896083E889F989808183708064ED
:1006600080839FBF81E090E0DF91CF911F910F9138
:10067000FF90EF900895F62E0B8D10E00F5F1F4F47
:100680000F731127E02E8C8D8E110CC00FB607FC56
:10069000FACFE889F989808185FFF5CFCE010E94E4
:1006A000F202F1CFEB8DEC0FFD2FF11DE35AFF4F5E
:1006B000F0829FB7F8940B8FEA89FB898081806272
:1006C000CFCFCF93DF93EC01888D8823B9F0AA892F
:1006D000BB89E889F9898C9185FD03C0808186FDFD
:1006E0000DC00FB607FCF7CF8C9185FFF2CF80814C
:1006F00085FFEDCFCE010E94F202E9CFDF91CF91CD
:100700000895982F9F7095B990E024E0959587956E
:100710002A95E1F7877088B981E10E94BD015F9A4F
:100720005F98089581110C94810308951F93CF93CE
:10073000DF93C62FD82FD627D0FF0EC0E2E3F2E01A
:100740008491162F1170612F0E949203E3E3F2E06F
:100750008491612F0E949203D1FF0FC0C1FB11272A
:1007600010F9E4E3F2E08491612F0E949203E5E343
:10077000F2E08491612F0E949203D2FF0FC0C2FB6E
:10078000112710F9E6E3F2E08491612F0E949203B1
:10079000E7E3F2E08491612F0E949203D3FF0FC040
:1007A000C3FB112710F9E8E3F2E08491612F0E9466
:1007B0009203E9E3F2E08491612F0E949203D4FF57
:1007C0000FC0C4FB112710F9EAE3F2E08491612F16
:1007D0000E949203EBE3F2E08491612F0E94920366
:1007E000D5FF0FC0C5FB112710F9ECE3F2E08491AF
:1007F000612F0E949203EDE3F2E08491612F0E9449
:100800009203D6FF0FC0C6FB112710F9EEE3F2E00A
:100810008491612F0E949203EFE3F2E08491612FB3
:100820000E949203D7FF10C0E0E4F2E08491DC2F35
:10083000DD1FDD27DD1F6D2F0E949203E1E4F2E052
:1008400084916D2F0E94920380914301882379F057
:1008500080914201811102C0CC2349F0E82FF0E0E1
:10086000EB58FE4FC068C0838F5F80934201DF91D9
:10087000CF911F91089561E08EE00E94BD0161E07B
:100880008FE00E94BD0161E080E10E94BD0161E056
:1008900081E10E94BD0161E08AE00E94BD015C9A95
:1008A0005C980895FF920F931F93CF93DF93EC0111
:1008B000F62E08811981C8010E941413F81621F040
:1008C0006F2DC8010E941C13CE01DF91CF911F91A3
:1008D0000F91FF900895CF93DF9300D0CDB7DEB78F
:1008E00080EF93E09A8389836091B501CE010196F0
:1008F0000E94520485EB91E00F900F90DF91CF9111
:100900000895EF92FF920F931F93CF93DF9300D040
:10091000CDB7DEB705E711E0855791407C01C701EF
:10092000800F911F9A838983F80161918F01CE0115
:1009300001960E945204F1E0053B1F0781F785E70D
:1009400091E00F900F90DF91CF911F910F91FF9049
:10095000EF9008958F3F910511F00E94810410924D
:100960004301809181008B6F80938100809107010A
:100970008460809307014BE050E060E071E08AEB17
:1009800091E00E9474021092420108950F931F9308
:10099000CF93DF9300D0CDB7DEB78B019A838983E5
:1009A000FB016081CE0101960E945204C8010F90A4
:1009B0000F90DF91CF911F910F910895CF93DF9307
:1009C000EB010E9414138883CE01DF91CF9108952B
:1009D000CF93DF93EB010E9414138883CE01DF9144
:1009E000CF910895EF92FF920F931F93CF93DF93D0
:1009F000882309F4D8C0162FC82F662309F48CC3A6
:100A0000893349F58091070181FD23C0826080937D
:100A100007014BE050E060E071E08AEB91E00E945A
:100A200074028C2F90E0FC01EE0FFF1FEE58FF4F79
:100A300024912B31D1F561E08DE00E94EB0160E063
:100A40008DE0DF91CF911F910F91FF90EF900C946B
:100A5000BD018D7FDCCF8C3421F761E081E10E9404
:100A6000810369E170E080E090E00E94410261E072
:100A700085E30E94810369E170E080E090E00E94DC
:100A8000410260E085E30E94810369E170E080E05B
:100A900090E00E94410261E085E1DF91CF911F91DA
:100AA0000F91FF90EF900C94810324912B3231F43D
:100AB00061E08DE00E94EB0161E0C2CF24912C3116
:100AC00039F461E08CE00E94EB0160E08CE0B9CF8A
:100AD00024912C3231F461E08CE00E94EB0161E062
:100AE000F5CF24912A3161F460E082E00E94BD01DB
:100AF000DF91CF911F910F91FF90EF900C943B04E9
:100B0000E491EA3219F461E082E09BCF2091680120
:100B100027FF03C028602093680120916801322FCD
:100B2000387023FF9BC0CE3151F41092B501DF9194
:100B3000CF911F910F91FF90EF900C946B04CF31E8
:100B400021F481E08093B501F2CFC03211F482E04C
:100B5000F9CFC13211F483E0F5CFC73291F480911F
:100B60000F0191E0892780930F016FE071E081EF21
:100B700093E0DF91CF911F910F91FF90EF900C9434
:100B8000C604C63259F48091100191E08927809300
:100B9000100160E171E082EF93E0EBCFC43151F4DA
:100BA00081E080935501DF91CF911F910F91FF90CC
:100BB000EF900895CA3111F482E0F3CFC83011F4F8
:100BC00083E0EFCFC53111F484E0EBCFC73111F4EE
:100BD00085E0E7CFCA3209F041C010928000109240
:100BE000810088E09DE39093890080938800809144
:100BF000810088608093810080918100846080936F
:100C0000810080916F00826080936F00E5E7F1E0E2
:100C100085EB91E011928E179F07E1F710923B014F
:100C200010923C0110923D0110923E0110923F0142
:100C3000109240011092330110923401109235014C
:100C400010923601109237011092380181E08093A2
:100C500043011092420110923001A5CFC93271F4C4
:100C600020914301222351F08FEF90E0DF91CF914B
:100C70001F910F91FF90EF900C94AA0426EC2C0F7B
:100C8000283008F040C12091430121118CCFF6E0BB
:100C9000880F991FFA95E1F71092420110923B01DB
:100CA00010923C0110923D0110923E0110923F01C2
:100CB00010924001A5EBEA2EA1E0FA2E05E711E023
:100CC000EC01C55FDF40CE01800F911F0E9414131D
:100CD000F80181938F01EE16FF06A9F7C091750107
:100CE000CC2309F460CFE0914201F0E0EB58FE4FD5
:100CF000C081C7FF17C0DC2FDF7780913001D81784
:100D000019F06D2F0E949603D0933001809142011B
:100D10008F5F8093420162E370E080E090E00E9488
:100D20004102DECF80913B01C8133EC060E08C2FB2
:100D30000E94F20410923B0181E090913C01C913A2
:100D400007C060E08C2F0E94F20410923C0181E009
:100D500090913D01C91307C060E08C2F0E94F204FE
:100D600010923D0181E090913E01C91307C060E0FF
:100D70008C2F0E94F20410923E0181E090913F017D
:100D8000C91307C060E08C2F0E94F20410923F014B
:100D900081E0D0914001CD1309C060E08C2F0E940A
:100DA000F20410924001B2CF80E0C7CF8111AECFE4
:100DB0008C2F90E0880F991FAC014E585F4FFA01BD
:100DC0002491222391F02091410130E0220F331F22
:100DD0002E583F4FF9016491662339F0FA0164916E
:100DE000F9012491621709F442C0FA0124912223E7
:100DF00091F02091410130E0220F331F2D583F4FD9
:100E0000F9016491662339F0FA014491F9012491C2
:100E1000421709F42CC08D589F4FFC0124912223C6
:100E200089F02091410130E0220F331F2E583F4FAF
:100E3000F9014491442331F0FC014491F9012491DA
:100E40004217A9F0FC0124912223B9F0209141011D
:100E500030E0220F331F2D583F4FF90144914423B6
:100E600061F0FC018491F9012491821306C062E3D0
:100E700070E080E090E00E94410280913B0181118E
:100E800021C0C0933B0161E080913B010E94F204CC
:100E900061E080913C010E94F20461E080913D019B
:100EA0000E94F20461E080913E010E94F20461E040
:100EB00080913F010E94F20461E0809140010E9414
:100EC000F20424CF80913C01811103C0C0933C0106
:100ED000DACF80913D01811103C0C0933D01D3CF92
:100EE00080913E01811103C0C0933E01CCCF80911F
:100EF0003F01811103C0C0933F01C5CFD111C3CFC2
:100F0000C0934001C0CF31114ECE80914301882360
:100F100009F445C0C23008F442C050913301C513F2
:100F200004C080912A011817D1F130913401C31304
:100F300004C080912B01181791F190913501C913CC
:100F400004C080912C01181751F180913601C8130B
:100F500004C020912D01121711F120913701C21305
:100F600004C040912E011417D1F040913801C413F0
:100F700004C060912F01161791F0C51338C01111EC
:100F8000E7C080914201E82FF0E0EB58FE4FC083AC
:100F90008F5F8093420110922A0110923301C09317
:100FA0004101D0E0CC0FDD1FFE01EE58FF4F8491D0
:100FB000612F0E949203FE01ED58FF4F8491612F33
:100FC000DF91CF911F910F91FF90EF900C949203BE
:100FD0009111E9CDCC3409F098CF60E085E30E940F
:100FE000810360E085E30E94810360E055CDC31377
:100FF00011C01111AFC080914201E82FF0E0EB5811
:10100000FE4FC0838F5F8093420110922B0110929C
:101010003401C5CFC91311C011119EC08091420186
:10102000E82FF0E0EB58FE4FC0838F5F80934201C2
:1010300010922C0110923501B2CFC81311C01111BA
:101040008DC080914201E82FF0E0EB58FE4FC08345
:101050008F5F8093420110922D01109236019FCF35
:10106000C21311C011117CC080914201E82FF0E041
:10107000EB58FE4FC0838F5F8093420110922E0188
:10108000109237018CCFC41311C011116BC0809125
:101090004201E82FF0E0EB58FE4FC0838F5F809352
:1010A000420110922F011092380179CF51115DC089
:1010B000112309F464C0C093330181E080932A01B5
:1010C00080914201E82FF0E0EB58FE4FC0838F5F24
:1010D0008093420164CF911109C0112309F453C0D8
:1010E000C093350181E080932C01EACF811109C0C2
:1010F000112309F44AC0C093360181E080932D0189
:10110000DFCF211145C0112309F449CFC093370126
:1011100081E080932E01D4CF80916801982F987040
:1011200083FF03C0CA3209F43ECD86EC8C0F8830B1
:1011300008F04ECF80914301882309F434CDCA537F
:10114000DD0BCE0126E0880F991F2A95E1F78ECDA1
:10115000C31302C0C91371CFC81382CFC21393CF78
:10116000C413A4CF552309F4A6CF3111B4CF112352
:1011700041F0C093340181E080932B01A1CF311164
:1011800012C09111B3CF8111BCCF222309F407CF34
:10119000411105CF112309F402CFC093380181E03A
:1011A00080932F018DCF9111F0CFEDCF1F93CF936F
:1011B000DF93882309F463C0182FC82FD0E0CC0F29
:1011C000DD1FCE58DF4FFE0184918A3109F034C013
:1011D00061E082E00E94BD0181E0FE0194919A32BB
:1011E00029F460E082E00E94BD0181E0FE0194915B
:1011F0009B3129F460E08DE00E94EB0181E0FE016B
:1012000094919B3229F460E08DE00E94EB0181E033
:10121000FE0194919C3129F460E08CE00E94EB0186
:1012200081E0FE01C491CC3249F460E08CE0DF91B2
:10123000CF911F910C94EB0180E0CFCF81111FC0A3
:1012400080916A011817D9F080916B011817B9F0D5
:1012500080916C01181799F080916D01181779F041
:1012600080916E01181759F080916F01181739F0AD
:1012700060E0812FDF91CF911F910C94F204DF91F8
:10128000CF911F9108951F920F920FB60F921124C4
:101290002F933F938F939F93AF93BF938091B6010A
:1012A0009091B701A091B801B091B901309170014E
:1012B00023E0230F2D3758F50196A11DB11D209372
:1012C00070018093B6019093B701A093B801B093D9
:1012D000B9018091710190917201A0917301B09157
:1012E00074010196A11DB11D80937101909372014B
:1012F000A0937301B0937401BF91AF919F918F91AF
:101300003F912F910F900FBE0F901F90189526E8D8
:10131000230F0296A11DB11DD2CF1F920F920FB6BF
:101320000F9211242F933F934F935F936F937F936B
:101330008F939F93AF93BF93EF93FF938AEB91E0CB
:101340000E94F202FF91EF91BF91AF919F918F9117
:101350007F916F915F914F913F912F910F900FBEB1
:101360000F901F9018951F920F920FB60F92112495
:101370002F938F939F93EF93FF93E091CA01F09186
:10138000CB018081E091D001F091D10182FD1BC0A1
:1013900090818091D3018F5F8F732091D401821748
:1013A00041F0E091D301F0E0E654FE4F958F809339
:1013B000D301FF91EF919F918F912F910F900FBECD
:1013C0000F901F9018958081F4CF1F920F920FB647
:1013D0000F9211242F933F934F935F936F937F93BB
:1013E0008F939F93AF93BF93EF93FF9380910701E8
:1013F00082FD1CC08460809307014BE050E060E0F8
:1014000071E08AEB91E00E947402FF91EF91BF912D
:10141000AF919F918F917F916F915F914F913F918C
:101420002F910F900FBE0F901F9018958B7FE3CFD9
:10143000EF92FF920F931F93CF93DF937B018C0169
:10144000D0E0C0E02FB7F8948091B6019091B70139
:10145000A091B801B091B9012FBF8093C2019093C0
:10146000C301A093C401B093C5018AEB91E00E942F
:10147000B00297FF2CC02FB7F8948091B6019091DD
:10148000B701A091B801B091B9012FBF4091C2013D
:101490005091C3016091C4017091C501841B950BEB
:1014A000A60BB70B4091BE015091BF016091C001E6
:1014B0007091C10184179507A607B707B0F2CE0156
:1014C000DF91CF911F910F91FF90EF900895F80158
:1014D00081938F012196EC16FD0609F0B3CFEFCF73
:1014E000CF93DF9300D000D0CDB7DEB7789484B52A
:1014F000826084BD84B5816084BD85B5826085BD10
:1015000085B5816085BD80916E00816080936E009D
:10151000109281008091810082608093810080918F
:101520008100816080938100809180008160809340
:1015300080008091B10084608093B1008091B00000
:1015400081608093B00080917A00846080937A00FB
:1015500080917A00826080937A0080917A00816025
:1015600080937A0080917A00806880937A0010924C
:10157000C10061E082E00E94EB0161E082E00E9434
:10158000BD0161E084E00E94EB0161E085E00E9422
:10159000EB0161E086E00E94EB0161E087E00E94E0
:1015A000EB0161E088E00E94EB0161E089E00E94CC
:1015B000EB0161E08AE00E94EB0161E08BE00E94B8
:1015C000EB0161E08EE00E94EB0161E08FE00E94A0
:1015D000EB0161E080E10E94EB0161E081E10E94AA
:1015E000EB0115B818B85D9A5D9815B818B85E9AF1
:1015F0005E988FE085B988B95C9A5C98109261001A
:10160000F8948FEF93E00E9414138433D9F1E5E747
:10161000F1E085EB91E011928E179F07E1F710E062
:1016200000E0C8010E948104005C1F4F011542E0E8
:101630001407B9F780EF93E09A83898360E0CE01C5
:1016400001960E94520481EF93E09A83898360E0BF
:10165000CE0101960E94520411E01983BE016F5F12
:101660007F4F81EF93E00E94C6041983BE016F5F34
:101670007F4F82EF93E00E94C60464E38FEF93E014
:101680000E941C13109280001092810088E09DE35C
:101690009093890080938800809181008860809376
:1016A000810080916F00826080936F00789465EB79
:1016B00071E080EF93E00E94E8046FE071E081EF59
:1016C00093E00E94DE0460E171E082EF93E00E940B
:1016D000DE0465E571E083EF93E00E94E804E5E74E
:1016E000F1E085EB91E011928E179F07E1F79EE103
:1016F000909375012FE12093760180E2809377012A
:10170000209378019093790180937A01E091CA0146
:10171000F091CB0182E08083E091C601F091C70196
:101720001082E091C801F091C90180E1808310929C
:10173000D201E091CE01F091CF0186E08083E0916B
:10174000CC01F091CD01808180618083E091CC015A
:10175000F091CD01808188608083E091CC01F0918F
:10176000CD01808180688083E091CC01F091CD0132
:1017700080818F7D80838091070184608093070141
:1017800052EB452E50E0552E6EEA262E60E0362EA6
:101790007FEA672E70E0772E00EB10E041EBE42E3D
:1017A00040E0F42E24EBC22E20E0D22E35EBA32E07
:1017B00030E0B32EE1ECF2E08491EDEAF2E08490C7
:1017C000E9E9F2E09490911056C060E082E00E9456
:1017D000BD010E943B046AE070E080E090E00E945E
:1017E000410261E082E00E94BD0164E670E080E0B9
:1017F00090E00E9441028AEB91E00E94D2020C9795
:101800006CF18AEB91E00E94B0028735910531F5C9
:101810008AEB91E00E94B0028B3A9105F9F48AEBD1
:1018200091E00E94B00288389105C1F48AEB91E002
:101830000E94B0024C018AEB91E00E94B002992410
:10184000FAE08F1691043CF548E0841691040CF000
:101850009AC367E08616910409F49CC380E090E087
:10186000892B09F4A7CF0E94DE02882309F49ACFBE
:101870000E94000091CF81110E949401E92DF0E0B7
:10188000EE0FFF1FE859FF4FA591B4918C9188226C
:1018900009F49BCFB0CF7BE087169104F9F6805115
:1018A00068E070E0823008F062C088E691E00E9453
:1018B000180A809146010E94D608809147010E9433
:1018C000D608809148010E94D608809149010E9463
:1018D000D60880914A010E94D60880914B010E944F
:1018E000D608609168018091440168130C94E1125C
:1018F00061E080916A010E94F20461E080916B01D5
:101900000E94F20461E080916C010E94F20461E0A7
:1019100080916D010E94F20461E080916E010E944D
:10192000F20461E080916F010E94F20480916801ED
:1019300080934401809169018093450180916A01FF
:101940008093460180916B018093470180916C01E7
:101950008093480180916D018093490180916E01CF
:1019600080934A0180916F0180934B0177CF80E68D
:1019700091E00E94180A8091650184FF0FC0EAE996
:10198000F0E0849161E00E949203EBE9F0E0849141
:1019900061E00E94920381E080935F018091650184
:1019A00084FD12C080915F01882371F0EAE9F0E0C4
:1019B000849160E00E949203EBE9F0E0849160E0A2
:1019C0000E94920310925F018091650187FF0FC012
:1019D000E6EAF0E0849161E00E949203E7EAF0E039
:1019E000849161E00E94920381E080935E01809186
:1019F000650187FD12C080915E01882371F0E6EADF
:101A0000F0E0849160E00E949203E7EAF0E08491C4
:101A100060E00E94920310925E018091650186FF52
:101A20000FC0E2E8F0E0849161E00E949203E3E8F5
:101A3000F0E0849161E00E94920381E080935D0177
:101A40008091650186FD12C080915D01882371F04F
:101A5000E2E8F0E0849160E00E949203E3E8F0E0C5
:101A6000849160E00E94920310925D018091650173
:101A700085FF0FC0ECE9F0E0849161E00E949203E1
:101A8000EDE9F0E0849161E00E94920381E08093AF
:101A90005C018091650185FD12C080915C01882305
:101AA00071F0ECE9F0E0849160E00E949203EDE9CE
:101AB000F0E0849160E00E94920310925C018091BA
:101AC000660180FF0FC0E0EAF0E0849161E00E94CF
:101AD0009203E1EAF0E0849161E00E94920381E0E8
:101AE00080935B018091660180FD12C080915B0153
:101AF000882371F0E0EAF0E0849160E00E949203B4
:101B0000E1EAF0E0849160E00E94920310925B01B0
:101B10008091660182FF0FC0EAEAF0E0849161E003
:101B20000E949203EBEAF0E0849161E00E9492034C
:101B300081E080935A018091660182FD12C08091FC
:101B40005A01882371F0EAEAF0E0849160E00E9493
:101B50009203EBEAF0E0849160E00E94920310921D
:101B60005A018091660181FF0FC0E2EAF0E08491A2
:101B700061E00E949203E3EAF0E0849161E00E9458
:101B8000920381E0809359018091660181FD12C02A
:101B900080915901882371F0E2EAF0E0849160E0DD
:101BA0000E949203E3EAF0E0849160E00E949203D5
:101BB000109259018091660183FF0FC0EAE8F0E0BE
:101BC000849161E00E949203EBE8F0E0849161E08F
:101BD0000E94920381E0809358018091660183FD09
:101BE00012C080915801882371F0EAE8F0E08491F6
:101BF00060E00E949203EBE8F0E0849160E00E94D4
:101C00009203109258018091660184FF0FC0E6E9AB
:101C1000F0E0849161E00E949203E7E9F0E08491B2
:101C200061E00E94920381E08093570180916601F8
:101C300084FD12C080915701882371F0E6E9F0E03D
:101C4000849160E00E949203E7E9F0E0849160E013
:101C50000E949203109257018091660185FF0FC088
:101C6000E8E9F0E0849161E00E949203E9E9F0E0A4
:101C7000849161E00E94920381E0809356018091FB
:101C8000660185FD12C080915601882371F0E8E954
:101C9000F0E0849160E00E949203E9E9F0E0849131
:101CA00060E00E9492031092560190905501F1E07D
:101CB0009F1295C0809161018D3760F4F601849187
:101CC00061E00E949203F501849161E00E94920319
:101CD00090925401809161018E3780F0809154017F
:101CE000813061F4F601849160E00E949203F50175
:101CF000849160E00E9492031092540180916101EE
:101D0000823868F0F801849161E00E949203F70143
:101D1000849161E00E94920381E08093530180915D
:101D20006101813880F480915301813061F4F801C0
:101D3000849160E00E949203F701849160E00E9428
:101D4000920310925301809160018D3768F4F10184
:101D5000849161E00E949203F301849161E00E940A
:101D6000920381E080935201809160018E3780F070
:101D700080915201813061F4F101849160E00E9410
:101D80009203F301849160E00E9492031092520149
:101D900080916001823870F0F201849161E00E94CC
:101DA0009203E3EBF0E0849161E00E94920381E012
:101DB0008093510180916001813888F480915101B4
:101DC000813069F4F201849160E00E949203E3EBB8
:101DD000F0E0849160E00E949203109251018091A2
:101DE0005501823009F096C090906201F1E09F1297
:101DF0000CC0F601849161E00E949203F501849188
:101E000061E00E94920390925401809162018038B7
:101E100081F480915401813061F4F601849160E095
:101E20000E949203F501849160E00E949203109257
:101E30005401809162018E3F69F4F801849161E060
:101E40000E949203F701849161E00E94920381E075
:101E50008093530180916201803881F48091530115
:101E6000813061F4F801849160E00E949203F701EF
:101E7000849160E00E94920310925301909061015E
:101E8000F1E09F120CC0F101849161E00E94920385
:101E9000F301849161E00E9492039092520180913B
:101EA0006101803881F480915201813061F4F10147
:101EB000849160E00E949203F301849160E00E94AB
:101EC000920310925201809161018E3F71F4F201F0
:101ED000849161E00E949203E3EBF0E0849161E081
:101EE0000E94920381E080935101809161018038CA
:101EF00089F480915101813069F4F201849160E0AC
:101F00000E949203E3EBF0E0849160E00E94920370
:101F10001092510180915501833009F016C28091D1
:101F200065018F70982EF6E08F13DFC0F201849167
:101F300060E00E949203E3EBF0E0849160E00E9495
:101F40009203F601849160E00E949203F50184916E
:101F500060E00E949203F801849160E00E94920385
:101F6000F701849160E00E949203F101849161E0A5
:101F70000E949203F301849161E00E94920381E048
:101F800080935101AFC18AEB91E00E94B0020197AA
:101F900009F064CC64E070E081E191E00E94180AED
:101FA0002091120130E02038310508F03A958091F7
:101FB0004F0190915001280F391F30935001209309
:101FC0004F018091130190E08038910508F09A95B7
:101FD00040914D0150914E01840F951F90934E01F9
:101FE00080934D01F0911101FB83409114015091B8
:101FF0004C0160911001662309F4E7C2541B452F80
:1020000040934C014091B501042E02C036952795AE
:102010000A94E2F702C0969587954A95E2F74FEF4A
:1020200050E0BA01681B790BCB0170914C017C83A5
:10203000422F4F7045B944E0369527954A95E1F710
:102040002F70332728B95D9A5D98282F2F7025B9F6
:1020500054E0969587955A95E1F78F70992788B93E
:102060005E9A5E988FE085B988B98B81882E912C15
:1020700080949094B40176956795617088E00E9491
:10208000BD016B816095617089E00E94BD01B40162
:10209000769567957695679561708AE00E94BD0197
:1020A0009C81892E912C692F61708EE00E94BD0168
:1020B000B4017695679561708FE00E94BD01B4010F
:1020C0007695679576956795617080E10E94BD0170
:1020D000B40183E0769567958A95E1F7617081E1B7
:1020E0000E94BD015C9A5C98B9CBF4E08F1326C0C6
:1020F000F201849160E00E949203E3EBF0E08491AE
:1021000060E00E949203F601849160E00E949203D5
:10211000F501849160E00E949203F101849160E0F6
:102120000E949203F301849160E00E949203F801FF
:10213000849161E00E949203F7011DCFF2E08F13BA
:1021400026C0F101849160E00E949203F301849122
:1021500060E00E949203F601849160E00E94920385
:10216000F501849160E00E949203F801849160E09F
:102170000E949203F701849160E00E949203F201B1
:10218000849161E00E949203E3EBF0E0F4CE8111D0
:1021900026C0F201849160E00E949203E3EBF0E03C
:1021A000849160E00E949203F101849160E00E94BA
:1021B0009203F301849160E00E949203F8018491FC
:1021C00060E00E949203F701849160E00E94920314
:1021D000F601849161E00E949203F501CCCEF5E016
:1021E0008F131EC0F601849160E00E949203F501F6
:1021F000849160E00E949203F201849160E00E9469
:102200009203E3EBF0E0849160E00E949203F1011D
:10221000849161E00E949203F301849161E085CF93
:10222000F3E08F131CC0F601849160E00E949203DA
:10223000F501849160E00E949203F101849160E0D5
:102240000E949203F301849160E00E949203F201E4
:10225000849161E00E949203E3EBF0E0DECFF1E0D5
:102260008F131EC0F801849160E00E949203F70171
:10227000849160E00E949203F101849160E00E94E9
:102280009203F301849160E00E949203F201849131
:1022900061E00E949203E3EBF0E0849161E096CF6D
:1022A000F7E08F131CC0F801849160E00E94920354
:1022B000F701849160E00E949203F201849160E052
:1022C0000E949203E3EBF0E0849160E00E949203AD
:1022D000F101849161E00E949203F301DECFF8E006
:1022E0008F134DCE80915101813009F02EC048E00E
:1022F00094122BC010925101F101849160E00E9470
:102300009203F301849160E00E949203F8018491AA
:1023100060E00E949203F701849160E00E949203C2
:10232000F201849160E00E949203E3EBF0E084917B
:1023300060E00E949203F601849160E00E949203A3
:10234000F501849160E00E949203809155018430F0
:1023500009F096C0809162018D3768F4F60184918E
:1023600061E00E949203F501849161E00E94920372
:1023700081E080935401809162018E3780F08091DA
:102380005401813061F4F601849160E00E9492036F
:10239000F501849160E00E949203109254018091B3
:1023A0006201823868F0F801849161E00E94920332
:1023B000F701849161E00E94920381E080935301D0
:1023C00080916201813880F480915301813061F401
:1023D000F801849160E00E949203F701849160E02B
:1023E0000E94920310925301809161018D3768F42D
:1023F000F101849161E00E949203F301849161E014
:102400000E94920381E080935201809161018E3796
:1024100080F080915201813061F4F101849160E09B
:102420000E949203F301849160E00E949203109253
:10243000520180916101823870F0F201849161E073
:102440000E949203E3EBF0E0849161E00E9492032A
:1024500081E08093510180916101813888F48091FD
:102460005101813069F4F201849160E00E9492038D
:10247000E3EBF0E0849160E00E949203109251013E
:1024800080915501853009F0E9C9809163018D374C
:1024900068F4F601849161E00E949203F501849151
:1024A00061E00E94920381E0809354018091630176
:1024B0008E3780F080915401813061F4F60184916F
:1024C00060E00E949203F501849160E00E94920313
:1024D0001092540180916301823868F0F801849170
:1024E00061E00E949203F701849161E00E949203EF
:1024F00081E08093530180916301813880F4809161
:102500005301813061F4F801849160E00E949203EC
:10251000F701849160E00E94920310925301809130
:1025200064018D3768F4F101849161E00E949203A7
:10253000F301849161E00E94920381E08093520153
:10254000809164018E3780F080915201813061F476
:10255000F101849160E00E949203F301849160E0B4
:102560000E9492031092520180916401823870F0AF
:10257000F201849161E00E949203E3EBF0E0849128
:1025800061E00E94920381E0809351018091640197
:10259000813810F00C942E0C80915101813011F093
:1025A0000C942E0CF201849160E00E949203E3EB04
:1025B000F0E0849160E00E949203109251010C942B
:1025C0002E0C0E9496030C94780C450F19CDEAEB63
:1025D000F1E01382128288EE93E0A0E0B0E0848301
:1025E0009583A683B78389E191E09183808385EC0D
:1025F00090E09587848784EC90E09787868780ECCD
:1026000090E0918B808B81EC90E0938B828B82ECBD
:1026100090E0958B848B86EC90E0978B868B118E67
:10262000128E138E148E0895F999FECF92BD81BD3E
:10263000F89A992780B50895262FF999FECF1FBAE9
:1026400092BD81BD20BD0FB6F894FA9AF99A0FBEDB
:1026500001960895EE0FFF1F0590F491E02D099467
:04266000F894FFCF1C
:1026640057AB12000000000020FF21000000000111
:1026740001FF0000FF0000000014037402A10261C6
:0826840003D202B002C40200FF
:00000001FF
