:100000000C946A010C9492010C9492010C9492014C
:100010000C9492010C9492010C9492010C94920114
:100020000C9492010C9492010C9492010C94BB09D3
:100030000C9492010C9492010C9492010C949201F4
:100040000C9419090C9492010C9489090C9463097D
:100050000C9492010C9492010C9492010C949201D4
:100060000C9492010C94920100000000000000002A
:100070001200580041003200330042005200570085
:1000800036004700370027003800480026001600D9
:1000900013004300220053004600510023003100AA
:1000A0005600210014002400340044005400550080
:1000B0004500350025001500170018111115111401
:1000C00018002847283728162827000028582826EF
:1000D0002821112828482838284111240000000030
:1000E00000000000000000000000000000001C00F4
:1000F0001B001A0011250000000000000000000095
:1001000000002835282511351154115511450000DE
:100110002851285828472837170014002400340095
:1001200044005400550045003500250015002838CE
:1001300000000000000000000000000000000000BF
:1001400000000000000000000000000000000000AF
:10015000000000000000000000000000000000009F
:10016000000000000000000000000000000000008F
:10017000000000000000000000000000000000007F
:10018000000000000000000000000000000000006F
:10019000000000000000000000000000000000005F
:1001A000000000000000000000000000000000004F
:1001B000000000000000000000000000000000003F
:1001C000000000000000000000000000000000002F
:1001D000000000000000000000000000000000001F
:1001E000000000000000000000000000000000000F
:1001F00000000000000000000000000000000000FF
:1002000000000000000000000000000000000000EE
:1002100000000000000000000000000000000000DE
:100220000000000000000000280011000000000095
:100230000000280000000000000000000000000096
:1002400000000000000000000000000000000000AE
:10025000000000000000000000000000000000009E
:100260000000000000000000AAFFAAFFAAFFAAFFEA
:100270000000000000000000000000002300260035
:10028000290000000000240027002A0000000000D0
:10029000250028002B0004040404040404040202C2
:1002A00002020202030303030303010204081020F5
:1002B0004080010204081020010204081020000000
:1002C0000008000201000003040700000000000015
:1002D0000000E80F11241FBECFEFD8E0DEBFCDBF76
:1002E00022E0A8E2B1E001C01D92A735B207E1F714
:1002F00011E0A0E0B1E0E6E6F0E202C005900D9268
:10030000A832B107D9F711E0CAE6D1E004C02197BD
:10031000FE010E942B10C936D107C9F70E94460A78
:100320000C9431100C940000833081F028F481305B
:1003300099F08230A9F008958730A9F08830C9F08B
:100340008430B1F4809180008F7D03C08091800063
:100350008F7780938000089584B58F7784BD08954A
:1003600084B58F7DFBCF8091B0008F778093B000F4
:1003700008958091B0008F7DF9CF1F93CF93DF93C5
:10038000282F30E0F901E254FD4F8491F901E65540
:10039000FD4FD491F901EA56FD4FC491CC23A9F049
:1003A000162F81110E949401EC2FF0E0EE0FFF1F39
:1003B000E457FD4FA591B4918FB7F894EC911111CA
:1003C00008C0D095DE23DC938FBFDF91CF911F91C2
:1003D0000895DE2BF8CFCF93DF9390E0FC01E65534
:1003E000FD4F24918A569D4FFC0184918823D1F0C2
:1003F00090E0880F991FFC01EE57FD4FA591B49135
:10040000FC01E457FD4FC591D49161110EC09FB717
:10041000F8948C91E22FE0958E238C932881E2232F
:10042000E8839FBFDF91CF9108958FB7F894EC9147
:10043000E22BEC938FBFF6CF3FB7F8948091710118
:1004400090917201A0917301B091740126B5A89B9F
:1004500005C02F3F19F00196A11DB11D3FBFBA2F56
:10046000A92F982F8827BC01CD01620F711D811D16
:10047000911D42E0660F771F881F991F4A95D1F79B
:1004800008958F929F92AF92BF92CF92DF92EF9298
:10049000FF926B017C010E941C024B015C01C114A4
:1004A000D104E104F104B9F00E941C026819790931
:1004B0008A099B09683E73408105910580F321E01C
:1004C000C21AD108E108F10888EE880E83E0981E70
:1004D000A11CB11CE4CFFF90EF90DF90CF90BF90B4
:1004E000AF909F908F900895AF92BF92CF92DF927E
:1004F000EF92FF920F931F93CF93DF936C017B01D9
:100500008B01040F151FEB015E01AE18BF08C01769
:10051000D10759F06991D601ED91FC910190F081DC
:10052000E02DC6010995892B79F7C501DF91CF919F
:100530001F910F91FF90EF90DF90CF90BF90AF9001
:100540000895FC01538D448D252F30E0842F90E0D9
:10055000821B930B541710F0CF96089501970895BE
:10056000FC01918D828D981761F0A28DAE0FBF2F87
:10057000B11D5D968C91928D9F5F9F73928F90E0DD
:1005800008958FEF9FEF0895FC01918D828D98174C
:1005900031F0828DE80FF11D858D90E008958FEF89
:1005A0009FEF0895FC01918D228D892F90E0805C52
:1005B0009F4F821B91098F73992708958AEB91E0D1
:1005C0000E94D20221E0892B09F420E0822F0895B5
:1005D00080E090E0892B29F00E94DE0281110C94CA
:1005E00000000895FC01A48DA80FB92FB11DA35AD6
:1005F000BF4F2C91848D90E001968F739927848F43
:10060000A689B7892C93A089B1898C918370806465
:100610008C93938D848D981306C00288F389E02D06
:1006200080818F7D80830895EF92FF920F931F93B7
:10063000CF93DF93EC0181E0888F9B8D8C8D981395
:100640001AC0E889F989808185FF15C09FB7F894A1
:10065000EE89FF896083E889F989808183708064ED
:1006600080839FBF81E090E0DF91CF911F910F9138
:10067000FF90EF900895F62E0B8D10E00F5F1F4F47
:100680000F731127E02E8C8D8E110CC00FB607FC56
:10069000FACFE889F989808185FFF5CFCE010E94E4
:1006A000F202F1CFEB8DEC0FFD2FF11DE35AFF4F5E
:1006B000F0829FB7F8940B8FEA89FB898081806272
:1006C000CFCFCF93DF93EC01888D8823B9F0AA892F
:1006D000BB89E889F9898C9185FD03C0808186FDFD
:1006E0000DC00FB607FCF7CF8C9185FFF2CF80814C
:1006F00085FFEDCFCE010E94F202E9CFDF91CF91CD
:100700000895982F9F7095B990E024E0959587956E
:100710002A95E1F7877088B981E10E94BD015F9A4F
:100720005F98089581110C94810308951F93CF93CE
:10073000DF93C62FD82FD627D0FF0EC0E8E2F2E015
:100740008491162F1170612F0E949203E9E2F2E06A
:100750008491612F0E949203D1FF0FC0C1FB11272A
:1007600010F9EAE2F2E08491612F0E949203EBE239
:10077000F2E08491612F0E949203D2FF0FC0C2FB6E
:10078000112710F9ECE2F2E08491612F0E949203AC
:10079000EDE2F2E08491612F0E949203D3FF0FC03B
:1007A000C3FB112710F9EEE2F2E08491612F0E9461
:1007B0009203EFE2F2E08491612F0E949203D4FF52
:1007C0000FC0C4FB112710F9E0E3F2E08491612F20
:1007D0000E949203E1E3F2E08491612F0E94920370
:1007E000D5FF0FC0C5FB112710F9E2E3F2E08491B9
:1007F000612F0E949203E3E3F2E08491612F0E9453
:100800009203D6FF0FC0C6FB112710F9E4E3F2E014
:100810008491612F0E949203E5E3F2E08491612FBD
:100820000E949203D7FF10C0E6E3F2E08491DC2F30
:10083000DD1FDD27DD1F6D2F0E949203E7E3F2E04D
:1008400084916D2F0E94920380914301882379F057
:1008500080914201811102C0CC2349F0E82FF0E0E1
:10086000EB58FE4FC068C0838F5F80934201DF91D9
:10087000CF911F91089561E08EE00E94BD0161E07B
:100880008FE00E94BD0161E080E10E94BD0161E056
:1008900081E10E94BD0161E08AE00E94BD015C9A95
:1008A0005C980895FF920F931F93CF93DF93EC0111
:1008B000F62E08811981C8010E941510F81621F042
:1008C0006F2DC8010E941D10CE01DF91CF911F91A5
:1008D0000F91FF900895CF93DF9300D0CDB7DEB78F
:1008E00080EF93E09A8389836091B501CE010196F0
:1008F0000E94520485EB91E00F900F90DF91CF9111
:100900000895EF92FF920F931F93CF93DF9300D040
:10091000CDB7DEB705E711E0855791407C01C701EF
:10092000800F911F9A838983F80161918F01CE0115
:1009300001960E945204F1E0053B1F0781F785E70D
:1009400091E00F900F90DF91CF911F910F91FF9049
:10095000EF9008958F3F910511F00E94810410924D
:100960004301809181008B6F80938100809107010A
:100970008460809307014BE050E060E071E08AEB17
:1009800091E00E9474021092420108950F931F9308
:10099000CF93DF9300D0CDB7DEB78B019A838983E5
:1009A000FB016081CE0101960E945204C8010F90A4
:1009B0000F90DF91CF911F910F910895CF93DF9307
:1009C000EB010E9415108883CE01DF91CF9108952D
:1009D000CF93DF93EB010E9415108883CE01DF9146
:1009E000CF910895EF92FF920F931F93CF93DF93D0
:1009F000882309F4B2C0162FC82F662309F462C3F6
:100A0000893339F58091070181FD21C0826080938F
:100A100007014BE050E060E071E08AEB91E00E945A
:100A200074028C2F90E0FC01EE0FFF1FE859FF4F7E
:100A300024912A31C1F560E082E00E94BD01DF917E
:100A4000CF911F910F91FF90EF900C943B048D7FFD
:100A5000DECF8C3431F761E081E10E94810369E1EE
:100A600070E080E090E00E94410261E085E30E9436
:100A7000810369E170E080E090E00E94410260E063
:100A800085E30E94810369E170E080E090E00E94CC
:100A9000410261E085E1DF91CF911F910F91FF90BD
:100AA000EF900C948103E491EA3251F461E082E02A
:100AB000DF91CF911F910F91FF90EF900C94BD01AA
:100AC0002091680127FF03C02860209368012091CE
:100AD0006801322F387023FF97C0CE3151F4109245
:100AE000B501DF91CF911F910F91FF90EF900C9482
:100AF0006B04CF3121F481E08093B501F2CFC03295
:100B000011F482E0F9CFC13211F483E0F5CFC7329E
:100B100091F480910F0191E0892780930F016FE09C
:100B200071E081EF93E0DF91CF911F910F91FF90E2
:100B3000EF900C94C604C63259F48091100191E0F4
:100B400089278093100160E171E082EF93E0EBCFA1
:100B5000C43151F481E080935501DF91CF911F9111
:100B60000F91FF90EF900895CA3111F482E0F3CF16
:100B7000C83011F483E0EFCFC53111F484E0EBCF3E
:100B8000CA3209F041C0109280001092810088E0C2
:100B90009DE3909389008093880080918100886014
:100BA0008093810080918100846080938100809196
:100BB0006F00826080936F00E5E7F1E085EB91E0E4
:100BC00011928E179F07E1F710923B0110923C01A2
:100BD00010923D0110923E0110923F01109240018F
:100BE00010923301109234011092350110923601A7
:100BF000109237011092380181E0809343011092E6
:100C0000420110923001A9CFC93271F42091430101
:100C1000222351F08FEF90E0DF91CF911F910F9140
:100C2000FF90EF900C94AA0426EC2C0F2C3008F0C7
:100C300040C120914301211190CFF6E0880F991F08
:100C4000FA95E1F71092420110923B0110923C019B
:100C500010923D0110923E0110923F01109240010E
:100C6000A5EBEA2EA1E0FA2E05E711E0EC01C55F45
:100C7000DF40CE01800F911F0E941510F801819373
:100C80008F01EE16FF06A9F7C0917501CC2309F478
:100C900064CFE0914201F0E0EB58FE4FC081C7FF06
:100CA00017C0DC2FDF7780913001D81719F06D2F36
:100CB0000E949603D0933001809142018F5F809310
:100CC000420162E370E080E090E00E944102DECFEA
:100CD00080913B01C8133EC060E08C2F0E94F2045B
:100CE00010923B0181E090913C01C91307C060E084
:100CF0008C2F0E94F20410923C0181E090913D0102
:100D0000C91307C060E08C2F0E94F20410923D01CD
:100D100081E090913E01C91307C060E08C2F0E94D2
:100D2000F20410923E0181E090913F01C91307C087
:100D300060E08C2F0E94F20410923F0181E0D0917C
:100D40004001CD1309C060E08C2F0E94F204109284
:100D50004001B2CF80E0C7CF8111AECF8C2F90E0A1
:100D6000880F991FAC0148595F4FFA012491222343
:100D700091F02091410130E0220F331F28593F4F5D
:100D8000F9016491662339F0FA016491F901249123
:100D9000621709F442C0FA012491222391F02091B4
:100DA000410130E0220F331F27593F4FF901649171
:100DB000662339F0FA014491F9012491421709F4AC
:100DC0002CC087599F4FFC012491222389F0209148
:100DD000410130E0220F331F28593F4FF901449160
:100DE000442331F0FC014491F90124914217A9F008
:100DF000FC0124912223B9F02091410130E0220F1F
:100E0000331F27593F4FF9014491442361F0FC01FE
:100E10008491F9012491821306C062E370E080E0BE
:100E200090E00E94410280913B01811121C0C0935A
:100E30003B0161E080913B010E94F20461E08091FE
:100E40003C010E94F20461E080913D010E94F204A5
:100E500061E080913E010E94F20461E080913F01D7
:100E60000E94F20461E0809140010E94F20424CFCC
:100E700080913C01811103C0C0933C01DACF809185
:100E80003D01811103C0C0933D01D3CF80913E014C
:100E9000811103C0C0933E01CCCF80913F018111ED
:100EA00003C0C0933F01C5CFD111C3CFC093400150
:100EB000C0CF311152CE80914301882309F445C03F
:100EC000C23008F442C050913301C51304C0809170
:100ED0002A011817D1F130913401C31304C0809155
:100EE0002B01181791F190913501C91304C080911D
:100EF0002C01181751F180913601C81304C02091BC
:100F00002D01121711F120913701C21304C0409135
:100F10002E011417D1F040913801C41304C0609120
:100F20002F01161791F0C51338C01111E7C0809139
:100F30004201E82FF0E0EB58FE4FC0838F5F8093B3
:100F4000420110922A0110923301C0934101D0E076
:100F5000CC0FDD1FFE01E859FF4F8491612F0E94E5
:100F60009203FE01E759FF4F8491612FDF91CF91EA
:100F70001F910F91FF90EF900C9492039111EDCD82
:100F8000CC3409F098CF60E085E30E94810360E0F3
:100F900085E30E94810360E07DCDC31311C0111170
:100FA000AFC080914201E82FF0E0EB58FE4FC083C4
:100FB0008F5F8093420110922B0110923401C5CFB4
:100FC000C91311C011119EC080914201E82FF0E0B9
:100FD000EB58FE4FC0838F5F8093420110922C012B
:100FE00010923501B2CFC81311C011118DC080917C
:100FF0004201E82FF0E0EB58FE4FC0838F5F8093F3
:10100000420110922D01109236019FCFC21311C0E0
:1010100011117CC080914201E82FF0E0EB58FE4FA7
:10102000C0838F5F8093420110922E01109237018E
:101030008CCFC41311C011116BC080914201E82FF5
:10104000F0E0EB58FE4FC0838F5F80934201109217
:101050002F011092380179CF51115DC0112309F48D
:1010600064C0C093330181E080932A0180914201E2
:10107000E82FF0E0EB58FE4FC0838F5F8093420172
:1010800064CF911109C0112309F453C0C0933501F5
:1010900081E080932C01EACF811109C0112309F46A
:1010A0004AC0C093360181E080932D01DFCF21112A
:1010B00045C0112309F449CFC093370181E08093E3
:1010C0002E01D4CF80916801982F987083FF03C0C0
:1010D000CA3209F442CD86EC8C0F8C3008F04ECF2A
:1010E00080914301882309F438CDCA53DD0BCE012A
:1010F00026E0880F991F2A95E1F78ECDC31302C011
:10110000C91371CFC81382CFC21393CFC413A4CF16
:10111000552309F4A6CF3111B4CF112341F0C09368
:10112000340181E080932B01A1CF311112C09111C4
:10113000B3CF8111BCCF222309F407CF411105CFD2
:10114000112309F402CFC093380181E080932F016D
:101150008DCF9111F0CFEDCF1F93CF93DF938823E5
:1011600009F463C0182FC82FD0E0CC0FDD1FC85979
:10117000DF4FFE0184918A3109F034C061E082E0E2
:101180000E94BD0181E0FE0194919A3229F460E051
:1011900082E00E94BD0181E0FE0194919B3129F41F
:1011A00060E08DE00E94EB0181E0FE0194919B32B2
:1011B00029F460E08DE00E94EB0181E0FE01949152
:1011C0009C3129F460E08CE00E94EB0181E0FE019B
:1011D000C491CC3249F460E08CE0DF91CF911F9153
:1011E0000C94EB0180E0CFCF81111FC080916A0188
:1011F0001817D9F080916B011817B9F080916C0124
:10120000181799F080916D01181779F080916E018F
:10121000181759F080916F01181739F060E0812F8D
:10122000DF91CF911F910C94F204DF91CF911F9128
:1012300008951F920F920FB60F9211242F933F9390
:101240008F939F93AF93BF938091B6019091B70115
:10125000A091B801B091B9013091700123E0230F42
:101260002D3758F50196A11DB11D20937001809373
:10127000B6019093B701A093B801B093B9018091E2
:10128000710190917201A0917301B0917401019666
:10129000A11DB11D8093710190937201A093730100
:1012A000B0937401BF91AF919F918F913F912F9116
:1012B0000F900FBE0F901F90189526E8230F0296EF
:1012C000A11DB11DD2CF1F920F920FB60F92112404
:1012D0002F933F934F935F936F937F938F939F933E
:1012E000AF93BF93EF93FF938AEB91E00E94F202DA
:1012F000FF91EF91BF91AF919F918F917F916F91EE
:101300005F914F913F912F910F900FBE0F901F90C3
:1013100018951F920F920FB60F9211242F938F934F
:101320009F93EF93FF93E091CA01F091CB018081ED
:10133000E091D001F091D10182FD1BC0908180919C
:10134000D3018F5F8F732091D401821741F0E09118
:10135000D301F0E0E654FE4F958F8093D301FF91C7
:10136000EF919F918F912F910F900FBE0F901F9033
:1013700018958081F4CF1F920F920FB60F9211240F
:101380002F933F934F935F936F937F938F939F938D
:10139000AF93BF93EF93FF938091070182FD1CC031
:1013A0008460809307014BE050E060E071E08AEBDD
:1013B00091E00E947402FF91EF91BF91AF919F91D4
:1013C0008F917F916F915F914F913F912F910F90EE
:1013D0000FBE0F901F9018958B7FE3CFEF92FF9277
:1013E0000F931F93CF93DF937B018C01D0E0C0E07C
:1013F0002FB7F8948091B6019091B701A091B801F0
:10140000B091B9012FBF8093C2019093C301A09303
:10141000C401B093C5018AEB91E00E94B00297FF2E
:101420002CC02FB7F8948091B6019091B701A0918C
:10143000B801B091B9012FBF4091C2015091C301D1
:101440006091C4017091C501841B950BA60BB70B6D
:101450004091BE015091BF016091C0017091C101E6
:1014600084179507A607B707B0F2CE01DF91CF9199
:101470001F910F91FF90EF900895F80181938F01D4
:101480002196EC16FD0609F0B3CFEFCFCF93DF9393
:1014900000D0CDB7DEB7789484B5826084BD84B5C2
:1014A000816084BD85B5826085BD85B5816085BD5F
:1014B00080916E00816080936E0010928100809117
:1014C000810082608093810080918100816080939F
:1014D0008100809180008160809380008091B100C4
:1014E00084608093B1008091B00081608093B000EF
:1014F00080917A00846080937A0080917A00826083
:1015000080937A0080917A00816080937A00809144
:101510007A00806880937A001092C10061E082E0D6
:101520000E94EB0161E082E00E94BD0161E084E085
:101530000E94EB0161E085E00E94EB0161E086E042
:101540000E94EB0161E087E00E94EB0161E088E02E
:101550000E94EB0161E089E00E94EB0161E08AE01A
:101560000E94EB0161E08BE00E94EB0161E08EE004
:101570000E94EB0161E08FE00E94EB0161E080E1FD
:101580000E94EB0161E081E10E94EB0115B818B8FF
:101590005D9A5D9815B818B85E9A5E988FE085B927
:1015A00088B95C9A5C9810926100F8948FEF93E090
:1015B0000E9415108433D9F1E5E7F1E085EB91E065
:1015C00011928E179F07E1F710E000E0C8010E941A
:1015D0008104005C1F4F011543E01407B9F780EF49
:1015E00093E09A83898360E0CE0101960E945204C1
:1015F00081EF93E09A83898360E0CE0101960E9497
:10160000520411E01983BE016F5F7F4F81EF93E0B9
:101610000E94C6041983BE016F5F7F4F82EF93E083
:101620000E94C60464E38FEF93E00E941D101092A5
:1016300080001092810088E09DE390938900809360
:1016400088008091810088608093810080916F0084
:10165000826080936F00789465EB71E080EF93E097
:101660000E94E8046FE071E081EF93E00E94DE04E5
:1016700060E171E082EF93E00E94DE0465E571E0D5
:1016800083EF93E00E94E804E5E7F1E085EB91E069
:1016900011928E179F07E1F79EE1909375012FE15C
:1016A0002093760180E280937701209378019093D4
:1016B000790180937A01E091CA01F091CB0182E037
:1016C0008083E091C601F091C7011082E091C801CA
:1016D000F091C90180E180831092D201E091CE01A6
:1016E000F091CF0186E08083E091CC01F091CD01B3
:1016F000808180618083E091CC01F091CD01808177
:1017000088608083E091CC01F091CD018081806878
:101710008083E091CC01F091CD0180818F7D808329
:101720008091070184608093070191EC292E92E05B
:10173000392E2DEA422E22E0522E88248A94912CB2
:101740004FE0742ECC24C39450E0A52E50E0B52E6B
:1017500011E0F1018491F201F490E9E9F2E0E49002
:10176000E1109CC00E943B048AEB91E00E94D202EF
:101770000C970CF41AC48AEB91E00E94B0028735F2
:10178000910509F012C48AEB91E00E94B0028B3AF5
:10179000910509F00AC48AEB91E00E94B0028838F2
:1017A000910509F002C48AEB91E00E94B0027C012D
:1017B0008AEB91E00E94B002FF24F8E0EF16F104FA
:1017C00009F469C24BE0E416F10409F0EEC380515C
:1017D00068E070E0823008F071C088E691E00E9415
:1017E000EE09809146010E94AC08809147010E9459
:1017F000AC08809148010E94AC08809149010E9488
:10180000AC0880914A010E94AC0880914B010E9473
:10181000AC0860916801809144016813D4C361E011
:1018200080916A010E94F20461E080916B010E9444
:10183000F20461E080916C010E94F20461E0809109
:101840006D010E94F20461E080916E010E94F20439
:1018500061E080916F010E94F204809168018093A1
:101860004401809169018093450180916A018093D0
:10187000460180916B018093470180916C018093B8
:10188000480180916D018093490180916E018093A0
:101890004A0180916F0180934B0187C381110E949F
:1018A0009401EE2DF0E0EE0FFF1FE858FD4FA591DB
:1018B000B4918C91F82209F455CF56CF80E691E08F
:1018C0000E94EE098091650184FF06C061E084E119
:1018D0000E94810310935F01809165018295817060
:1018E0008C1551F080915F01882331F060E084E134
:1018F0000E94810310925F018091650187FF06C0FD
:1019000061E084E20E94810310935E018091650191
:1019100087FD0AC080915E01882331F060E084E297
:101920000E94810310925E018091650186FF06C0CE
:1019300061E084E30E94810310935D018091650161
:1019400086FB882780F98C1551F080915D018823F2
:1019500031F060E084E30E94810310925D01809188
:10196000650185FF06C061E084E40E948103109355
:101970005C018091650185FB882780F98C1551F009
:1019800080915C01882331F060E084E40E9481034F
:1019900010925C018091660180FF06C061E083E1E6
:1019A0000E94810310935B018091660180FD0AC053
:1019B00080915B01882331F060E083E10E94810324
:1019C00010925B018091660182FF06C061E083E2B4
:1019D0000E94810310935A018091660182FB88273F
:1019E00080F98C1551F080915A01882331F060E024
:1019F00083E20E94810310925A018091660181FF67
:101A000006C061E083E30E94810310935901809135
:101A10006601869581708C1551F08091590188235B
:101A200031F060E083E30E948103109259018091BC
:101A3000660183FF06C061E083E40E948103109386
:101A400058018091660183FB882780F98C1551F03D
:101A500080915801882331F060E083E40E94810383
:101A6000109258018091660184FF06C061E082E116
:101A70000E948103109357018091660182958170C5
:101A80008C1551F080915701882331F060E082E19C
:101A90000E948103109257018091660185FF06C064
:101AA00061E082E20E9481031093560180916601F9
:101AB00085FB882780F98C1551F080915601882389
:101AC00031F060E082E20E948103109256010091A1
:101AD0005501013009F060C080916101811106C09B
:101AE00061E081E20E9481030093540180916101D1
:101AF0008F3751F480915401813031F460E081E2FC
:101B00000E94810310925401809161018F3F31F452
:101B100061E082E20E948103109353018091610190
:101B20008F3751F480915301813031F460E082E2CB
:101B30000E9481031092530180916001811106C0BF
:101B400061E082E10E948103109352018091600163
:101B50008F3751F480915201813031F460E082E19D
:101B60000E94810310925201809160018F3F31F4F5
:101B700061E085E20E948103109351018091600130
:101B80008F3751F480915101813031F460E085E26A
:101B90000E9481031092510180915501823009F019
:101BA00060C000916201013031F461E081E20E9485
:101BB00081030093540180916201803851F4809137
:101BC0005401813031F460E081E20E94810310927F
:101BD0005401809162018E3F31F461E082E20E9403
:101BE00081031093530180916201803851F48091F8
:101BF0005301813031F460E082E20E94810310924F
:101C0000530100916101013031F461E082E10E94F1
:101C100081030093520180916101803851F48091D9
:101C20005201813031F460E082E10E948103109220
:101C30005201809161018E3F31F461E085E20E94A2
:101C400081031093510180916101803851F480919A
:101C50005101813031F460E085E20E9481031092ED
:101C6000510180915501833009F03AC1009165011D
:101C70000F70063009F0BAC061E082E10E94810372
:101C800060E085E20E94810360E081E20E948103BE
:101C900060E082E2BBC08AEB91E00E94B002019753
:101CA00009F083C164E070E081E191E00E94EE09F7
:101CB0002091120130E02038310508F082C1809176
:101CC0004F0190915001280F391F309350012093FC
:101CD0004F018091130190E08038910508F09A95AA
:101CE00040914D0150914E01840F951F90934E01EC
:101CF00080934D01D09011014091140150914C01FD
:101D000060911001662309F461C1541B452F409373
:101D10004C014091B501042E02C0369527950A94D6
:101D2000E2F702C0969587954A95E2F7F401E81B21
:101D3000F90BCF0160904C01422F4F7045B944E040
:101D4000369527954A95E1F72F70332728B95D9A84
:101D50005D982E2F2F7025B954E0969587955A954A
:101D6000E1F78F70992788B95E9A5E9875B878B850
:101D7000ED2CF12CE094F094B701769567956170A5
:101D800088E00E94BD016D2D6095617089E00E9420
:101D9000BD01B701769567957695679561708AE084
:101DA0000E94BD01E62CF12C662D61708EE00E9430
:101DB000BD01B7017695679561708FE00E94BD0106
:101DC000B7017695679576956795617080E10E9479
:101DD000BD01B70103E0769567950A95E1F761705B
:101DE00081E10E94BD015C9A5C98DFC0043099F4E7
:101DF00061E082E20E94810360E085E20E9481034B
:101E000060E081E20E94810360E082E10E94810340
:101E1000109351014DC0023039F461E085E20E9417
:101E2000810360E082E12ECF01110BC061E081E20D
:101E30000E94810360E085E20E94810360E082E10C
:101E400025CF053079F461E082E10E94810361E0F1
:101E500082E20E94810360E085E20E94810360E0EB
:101E600081E2D4CF033059F461E085E20E9481031E
:101E700061E082E20E94810360E082E1EECF013006
:101E800039F461E085E20E94810361E081E2D4CF10
:101E9000073059F461E082E10E94810361E081E250
:101EA0000E94810360E085E2F1CE083009F0B0CFF6
:101EB000809151018130A1F4083091F410925101C8
:101EC00060E082E10E94810360E081E20E94810380
:101ED00060E085E20E94810360E082E20E9481036B
:101EE00080915501843009F060C080916201803694
:101EF00030F461E081E20E948103109354018091EB
:101F00006201813650F080915401813031F460E0FB
:101F100081E20E948103109254018091620186390E
:101F200030F061E082E20E948103109353018091BE
:101F30006201853950F480915301813031F460E0C1
:101F400082E20E94810310925301809161018036E8
:101F500030F461E082E10E9481031093520180918C
:101F60006101813650F080915201813031F460E09E
:101F700082E10E94810310925201809161018639B1
:101F800030F061E085E20E9481031093510180915D
:101F90006101853950F480915101813031F460E064
:101FA00085E20E94810310925101A114B10409F449
:101FB000D0CB0E94DE02882309F4CBCB0E94000024
:101FC000C8CB3A957CCE0E94960329CC450F9FCE74
:101FD000EAEBF1E01382128288EE93E0A0E0B0E039
:101FE00084839583A683B78389E191E0918380837D
:101FF00085EC90E09587848784EC90E097878687CE
:1020000080EC90E0918B808B81EC90E0938B828BC5
:1020100082EC90E0958B848B86EC90E0978B868B9E
:10202000118E128E138E148E0895F999FECF92BDE3
:1020300081BDF89A992780B50895262FF999FECF8A
:102040001FBA92BD81BD20BD0FB6F894FA9AF99AD5
:102050000FBE01960895EE0FFF1F0590F491E02D3D
:062060000994F894FFCF83
:1020660057AB12000000000020FF21000000000115
:1020760001FF0000FF0000000014037402A10261CA
:0820860003D202B002C4020003
:00000001FF
