:100000000C9462000C948A000C948A000C948A0070
:100010000C948A000C948A000C948A000C948A0038
:100020000C948A000C948A000C948A000C948A0028
:100030000C948A000C948A000C948A000C948A0018
:100040000C94BA030C948A000C942A040C940404B3
:100050000C948A000C948A000C948A000C948A00F8
:100060000C948A000C948A000000000023002600F3
:10007000290000000000240027002A0000000000E2
:10008000250028002B0004040404040404040202D4
:100090000202020203030303030301020408102007
:1000A0004080010204081020010204081020000012
:1000B0000008000201000003040700000000000027
:1000C0000000BC0611241FBECFEFD8E0DEBFCDBFBD
:1000D00024E0A2E4B3E001C01D92A230B207E1F730
:1000E00013E0A0E0B1E0EEE0FEE002C005900D926A
:1000F000A234B107D9F710E0C2E6D0E004C02197DE
:10010000FE010E94FF06C136D107C9F70E945C04B8
:100110000C9405070C940000833081F028F48130A2
:1001200099F08230A9F008958730A9F08830C9F09D
:100130008430B1F4809180008F7D03C08091800075
:100140008F7780938000089584B58F7784BD08955C
:1001500084B58F7DFBCF8091B0008F778093B00006
:1001600008958091B0008F7DF9CF1F93CF93DF93D7
:10017000282F30E0F901E255FF4F8491F901E6564E
:10018000FF4FD491F901EA57FF4FC491CC23A9F056
:10019000162F81110E948C00EC2FF0E0EE0FFF1F54
:1001A000E458FF4FA591B4918FB7F894EC911111D9
:1001B00008C0D095DE23DC938FBFDF91CF911F91D4
:1001C0000895DE2BF8CFCF93DF9390E0FC01E65645
:1001D000FF4F24918A579F4FFC0184918823D1F0CF
:1001E00090E0880F991FFC01EE58FF4FA591B49144
:1001F000FC01E458FF4FC591D49161110EC09FB727
:10020000F8948C91E22FE0958E238C932881E22341
:10021000E8839FBFDF91CF9108958FB7F894EC9159
:10022000E22BEC938FBFF6CF3FB7F89480915C033D
:1002300090915D03A0915E03B0915F0326B5A89BEA
:1002400005C02F3F19F00196A11DB11D3FBFBA2F68
:10025000A92F982F8827BC01CD01620F711D811D28
:10026000911D42E0660F771F881F991F4A95D1F7AD
:1002700008958F929F92AF92BF92CF92DF92EF92AA
:10028000FF924B015C010E9414016B017C010E94F2
:1002900014016C197D098E099F09683E7340810520
:1002A0009105A8F321E0821A9108A108B10888EE0F
:1002B000C80E83E0D81EE11CF11C81149104A10436
:1002C000B10429F7FF90EF90DF90CF90BF90AF90EF
:1002D0009F908F900895AF92BF92CF92DF92EF924E
:1002E000FF920F931F93CF93DF936C017B018B01E0
:1002F000040F151FEB015E01AE18BF08C017D10730
:1003000059F06991D601ED91FC910190F081E02DB9
:10031000C6010995892B79F7C501DF91CF911F910E
:100320000F91FF90EF90DF90CF90BF90AF90089526
:10033000FC01538D448D252F30E0842F90E0821BEB
:10034000930B541710F0CF96089501970895FC0170
:10035000918D828D981761F0A28DAE0FBF2FB11DC8
:100360005D968C91928D9F5F9F73928F90E0089520
:100370008FEF9FEF0895EF92FF920F931F93CF930C
:10038000DF937B018C01D0E0C0E02FB7F89480911F
:10039000610390916203A0916303B09164032FBF46
:1003A00080936D0390936E03A0936F03B0937003DB
:1003B00085E693E00E94A70197FF2CC02FB7F89421
:1003C0008091610390916203A0916303B0916403F3
:1003D0002FBF40916D0350916E0360916F03709138
:1003E0007003841B950BA60BB70B409169035091CA
:1003F0006A0360916B0370916C0384179507A607DD
:10040000B707B0F2CE01DF91CF911F910F91FF900E
:10041000EF900895F80181938F012196EC16FD0667
:1004200009F0B3CFEFCFFC01918D828D981731F099
:10043000828DE80FF11D858D90E008958FEF9FEF7D
:100440000895FC01918D228D892F90E0805C9F4F53
:10045000821B91098F739927089585E693E00E9486
:10046000210221E0892B09F420E0822F089580E009
:1004700090E0892B29F00E942D0281110C9400003C
:100480000895FC01A48DA80FB92FB11DA35ABF4F29
:100490002C91848D90E001968F739927848FA68983
:1004A000B7892C93A089B1898C91837080648C93D7
:1004B000938D848D981306C00288F389E02D808186
:1004C0008F7D80830895EF92FF920F931F93CF93B8
:1004D000DF93EC0181E0888F9B8D8C8D98131AC07F
:1004E000E889F989808185FF15C09FB7F894EE8966
:1004F000FF896083E889F9898081837080648083C3
:100500009FBF81E090E0DF91CF911F910F91FF900D
:10051000EF900895F62E0B8D10E00F5F1F4F0F73B5
:100520001127E02E8C8D8E110CC00FB607FCFACF70
:10053000E889F989808185FFF5CFCE010E944102CB
:10054000F1CFEB8DEC0FFD2FF11DE35AFF4FF08241
:100550009FB7F8940B8FEA89FB8980818062CFCFA7
:10056000CF93DF93EC01888D8823B9F0AA89BB89EA
:10057000E889F9898C9185FD03C0808186FD0DC0D5
:100580000FB607FCF7CF8C9185FFF2CF808185FFF6
:10059000EDCFCE010E944102E9CFDF91CF910895C6
:1005A000982F9F7095B990E024E0959587952A95AE
:1005B000E1F7877088B981E10E94B5005F9A5F9882
:1005C0000895CF93C091600380EF93E00E94E90605
:1005D000C81729F06C2F80EF93E00E94F10680E6A7
:1005E00093E0CF9108950F931F93CF93DF938823C8
:1005F00009F47DC09091520397FF03C098609093D7
:1006000052039091520393FF18C08E3141F410921F
:100610006003DF91CF911F910F910C94E1028F3114
:1006200021F481E080936003F4CF803211F482E002
:10063000F9CF813211F483E0F5CF082F10E0000FDD
:10064000111F015E1E4FF801C081CA3141F460E004
:1006500082E0DF91CF911F910F910C94B500CA32C7
:1006600011F461E0F5CFD62FCB3139F461E08BE0A6
:100670000E94E30060E08BE0ECCFCB3231F461E02C
:100680008BE00E94E30061E0F6CFCC3139F461E009
:100690008CE00E94E30060E08CE0DBCFCC3231F4F0
:1006A00061E08CE00E94E30061E0F6CF4BE050E0B7
:1006B0006FE071E0833531F0883441F44BE050E075
:1006C00060E071E085E693E00E946B01CC2321F0AD
:1006D0006D2F8C2F0E94D002F8018181882339F080
:1006E0006D2FDF91CF911F910F910C94D002DF916C
:1006F000CF911F910F9108958823D9F1E82FF0E051
:10070000EE0FFF1FE15EFE4F908161E09A3119F01C
:100710009A3229F460E082E00E94B50008959B318E
:1007200021F460E08BE00C94E3009B32D1F39C3128
:1007300019F460E08CE0F7CF9C32D9F39091540328
:100740008917B9F090915503891799F09091560344
:10075000891779F090915703891759F090915803B0
:10076000891739F090915903891719F060E00C94BA
:10077000F30208951F920F920FB60F9211242F9338
:100780003F938F939F93AF93BF9380916103909119
:100790006203A0916303B091640330915B0323E093
:1007A000230F2D3758F50196A11DB11D20935B0332
:1007B0008093610390936203A0936303B0936403F7
:1007C00080915C0390915D03A0915E03B0915F0303
:1007D0000196A11DB11D80935C0390935D03A093CE
:1007E0005E03B0935F03BF91AF919F918F913F9153
:1007F0002F910F900FBE0F901F90189526E8230F92
:100800000296A11DB11DD2CF1F920F920FB60F926B
:1008100011242F933F934F935F936F937F938F9305
:100820009F93AF93BF93EF93FF9385E693E00E946E
:100830004102FF91EF91BF91AF919F918F917F9175
:100840006F915F914F913F912F910F900FBE0F903D
:100850001F9018951F920F920FB60F9211242F938D
:100860008F939F93EF93FF93E0917503F09176033D
:100870008081E0917B03F0917C0382FD1BC090811D
:1008800080917E038F5F8F7320917F03821741F0E9
:10089000E0917E03F0E0EB59FC4F958F80937E034F
:1008A000FF91EF919F918F912F910F900FBE0F901D
:1008B0001F9018958081F4CF789484B5826084BDB0
:1008C00084B5816084BD85B5826085BD85B5816054
:1008D00085BD80916E00816080936E0010928100D2
:1008E000809181008260809381008091810081608D
:1008F000809381008091800081608093800080914E
:10090000B10084608093B1008091B00081608093D9
:10091000B00080917A00846080937A0080917A00A0
:10092000826080937A0080917A00816080937A005F
:1009300080917A00806880937A001092C10061E013
:1009400084E00E94E30061E085E00E94E30061E052
:1009500086E00E94E30061E087E00E94E30061E03E
:1009600088E00E94E30061E089E00E94E30061E02A
:100970008AE00E94E30061E08BE00E94E30061E016
:100980008EE00E94E30061E08FE00E94E30061E0FE
:1009900080E10E94E30061E081E10E94E30061E008
:1009A00082E00E94E30061E082E00E94B50015B899
:1009B00018B85D9A5D9815B818B85E9A5E988FE081
:1009C00085B988B95C9A5C9880EF93E00E94E9064B
:1009D00080936003E0917503F091760382E0808359
:1009E000E0917103F09172031082E0917303F09132
:1009F000740380E1808310927D03E0917903F0918C
:100A00007A0386E08083E0917703F0917803808118
:100A100080618083E0917703F09178038081886022
:100A20008083E0917703F0917803808180688083F0
:100A3000E0917703F091780380818F7D80834BE094
:100A400050E06FE071E085E693E00E946B0101EBFE
:100A500010E0CDE9EC2EC0E0FC2ED9E8CD2ED0E0A0
:100A6000DD2E8FE0782E88248A94912C20E0A22E0F
:100A700020E0B22E66246A94F8018491F701C491B3
:100A8000F601D491D11148C061E082E00E94E300F8
:100A900060E082E00E94B50060925A0375B878B8B1
:100AA0005C9A5C986AE070E080E090E00E94390116
:100AB00061E082E00E94B50064E670E080E090E0D2
:100AC0000E94390185E693E00E9421020397C4F059
:100AD00085E693E00E94A7018735910589F485E6B4
:100AE00093E00E94A7018B3A910551F485E693E0CB
:100AF0000E94A70181309105F9F0029709F47FC0A7
:100B0000A114B10409F4B8CF0E942D02882309F47E
:100B1000B3CF0E940000B0CF81110E948C00ED2F56
:100B2000F0E0EE0FFF1FE859FF4FA591B4918C91B3
:100B3000C82309F4A9CFC6CF68E070E082E593E04E
:100B40000E94BB01809144030E947C038091450375
:100B50000E947C03809146030E947C03809147039E
:100B60000E947C03809148030E947C03809149038A
:100B70000E947C03C091420360915203C613E1C0FE
:100B800061E0809154030E94F30261E0809155037B
:100B90000E94F30261E0809156030E94F30261E03B
:100BA000809157030E94F30261E0809158030E94F4
:100BB000F30261E0809159030E94F3028091520395
:100BC00080934203809153038093430380915403A5
:100BD000809344038091550380934503809156038D
:100BE0008093460380915703809347038091580375
:100BF00080934803809159038093490381CF64E037
:100C000070E08EE493E00E94BB0180914F0390E07E
:100C10008038910508F09A9520914C0330914D034E
:100C2000820F931F90934D0380934C0320915003A8
:100C300030E02038310508F03A9540914A03509150
:100C40004B03240F351F30934B0320934A0320910D
:100C50004E0320931E0120915A0330915103230F1C
:100C600020935A032091600302C0969587952A9598
:100C7000E2F7282F2F7025B924E0969587952A95BD
:100C8000E1F78F7088B95D9A5D9880914A039091E1
:100C90004B032091600302C0969587952A95E2F751
:100CA0009401281B390BC9012F7025B934E09695A2
:100CB00087953A95E1F78F7088B95E9A5E98C091F2
:100CC0001E0175B878B86C2F609561708AE00E943B
:100CD000B500D0E0C095D095BE0176956795769524
:100CE0006795617089E00E94B500D695C7956C2F15
:100CF000617088E00E94B50060915A03C62FD0E071
:100D000061708EE00E94B500BE01769567956170B6
:100D10008FE00E94B500BE01769567957695679540
:100D2000617080E10E94B500A3E0D695C795AA95B1
:100D3000E1F76C2F617081E10E94B5005C9A5C98CC
:100D4000DFCEC627C0FF04C0617088E20E94D002D7
:100D5000C1FF07C0609152036695617081E10E94F6
:100D6000D002C5FF0DCF6091520365FB662760F985
:100D700088E20E94D00204CFE5E6F3E013821282FB
:100D800088EE93E0A0E0B0E084839583A683B783E8
:100D900083E393E09183808385EC90E0958784875B
:100DA00084EC90E09787868780EC90E0918B808B35
:100DB00081EC90E0938B828B82EC90E0958B848B1E
:100DC00086EC90E0978B868B118E128E138E148E8C
:100DD0000895F999FECF92BD81BDF89A992780B503
:100DE0000895262FF999FECF1FBA92BD81BD20BD6F
:100DF0000FB6F894FA9AF99A0FBE01960895EE0F7D
:0E0E0000FF1F0590F491E02D0994F894FFCFA8
:100E0E0057AB12000000000320FF21000000005726
:100E1E00AB12000000000120FF2100000000FF00C7
:100E2E0000000000000000120058004100320033A4
:100E3E0000420052005700360047003700270038A6
:100E4E0000480026001600130043002200530046FF
:100E5E0000510023003100560021001400240034FC
:100E6E0000440054005500450035002500150017BC
:100E7E0000181111151114180028472837281628A4
:100E8E0027000028582826282111282848283828E5
:100E9E0041112400000000000000000000000000CE
:100EAE0000000000001C001B001A001125000000AD
:100EBE000000000000000000002835282511351123
:100ECE005411551145000028512858284728371726
:100EDE000014002400340044005400550045003531
:100EEE00002500150028380000000000000000005A
:100EFE0000000000000000000000000000000000E4
:100F0E0000000000000000000000000000000000D3
:100F1E0000000000000000000000000000000000C3
:100F2E0000000000000000000000000000000000B3
:100F3E0000000000000000000000000000000000A3
:100F4E000000000000000000000000000000000093
:100F5E000000000000000000000000000000000083
:100F6E000000000000000000000000000000000073
:100F7E000000000000000000000000000000000063
:100F8E000000000000000000000000000000000053
:100F9E000000000000000000000000000000000043
:100FAE000000000000000000000000000000000033
:100FBE000000000000000000000000000000000023
:100FCE000000000000000000000000000000000013
:100FDE0000000000000000000000000000000028DB
:100FEE0000110000000000000028000000000000BA
:100FFE0000000000000000000000000000000000E3
:10100E0000000000000000000000000000000000D2
:10101E00000000000000000000000000000000AA18
:10102E00FFAAFFAAFFAAFF000000000000000000B8
:10103E0000000063026B019801B0022102A70113A8
:02104E0002009E
:00000001FF
