:100000000C9462000C948A000C948A000C948A0070
:100010000C948A000C948A000C948A000C948A0038
:100020000C948A000C948A000C948A000C944A0860
:100030000C948A000C948A000C948A000C948A0018
:100040000C94A8070C948A000C9418080C94F207DE
:100050000C948A000C948A000C948A000C948A00F8
:100060000C948A000C948A000000000023002600F3
:10007000290000000000240027002A0000000000E2
:10008000250028002B0004040404040404040202D4
:100090000202020203030303030301020408102007
:1000A0004080010204081020010204081020000012
:1000B0000008000201000003040700000000000027
:1000C0000000420B11241FBECFEFD8E0DEBFCDBF32
:1000D00024E0A8E3B3E001C01D92A535B207E1F723
:1000E00013E0A0E0B1E0EAE1F7E102C005900D9273
:1000F000A833B107D9F710E0C2E6D0E004C02197D9
:10010000FE010E94850BC136D107C9F70E947D0808
:100110000C948B0B0C940000833081F028F4813018
:1001200099F08230A9F008958730A9F08830C9F09D
:100130008430B1F4809180008F7D03C08091800075
:100140008F7780938000089584B58F7784BD08955C
:1001500084B58F7DFBCF8091B0008F778093B00006
:1001600008958091B0008F7DF9CF1F93CF93DF93D7
:10017000282F30E0F901E255FF4F8491F901E6564E
:10018000FF4FD491F901EA57FF4FC491CC23A9F056
:10019000162F81110E948C00EC2FF0E0EE0FFF1F54
:1001A000E458FF4FA591B4918FB7F894EC911111D9
:1001B00008C0D095DE23DC938FBFDF91CF911F91D4
:1001C0000895DE2BF8CFCF93DF9390E0FC01E65645
:1001D000FF4F24918A579F4FFC0184918823C9F0D7
:1001E00090E0880F991FFC01EE58FF4FA591B49144
:1001F000FC01E458FF4FC591D49161110DC09FB728
:10020000F8948C91209582238C93888128232883CD
:100210009FBFDF91CF910895623051F49FB7F8945A
:100220003C91822F809583238C93E8812E2BEFCFF6
:100230008FB7F894EC912E2B2C938FBFEACF3FB75A
:10024000F89480916F0390917003A0917103B09125
:10025000720326B5A89B05C02F3F19F00196A11D7A
:10026000B11D3FBFBA2FA92F982F8827BC01CD0100
:10027000620F711D811D911D42E0660F771F881F5F
:10028000991F4A95D1F708958F929F92AF92BF928E
:10029000CF92DF92EF92FF926B017C010E941F01CF
:1002A0004B015C01C114D104E104F104B9F00E94D6
:1002B0001F01681979098A099B09683E7340810505
:1002C000910580F321E0C21AD108E108F10888EE17
:1002D000880E83E0981EA11CB11CE4CFFF90EF9024
:1002E000DF90CF90BF90AF909F908F900895AF9286
:1002F000BF92CF92DF92EF92FF920F931F93CF9313
:10030000DF936C017B018B01040F151FEB015E0174
:10031000AE18BF08C017D10759F06991D601ED9109
:10032000FC910190F081E02DC6010995892B79F7A8
:10033000C501DF91CF911F910F91FF90EF90DF905A
:10034000CF90BF90AF900895FC01538D448D252F21
:1003500030E0842F90E0821B930B541710F0CF965F
:10036000089501970895FC01918D828D981761F091
:10037000A28DAE0FBF2FB11D5D968C91928D9F5FA8
:100380009F73928F90E008958FEF9FEF0895EF9203
:10039000FF920F931F93CF93DF937B018C01D0E0EB
:1003A000C0E02FB7F8948091B4039091B503A09169
:1003B000B603B091B7032FBF8093C0039093C103DE
:1003C000A093C203B093C30388EB93E00E94B301F0
:1003D00097FF2CC02FB7F8948091B4039091B50388
:1003E000A091B603B091B7032FBF4091C0035091C5
:1003F000C1036091C2037091C303841B950BA60BCC
:10040000B70B4091BC035091BD036091BE03709146
:10041000BF0384179507A607B707B0F2CE01DF9197
:10042000CF911F910F91FF90EF900895F801819364
:100430008F012196EC16FD0609F0B3CFEFCFFC013A
:10044000918D828D981731F0828DE80FF11D858D89
:1004500090E008958FEF9FEF0895FC01918D228D1C
:10046000892F90E0805C9F4F821B91098F739927A1
:10047000089588EB93E00E942D0221E0892B09F476
:1004800020E0822F089580E090E0892B29F00E94DF
:10049000390281110C9400000895FC01A48DA80F6D
:1004A000B92FB11DA35ABF4F2C91848D90E00196B6
:1004B0008F739927848FA689B7892C93A089B189D6
:1004C0008C91837080648C93938D848D981306C077
:1004D0000288F389E02D80818F7D80830895EF92DB
:1004E000FF920F931F93CF93DF93EC0181E0888FEE
:1004F0009B8D8C8D98131AC0E889F989808185FFBE
:1005000015C09FB7F894EE89FF896083E889F9895F
:1005100080818370806480839FBF81E090E0DF9161
:10052000CF911F910F91FF90EF900895F62E0B8DB4
:1005300010E00F5F1F4F0F731127E02E8C8D8E116F
:100540000CC00FB607FCFACFE889F989808185FFD6
:10055000F5CFCE010E944D02F1CFEB8DEC0FFD2FB8
:10056000F11DE35AFF4FF0829FB7F8940B8FEA8991
:10057000FB8980818062CFCFCF93DF93EC01888DA0
:100580008823B9F0AA89BB89E889F9898C9185FD0E
:1005900003C0808186FD0DC00FB607FCF7CF8C919C
:1005A00085FFF2CF808185FFEDCFCE010E944D0205
:1005B000E9CFDF91CF9108958EBD00000DB407FE05
:1005C000FDCF8EB5089540988BB18F738BB95E9A2D
:1005D00080915F030E94DC02409A40988BB18F7338
:1005E0008BB95F9A80915E030E94DC02409A40982A
:1005F0008BB18F738BB98BB1806C8BB980910F01EC
:100600000E94DC02409A08958BB18F738BB9409899
:10061000809155030E94DC02409A0895662329F0D8
:100620008068809355030C9404038F77FACFCF939F
:10063000DF93EB010E946F0B8883CE01DF91CF9196
:100640000895FF920F931F93CF93DF93EC01F62E43
:1006500008811981C8010E946F0BF81621F06F2DD7
:10066000C8010E94770BCE01DF91CF911F910F91AE
:10067000FF900895CF93DF9300D0CDB7DEB780EF22
:1006800093E09A8389836091B303CE0101960E941F
:10069000210383EB93E00F900F90DF91CF910895AA
:1006A000EF92FF920F931F93CF93DF9300D0CDB7BC
:1006B000DEB703E713E0835793407C01C701800F47
:1006C000911F9A838983F80161918F01CE01019670
:1006D0000E942103F3E0033B1F0781F783E793E0C8
:1006E0000F900F90DF91CF911F910F91FF90EF909E
:1006F00008958F3F910511F00E945003109253030B
:10070000809181008B6F80938100809107018460CC
:10071000809307014BE050E060E071E088EB93E0EC
:100720000E9477011092520308950F931F93CF9365
:10073000DF9300D0CDB7DEB78B019A838983FB01AD
:100740006081CE0101960E942103C8010F900F9095
:10075000DF91CF911F910F910895CF93DF93C62F13
:10076000D82FD627D0FF04C0617088E20E940E0304
:10077000D1FF06C0C1FB662760F981E10E940E032C
:10078000D5FF06C0C5FB662760F988E20E940E030C
:1007900080915303882379F080915203811102C024
:1007A000CC2349F0E82FF0E0ED58FC4FC068C0833F
:1007B0008F5F80935203DF91CF9108950F931F9322
:1007C000CF93DF93882309F410C1162FC82F662317
:1007D00009F437C3893381F59091070191FD2AC04F
:1007E0009260909307014BE050E060E071E088EB8D
:1007F00093E00E9477018C2F90E0FC01EE0FFF1F29
:10080000EA5EFE4F20812A3109F042C061E083E1B7
:100810000E94E30060E083E10E94B50081E08093E4
:100820006D038FEF80930F01DF91CF911F910F9197
:100830000C94E3029D7FD5CF8C34E9F681E9809357
:1008400055030E94040369E170E080E090E00E949B
:10085000440185EB809355030E94040369E170E035
:1008600080E090E00E94440185E3809355030E945C
:10087000040369E170E080E090E00E94440185E9B2
:1008800080935503DF91CF911F910F910C94040336
:100890002B3161F461E082E10E94E30060E082E1DB
:1008A000DF91CF911F910F910C94B5002B3231F451
:1008B00061E082E10E94E30061E0F1CF2C3139F484
:1008C00061E081E10E94E30060E081E1E9CF2C3248
:1008D00031F461E081E10E94E30061E0F6CF209114
:1008E000650327FF03C028602093650320916503FB
:1008F000322F387023FF7EC0CE3141F41092B30303
:10090000DF91CF911F910F910C943A03CF3121F4D5
:1009100081E08093B303F4CFC03211F482E0F9CFC9
:10092000C13211F483E0F5CFC73281F48091100118
:1009300091E089278093100160E171E081EF93E0FD
:10094000DF91CF911F910F910C949503C63259F40A
:100950008091110191E089278093110161E171E09B
:1009600082EF93E0EDCFCA3209F044C010928000CC
:100970001092810088E09DE3909389008093880025
:1009800080918100886080938100809181008460E3
:100990008093810080916F00826080936F00E3E715
:1009A000F3E0119283E0E33BF807D9F710924B0391
:1009B00010924C0310924D0310924E0310924F036D
:1009C0001092500310924303109244031092450377
:1009D00010924603109247031092480381E08093DF
:1009E00053031092520310924003DF91CF911F9155
:1009F0000F910895C93261F420915303222341F0ED
:100A00008FEF90E0DF91CF911F910F910C947903BC
:100A100026EC2C0F2C3008F00DC12091530321112E
:100A2000E4CF66E0880F991F6A95E1F710925203B0
:100A300010924B0310924C0310924D0310924E03F0
:100A400010924F031092500303E713E0EC01C35FD1
:100A5000D141CE01800F911F0E946F0BF80181934D
:100A60008F01F3E0033B1F07A1F7C0917303CC2371
:100A700009F4BBCFE0915203F0E0ED58FC4FC08188
:100A8000C7FF17C0DC2FDF7780914003D81719F01C
:100A90006D2F0E94AD03D0934003809152038F5F6E
:100AA0008093520362E370E080E090E00E94440192
:100AB000DECF80914B03C8133EC060E08C2F0E94B4
:100AC000DE0310924B0381E090914C03C91307C0E1
:100AD00060E08C2F0E94DE0310924C0381E0909125
:100AE0004D03C91307C060E08C2F0E94DE031092F3
:100AF0004D0381E090914E03C91307C060E08C2F35
:100B00000E94DE0310924E0381E090914F03C913BF
:100B100007C060E08C2F0E94DE0310924F0381E03B
:100B2000D0915003CD1309C060E08C2F0E94DE03EA
:100B300010925003B2CF80E0C7CF8111AECFAC2F5F
:100B4000B0E0AA0FBB1FAA5EBE4F8C91882389F02C
:100B5000E0915103F0E0EE0FFF1FEA5EFE4F90813F
:100B6000992311F08917D1F09181992311F08917F8
:100B7000A9F011968C918823B9F0E0915103F0E02F
:100B8000EE0FFF1FEA5EFE4F9081992311F0891747
:100B900029F09181992341F0891306C062E370E046
:100BA00080E090E00E94440180914B03811121C0BC
:100BB000C0934B0361E080914B030E94DE0361E030
:100BC00080914C030E94DE0361E080914D030E94FE
:100BD000DE0361E080914E030E94DE0361E08091BC
:100BE0004F030E94DE0361E0809150030E94DE0308
:100BF00054CF80914C03811103C0C0934C03DACFD2
:100C000080914D03811103C0C0934D03D3CF8091D8
:100C10004E03811103C0C0934E03CCCF80914F038C
:100C2000811103C0C0934F03C5CFD111C3CFC0936F
:100C30005003C0CF3111D9CE80915303882309F4DA
:100C400045C0C23008F442C050914303C51304C0EC
:100C500080913A031817D1F180914403C81304C05E
:100C600090913B03191791F120914503C21304C0E1
:100C700090913C03191751F190914603C91304C098
:100C800030913D03131711F130914703C31304C092
:100C900040913E031417D1F040914803C41304C09F
:100CA00060913F03161791F0C51336C01111E5C0CE
:100CB00080915203E82FF0E0ED58FC4FC0838F5F26
:100CC0008093520310923A0310924303C09351034E
:100CD000D0E0CC0FDD1FCA5EDE4F8881882319F07B
:100CE000612F0E940E038981882309F47ECE612F33
:100CF000DF91CF911F910F910C940E03911175CE3E
:100D0000CC3409F099CF85E3809355030E94040306
:100D10000E94040385E1B4CDC81311C01111AFC006
:100D200080915203E82FF0E0ED58FC4FC0838F5FB5
:100D30008093520310923B0310924403C7CFC21317
:100D400011C011119EC080915203E82FF0E0ED58C0
:100D5000FC4FC0838F5F8093520310923C0310922C
:100D60004503B4CFC91311C011118DC08091520336
:100D7000E82FF0E0ED58FC4FC0838F5F8093520363
:100D800010923D0310924603A1CFC31311C011115D
:100D90007CC080915203E82FF0E0ED58FC4FC083F7
:100DA0008F5F8093520310923E03109247038ECFC1
:100DB000C41311C011116BC080915203E82FF0E0F1
:100DC000ED58FC4FC0838F5F8093520310923F0316
:100DD000109248037BCF51115DC0112309F464C008
:100DE000C093430381E080933A0380915203E82F3C
:100DF000F0E0ED58FC4FC0838F5F8093520366CFC5
:100E0000211109C0112309F453C0C093450381E0A7
:100E100080933C03EACF911109C0112309F44AC021
:100E2000C093460381E080933D03DFCF311145C07D
:100E3000112309F44BCFC093470381E080933E0315
:100E4000D4CF80916503982F987083FF03C0CA3276
:100E500009F4CBCD86EC8C0F8C3008F04FCF80910D
:100E60005303882309F4C1CDCA53DD0BCE0126E01C
:100E7000880F991F2A95E1F7C5CDC81302C0C21388
:100E800071CFC91382CFC31393CFC413A4CF5523FB
:100E900009F4A6CF8111B4CF112341F0C0934403CC
:100EA00081E080933B03A1CF811112C02111B3CF08
:100EB0009111BCCF332309F409CF411107CF11237E
:100EC00009F404CFC093480381E080933F038DCFA2
:100ED0002111F0CFEDCF8823D1F1E82FF0E0EE0F14
:100EE000FF1FEA5EFE4F90819A3139F460E083E1A2
:100EF0000E94E30010926D0308959B3121F460E09D
:100F000082E10C94E3009B32D1F39C3119F460E050
:100F100081E1F7CF9C32D9F3909167039817B9F02C
:100F200090916803891799F090916903891779F076
:100F300090916A03891759F090916B03891739F0E2
:100F400090916C03891719F060E00C94DE0308950A
:100F50001F920F920FB60F9211242F933F938F93EE
:100F60009F93AF93BF938091B4039091B503A091E9
:100F7000B603B091B70330916E0323E0230F2D37F2
:100F800058F50196A11DB11D20936E038093B40303
:100F90009093B503A093B603B093B70380916F030A
:100FA00090917003A0917103B09172030196A11DFD
:100FB000B11D80936F0390937003A0937103B0935E
:100FC0007203BF91AF919F918F913F912F910F909D
:100FD0000FBE0F901F90189526E8230F0296A11DB3
:100FE000B11DD2CF1F920F920FB60F9211242F93E3
:100FF0003F934F935F936F937F938F939F93AF93A1
:10100000BF93EF93FF9388EB93E00E944D02FF9113
:10101000EF91BF91AF919F918F917F916F915F9170
:101020004F913F912F910F900FBE0F901F901895E9
:101030001F920F920FB60F9211242F938F939F93AD
:10104000EF93FF93E091C803F091C9038081E09191
:10105000CE03F091CF0382FD1BC090818091D1031C
:101060008F5F8F732091D203821741F0E091D103FB
:10107000F0E0E854FC4F958F8093D103FF91EF91FE
:101080009F918F912F910F900FBE0F901F901895E9
:101090008081F4CF1F920F920FB60F9211242F93DD
:1010A0003F934F935F936F937F938F939F93AF93F0
:1010B000BF93EF93FF938091070182FD1CC0846072
:1010C000809307014BE050E060E071E088EB93E033
:1010D0000E947701FF91EF91BF91AF919F918F9106
:1010E0007F916F915F914F913F912F910F900FBE24
:1010F0000F901F9018958B7FE3CFCF93DF9300D095
:10110000CDB7DEB7789484B5826084BD84B5816044
:1011100084BD85B5826085BD85B5816085BD8091C2
:101120006E00816080936E0010928100809181003A
:101130008260809381008091810081608093810032
:10114000809180008160809380008091B1008460F4
:101150008093B1008091B00081608093B000809155
:101160007A00846080937A0080917A008260809314
:101170007A0080917A00816080937A0080917A0071
:10118000806880937A001092C10061E083E10E9440
:10119000E30060E083E10E94B500F89410928000C3
:1011A0001092810088E09DE39093890080938800ED
:1011B0008091810088608093810080916F008260BF
:1011C00080936F0078948FEF80930F0160E082E14D
:1011D0000E94E30060E081E10E94E30061E080E1C1
:1011E0000E94E30061E08FE00E94E30061E086E09E
:1011F0000E94E30061E087E00E94E30061E08EE08E
:101200000E94E30060E086E00E94B50060E087E0B5
:101210000E94B50060E08EE00E94B50080E58CBDC4
:1012200081E08DBD1FB7F89480915403811127C0D0
:10123000E0E9F0E08491E4EAF0E09491E82FF0E056
:10124000EE0FFF1FEE58FF4FA591B491EC91E923EB
:1012500021F461E08AE00E94B50061E08AE00E942A
:10126000E3008CB580618CBD8CB580648CBD61E081
:101270008DE00E94E30061E08BE00E94E30080913A
:1012800054038F5F809354031FBF8FEF93E00E943E
:101290006F0B8433D1F1E3E7F3E0119223E0E33BFA
:1012A000F207D9F710E000E0C8010E945003005C8B
:1012B0001F4F011533E01307B9F780EF93E09A83CE
:1012C000898360E0CE0101960E94210381EF93E0C3
:1012D0009A83898360E0CE0101960E94210311E088
:1012E0001983BE016F5F7F4F81EF93E00E949503EA
:1012F0001983BE016F5F7F4F82EF93E00E949503D9
:1013000064E38FEF93E00E94770B8FEF80930F01E0
:1013100080935E0380935F031092550364E670E050
:1013200080E090E00E9444010E94E3026CE271E0E0
:1013300080E090E00E94440162E083E10E94E300CB
:1013400080EF93E00E946F0B8093B30360E171E044
:1013500081EF93E00E94170361E171E082EF93E077
:101360000E941703E3E7F3E083EB93E011928E17FB
:101370009F07E1F79EE1909373032FE1209374039D
:1013800080E2809375032093760390937703809394
:101390007803E091C803F091C90382E08083E09173
:1013A000C403F091C5031082E091C603F091C70316
:1013B00080E180831092D003E091CC03F091CD03C3
:1013C00086E08083E091CA03F091CB038081806145
:1013D0008083E091CA03F091CB0380818860808391
:1013E000E091CA03F091CB03808180688083E09113
:1013F000CA03F091CB0380818F7D808380910701A8
:101400008460809307014BE050E060E071E088EB7E
:1014100093E00E94770191ECE92E90E0F92E2DEAFD
:10142000C22E20E0D22E39E9A32E30E0B32E88243C
:101430008A94912C00E010E066246A9480916D03F8
:1014400081110CC0F7018491F6017490F50154905C
:1014500051102CC060920F010E94E30288EB93E0D0
:101460000E942D020397C4F088EB93E00E94B30121
:101470008735910589F488EB93E00E94B3018B3A9C
:10148000910551F488EB93E00E94B30181309105FE
:10149000E9F0029709F47DC00115110579F20E9467
:1014A0003902882359F20E940000C8CF81110E949E
:1014B0008C00E52DF0E0EE0FFF1FE859FF4FA591DE
:1014C000B4918C91782209F4C5CFC8CF68E070E060
:1014D00085E693E00E94C701809158030E946B0744
:1014E000809159030E946B0780915A030E946B07F9
:1014F00080915B030E946B0780915C030E946B07E5
:1015000080915D030E946B07609165038091560393
:101510006813B3C061E0809167030E94DE0361E05D
:10152000809168030E94DE0361E0809169030E945C
:10153000DE0361E080916A030E94DE0361E0809136
:101540006B030E94DE0361E080916C030E94DE0366
:1015500080916503809356038091660380935703BF
:1015600080916703809358038091680380935903A7
:101570008091690380935A0380916A0380935B038F
:1015800080916B0380935C0380916C0380935D0377
:1015900083CF64E070E082E191E00E94C701809116
:1015A000130190E08038910508F09A95209163032B
:1015B00030916403280F391F309364032093630331
:1015C0008091140190E08038910508F09A9540913F
:1015D000610350916203840F951F9093620380937F
:1015E0006103609112014091150150916003709167
:1015F0001101772309F444C0541B452F4093600325
:101600004091B303042E02C0369527950A94E2F761
:1016100020935F0302C0969587954A95E2F794015F
:10162000281B390B20935E03562F5170462F4270B2
:10163000809110018823B9F0262F20952170822FE8
:1016400090E0411103C02260822F90E062FF84602D
:10165000909160039295907F890F886080930F012D
:101660000E94E30219CF31E020E0411130E0832FE6
:10167000922F5111EBCF8260E9CF0E94AD034ACF88
:10168000450FBCCFE8EBF3E01382128288EE93E0C3
:10169000A0E0B0E084839583A683B7838AE293E0D9
:1016A0009183808385EC90E09587848784EC90E03B
:1016B0009787868780EC90E0918B808B81EC90E01F
:1016C000938B828B82EC90E0958B848B86EC90E000
:1016D000978B868B118E128E138E148E0895F99926
:1016E000FECF92BD81BDF89A992780B50895262F27
:1016F000F999FECF1FBA92BD81BD20BD0FB6F894F7
:10170000FA9AF99A0FBE01960895EE0FFF1F059001
:0A171000F491E02D0994F894FFCF46
:10171A0057AB12000000000020FF2100000000FF6C
:10172A000101FF0000FF000000000000000012009D
:10173A005800410032003300420052005700360080
:10174A00470037002700380048002600160013001B
:10175A004300220053004600510023003100560086
:10176A0021001400240034004400540055004500B0
:10177A00350025001500170018111115111418004D
:10178A0028472837281628270000285828262821DD
:10179A001128284828382841112400000000000098
:1017AA000000000000000000000000001C001B00F8
:1017BA001A001125000000000000000000000000CF
:1017CA002835282511351154115511450000285185
:1017DA0028582847283717001400240034004400EA
:1017EA005400550045003500250015002838000032
:1017FA0000000000000000000000000000000000DF
:10180A0000000000000000000000000000000000CE
:10181A0000000000000000000000000000000000BE
:10182A0000000000000000000000000000000000AE
:10183A00000000000000000000000000000000009E
:10184A00000000000000000000000000000000008E
:10185A00000000000000000000000000000000007E
:10186A00000000000000000000000000000000006E
:10187A00000000000000000000000000000000005E
:10188A00000000000000000000000000000000004E
:10189A00000000000000000000000000000000003E
:1018AA00000000000000000000000000000000002E
:1018BA00000000000000000000000000000000001E
:1018CA00000000000000000000000000000000000E
:1018DA0000000000000000000000000000000000FE
:1018EA0000000000000028001100000000000000B5
:1018FA0028000000000000000000000000000000B6
:10190A0000000000000000000000000000000000CD
:10191A0000000000000000000000000000000000BD
:10192A00000000000000AAFFAAFFAAFFAAFF000009
:10193A00000000000000000000006F027701A4010F
:08194A00BC022D02B3011F02D3
:00000001FF
