:100000000C9462000C948A000C948A000C948A0070
:100010000C948A000C948A000C948A000C948A0038
:100020000C948A000C948A000C948A000C9410089A
:100030000C948A000C948A000C948A000C948A0018
:100040000C946E070C948A000C94DE070C94B8078D
:100050000C948A000C948A000C948A000C948A00F8
:100060000C948A000C948A000000000023002600F3
:10007000290000000000240027002A0000000000E2
:10008000250028002B0004040404040404040202D4
:100090000202020203030303030301020408102007
:1000A0004080010204081020010204081020000012
:1000B0000008000201000003040700000000000027
:1000C0000000FF0A11241FBECFEFD8E0DEBFCDBF76
:1000D00024E0A8E3B3E001C01D92A535B207E1F723
:1000E00013E0A0E0B1E0E4E9F6E102C005900D9272
:1000F000A833B107D9F710E0C2E6D0E004C02197D9
:10010000FE010E94420BC136D107C9F70E94430885
:100110000C94480B0C940000833081F028F481305B
:1001200099F08230A9F008958730A9F08830C9F09D
:100130008430B1F4809180008F7D03C08091800075
:100140008F7780938000089584B58F7784BD08955C
:1001500084B58F7DFBCF8091B0008F778093B00006
:1001600008958091B0008F7DF9CF1F93CF93DF93D7
:10017000282F30E0F901E255FF4F8491F901E6564E
:10018000FF4FD491F901EA57FF4FC491CC23A9F056
:10019000162F81110E948C00EC2FF0E0EE0FFF1F54
:1001A000E458FF4FA591B4918FB7F894EC911111D9
:1001B00008C0D095DE23DC938FBFDF91CF911F91D4
:1001C0000895DE2BF8CFCF93DF9390E0FC01E65645
:1001D000FF4F24918A579F4FFC0184918823C9F0D7
:1001E00090E0880F991FFC01EE58FF4FA591B49144
:1001F000FC01E458FF4FC591D49161110DC09FB728
:10020000F8948C91209582238C93888128232883CD
:100210009FBFDF91CF910895623051F49FB7F8945A
:100220003C91822F809583238C93E8812E2BEFCFF6
:100230008FB7F894EC912E2B2C938FBFEACF3FB75A
:10024000F89480916F0390917003A0917103B09125
:10025000720326B5A89B05C02F3F19F00196A11D7A
:10026000B11D3FBFBA2FA92F982F8827BC01CD0100
:10027000620F711D811D911D42E0660F771F881F5F
:10028000991F4A95D1F708958F929F92AF92BF928E
:10029000CF92DF92EF92FF926B017C010E941F01CF
:1002A0004B015C01C114D104E104F104B9F00E94D6
:1002B0001F01681979098A099B09683E7340810505
:1002C000910580F321E0C21AD108E108F10888EE17
:1002D000880E83E0981EA11CB11CE4CFFF90EF9024
:1002E000DF90CF90BF90AF909F908F900895AF9286
:1002F000BF92CF92DF92EF92FF920F931F93CF9313
:10030000DF936C017B018B01040F151FEB015E0174
:10031000AE18BF08C017D10759F06991D601ED9109
:10032000FC910190F081E02DC6010995892B79F7A8
:10033000C501DF91CF911F910F91FF90EF90DF905A
:10034000CF90BF90AF900895FC01538D448D252F21
:1003500030E0842F90E0821B930B541710F0CF965F
:10036000089501970895FC01918D828D981761F091
:10037000A28DAE0FBF2FB11D5D968C91928D9F5FA8
:100380009F73928F90E008958FEF9FEF0895EF9203
:10039000FF920F931F93CF93DF937B018C01D0E0EB
:1003A000C0E02FB7F8948091B4039091B503A09169
:1003B000B603B091B7032FBF8093C0039093C103DE
:1003C000A093C203B093C30388EB93E00E94B301F0
:1003D00097FF2CC02FB7F8948091B4039091B50388
:1003E000A091B603B091B7032FBF4091C0035091C5
:1003F000C1036091C2037091C303841B950BA60BCC
:10040000B70B4091BC035091BD036091BE03709146
:10041000BF0384179507A607B707B0F2CE01DF9197
:10042000CF911F910F91FF90EF900895F801819364
:100430008F012196EC16FD0609F0B3CFEFCFFC013A
:10044000918D828D981731F0828DE80FF11D858D89
:1004500090E008958FEF9FEF0895FC01918D228D1C
:10046000892F90E0805C9F4F821B91098F739927A1
:10047000089588EB93E00E942D0221E0892B09F476
:1004800020E0822F089580E090E0892B29F00E94DF
:10049000390281110C9400000895FC01A48DA80F6D
:1004A000B92FB11DA35ABF4F2C91848D90E00196B6
:1004B0008F739927848FA689B7892C93A089B189D6
:1004C0008C91837080648C93938D848D981306C077
:1004D0000288F389E02D80818F7D80830895EF92DB
:1004E000FF920F931F93CF93DF93EC0181E0888FEE
:1004F0009B8D8C8D98131AC0E889F989808185FFBE
:1005000015C09FB7F894EE89FF896083E889F9895F
:1005100080818370806480839FBF81E090E0DF9161
:10052000CF911F910F91FF90EF900895F62E0B8DB4
:1005300010E00F5F1F4F0F731127E02E8C8D8E116F
:100540000CC00FB607FCFACFE889F989808185FFD6
:10055000F5CFCE010E944D02F1CFEB8DEC0FFD2FB8
:10056000F11DE35AFF4FF0829FB7F8940B8FEA8991
:10057000FB8980818062CFCFCF93DF93EC01888DA0
:100580008823B9F0AA89BB89E889F9898C9185FD0E
:1005900003C0808186FD0DC00FB607FCF7CF8C919C
:1005A00085FFF2CF808185FFEDCFCE010E944D0205
:1005B000E9CFDF91CF9108958EBD00000DB407FE05
:1005C000FDCF8EB50895662369F08068809355034A
:1005D0008BB18F738BB94098809155030E94DC02D8
:1005E000409A08958F77F2CF40988BB18F738BB973
:1005F0005E9A80915F030E94DC02409A40988BB122
:100600008F738BB95F9A80915E030E94DC02409ADF
:1006100040988BB18F738BB98BB1806C8BB9809103
:1006200010010E94DC02409A0895CF93DF93EB0102
:100630000E942C0B8883CE01DF91CF910895FF9209
:100640000F931F93CF93DF93EC01F62E088119814E
:10065000C8010E942C0BF81621F06F2DC8010E94D2
:10066000340BCE01DF91CF911F910F91FF90089530
:10067000CF93DF9300D0CDB7DEB780EF93E09A83BE
:1006800089836091B303CE0101960E941F0383EB1F
:1006900093E00F900F90DF91CF910895EF92FF922A
:1006A0000F931F93CF93DF9300D0CDB7DEB703E74F
:1006B00013E0835793407C01C701800F911F9A83F9
:1006C0008983F80161918F01CE0101960E941F0379
:1006D000F3E0033B1F0781F783E793E00F900F9050
:1006E000DF91CF911F910F91FF90EF9008958F3F71
:1006F000910511F00E944E031092530380918100E6
:100700008B6F80938100809107018B7F809307011D
:100710004BE050E060E071E088EB93E00E947701ED
:100720001092520308950F931F93CF93DF9300D03D
:10073000CDB7DEB78B019A838983FB016081CE013F
:1007400001960E941F03C8010F900F90DF91CF9177
:100750001F910F910895CF93DF93C62FD82FD627DF
:10076000D0FF04C0617088E20E94E302D1FF06C09E
:10077000C1FB662760F981E10E94E302D5FF06C054
:10078000C5FB662760F988E20E94E302809153036B
:10079000882379F080915203811102C0CC2349F063
:1007A000E82FF0E0ED58FC4FC068C0838F5F809366
:1007B0005203DF91CF910895EF92FF920F931F9311
:1007C000CF93DF93882309F4D7C0162F662309F44B
:1007D000FFC2282F30E0F901EE0FFF1FEA5EFE4F47
:1007E00090819A31B1F461E083E10E94E30060E01E
:1007F00083E10E94B50081E080936D038FEF8093C9
:100800001001DF91CF911F910F91FF90EF900C9409
:10081000F4029B3271F461E082E10E94E30060E047
:1008200082E1DF91CF911F910F91FF90EF900C9497
:10083000B5009B3131F461E082E10E94E30061E0A8
:10084000EFCF9C3139F461E081E10E94E30060E088
:1008500081E1E7CF9C3231F461E081E10E94E30065
:1008600061E0F6CF9091650397FF03C09860909385
:10087000650390916503492F487093FF84C08E31C2
:1008800051F41092B303DF91CF911F910F91FF901C
:10089000EF900C9438038F3121F481E08093B303FF
:1008A000F2CF803211F482E0F9CF813211F483E08B
:1008B000F5CF873291F48091110191E089278093DF
:1008C000110161E171E081EF93E0DF91CF911F9120
:1008D0000F91FF90EF900C949303863259F480911E
:1008E0000F0191E0892780930F016FE071E082EFA3
:1008F00093E0EBCF8A3209F046C01092800010924C
:10090000810088E09DE39093890080938800809126
:100910008100886080938100809181008460809351
:10092000810080916F00826080936F00E3E7F3E0C5
:10093000119283E0E33BF807D9F710924B03109232
:100940004C0310924D0310924E0310924F031092DD
:1009500050031092430310924403109245031092E7
:100960004603109247031092480381E0809353039B
:100970001092520310924003DF91CF911F910F917B
:10098000FF90EF900895893271F490915303992369
:1009900051F08FEF90E0DF91CF911F910F91FF9079
:1009A000EF900C94770396EC980F9C3008F010C1F0
:1009B000809153038111E0CF66E0220F331F6A95C7
:1009C000E1F71092520310924B0310924C031092D5
:1009D0004D0310924E0310924F031092500373EB8D
:1009E000E72E73E0F72E03E713E0E901C35FD1417F
:1009F000CE01800F911F0E942C0BF80181938F0173
:100A0000EE16FF06A9F7C0917303CC2309F4B4CF07
:100A1000E0915203F0E0ED58FC4FC081C7FF17C0D2
:100A2000DC2FDF7780914003D81719F06D2F0E94DB
:100A3000AB03D0934003809152038F5F80935203A6
:100A400062E370E080E090E00E944401DECF80919C
:100A50004B03C8133EC060E08C2F0E94DC03109251
:100A60004B0381E090914C03C91307C060E08C2FC9
:100A70000E94DC0310924C0381E090914D03C91356
:100A800007C060E08C2F0E94DC0310924D0381E0D0
:100A900090914E03C91307C060E08C2F0E94DC03C5
:100AA00010924E0381E090914F03C91307C060E09C
:100AB0008C2F0E94DC0310924F0381E0D0915003F1
:100AC000CD1309C060E08C2F0E94DC03109250030C
:100AD000B2CF80E0C7CF8111AECFAC2FB0E0AA0F6C
:100AE000BB1FAA5EBE4F8C91882389F0E091510311
:100AF000F0E0EE0FFF1FEA5EFE4F9081992311F0A8
:100B00008917D1F09181992311F08917A9F01196D5
:100B10008C918823B9F0E0915103F0E0EE0FFF1FB4
:100B2000EA5EFE4F9081992311F0891729F0918197
:100B3000992341F0891306C062E370E080E090E001
:100B40000E94440180914B03811121C0C0934B034B
:100B500061E080914B030E94DC0361E080914C03D3
:100B60000E94DC0361E080914D030E94DC0361E0A0
:100B700080914E030E94DC0361E080914F030E944C
:100B8000DC0361E0809150030E94DC0354CF80912C
:100B90004C03811103C0C0934C03DACF80914D0305
:100BA000811103C0C0934D03D3CF80914E038111B7
:100BB00003C0C0934E03CCCF80914F03811103C07B
:100BC000C0934F03C5CFD111C3CFC0935003C0CF43
:100BD0004111D2CE90915303992309F445C082303C
:100BE00008F442C060914303861304C090913A0315
:100BF0001917D1F140914403841304C090913B0331
:100C0000191791F120914503821304C090913C0380
:100C1000191751F190914603891304C030913D0397
:100C2000131711F130914703831304C050913E0311
:100C30001517D1F050914803851304C070913F03FC
:100C4000171791F086132FC01111DDC09091520338
:100C5000E92FF0E0ED58FC4F80839F5F90935203A3
:100C600010923A031092430380935103C82FD0E0AF
:100C7000CC0FDD1FCA5EDE4F8881882319F0612FFB
:100C80000E94E3028981882309F476CE612FDF91E7
:100C9000CF911F910F91FF90EF900C94E3022223CC
:100CA00009F498CF69CE841311C01111AEC0909190
:100CB0005203E92FF0E0ED58FC4F80839F5F909343
:100CC000520310923B0310924403CECF821311C003
:100CD00011119DC090915203E92FF0E0ED58FC4FA7
:100CE00080839F5F9093520310923C0310924503C0
:100CF000BBCF891311C011118CC090915203E92F01
:100D0000F0E0ED58FC4F80839F5F90935203109268
:100D10003D0310924603A8CF831311C011117BC06D
:100D200090915203E92FF0E0ED58FC4F80839F5FD4
:100D30009093520310923E031092470395CF851370
:100D400011C011116AC090915203E92FF0E0ED58E3
:100D5000FC4F80839F5F9093520310923F03109249
:100D6000480382CF61115CC0112309F463C08093F2
:100D7000430391E090933A0390915203E92FF0E0FE
:100D8000ED58FC4F80839F5F909352036DCF2111EC
:100D900009C0112309F452C08093450391E0909358
:100DA0003C03EACF911109C0112309F449C0809393
:100DB000460391E090933D03DFCF311144C01123EE
:100DC00009F452CF8093470391E090933E03D4CF30
:100DD00090916503292F287093FF03C08A3209F48C
:100DE000CBCD96EC980F9C3008F059CF90915303DF
:100DF000992309F4C1CD8A53990B26E0880F991FD6
:100E00002A95E1F7C8CD841302C0821372CF8913EB
:100E100083CF831394CF8513A5CF662309F4A7CF7F
:100E20004111B5CF112341F08093440391E0909399
:100E30003B03A2CF411112C02111B4CF9111BDCFFC
:100E4000332309F411CF51110FCF112309F40CCF23
:100E50008093480391E090933F038ECF2111F0CF10
:100E6000EDCF8823D1F1E82FF0E0EE0FFF1FEA5E0F
:100E7000FE4F90819A3139F460E083E10E94E300F3
:100E800010926D0308959B3121F460E082E10C948F
:100E9000E3009B32D1F39C3119F460E081E1F7CF9C
:100EA0009C32D9F3909167039817B9F09091680339
:100EB000891799F090916903891779F090916A03E5
:100EC000891759F090916B03891739F090916C0351
:100ED000891719F060E00C94DC0308951F920F92BB
:100EE0000FB60F9211242F933F938F939F93AF933D
:100EF000BF938091B4039091B503A091B603B091D4
:100F0000B70330916E0323E0230F2D3758F5019678
:100F1000A11DB11D20936E038093B4039093B5037C
:100F2000A093B603B093B70380916F0390917003C1
:100F3000A0917103B09172030196A11DB11D809320
:100F40006F0390937003A0937103B0937203BF91EA
:100F5000AF919F918F913F912F910F900FBE0F9066
:100F60001F90189526E8230F0296A11DB11DD2CF20
:100F70001F920F920FB60F9211242F933F934F930E
:100F80005F936F937F938F939F93AF93BF93EF93F1
:100F9000FF9388EB93E00E944D02FF91EF91BF9188
:100FA000AF919F918F917F916F915F914F913F9101
:100FB0002F910F900FBE0F901F9018951F920F92B8
:100FC0000FB60F9211242F938F939F93EF93FF935C
:100FD000E091C803F091C9038081E091CE03F091C4
:100FE000CF0382FD1BC090818091D1038F5F8F73EF
:100FF0002091D203821741F0E091D103F0E0E85450
:10100000FC4F958F8093D103FF91EF919F918F912A
:101010002F910F900FBE0F901F9018958081F4CFE5
:101020001F920F920FB60F9211242F933F934F935D
:101030005F936F937F938F939F93AF93BF93EF9340
:10104000FF938091070182FD1CC08460809307019B
:101050004BE050E060E071E088EB93E00E947701A4
:10106000FF91EF91BF91AF919F918F917F916F9180
:101070005F914F913F912F910F900FBE0F901F9056
:1010800018958B7FE3CFCF93DF9300D0CDB7DEB73A
:10109000789484B5826084BD84B5816084BD85B553
:1010A000826085BD85B5816085BD80916E0081605F
:1010B00080936E0010928100809181008260809305
:1010C0008100809181008160809381008091800007
:1010D0008160809380008091B10084608093B10032
:1010E0008091B00081608093B00080917A0084602C
:1010F00080937A0080917A00826080937A00809158
:101100007A00816080937A0080917A008068809371
:101110007A001092C10061E083E10E94E30060E088
:1011200083E10E94B500F894109280001092810033
:1011300088E09DE3909389008093880080918100EE
:1011400088608093810080916F00826080936F003F
:1011500078948FEF8093100160E082E10E94E300B9
:1011600060E081E10E94E30061E080E10E94E30031
:1011700061E08FE00E94E30061E086E00E94E3000E
:1011800061E087E00E94E30061E08EE00E94E300FE
:1011900060E086E00E94B50060E087E00E94B50054
:1011A00060E08EE00E94B50080E58CBD81E08DBDE1
:1011B0001FB7F89480915403811127C0E0E9F0E053
:1011C0008491E4EAF0E09491E82FF0E0EE0FFF1F45
:1011D000EE58FF4FA591B491EC91E92321F461E021
:1011E0008AE00E94B50061E08AE00E94E3008CB5CD
:1011F00080618CBD8CB580648CBD61E08DE00E9407
:10120000E30061E08BE00E94E300809154038F5F74
:10121000809354031FBF8FEF93E00E942C0B843305
:10122000D1F1E3E7F3E0119243E0E33BF407D9F7B0
:1012300010E000E0C8010E944E03005C1F4F011542
:1012400053E01507B9F780EF93E09A83898360E054
:10125000CE0101960E941F0381EF93E09A83898358
:1012600060E0CE0101960E941F0311E01983BE01C8
:101270006F5F7F4F81EF93E00E9493031983BE015C
:101280006F5F7F4F82EF93E00E94930364E38FEFE1
:1012900093E00E94340B8FEF809310018AE08093DB
:1012A0005E0380935F031092550364E670E080E074
:1012B00090E00E9444010E94F4026CE271E080E040
:1012C00090E00E94440162E083E10E94E30080EF2D
:1012D00093E00E942C0B8093B30361E171E081EFF6
:1012E00093E00E9415036FE071E082EF93E00E94AB
:1012F0001503E3E7F3E083EB93E011928E179F076A
:10130000E1F79EE1909373032FE12093740380E251
:1013100080937503209376039093770380937803EB
:10132000E091C803F091C90382E08083E091C40397
:10133000F091C5031082E091C603F091C70380E1EC
:1013400080831092D003E091CC03F091CD0386E02E
:101350008083E091CA03F091CB0380818061808318
:10136000E091CA03F091CB03808188608083E09193
:10137000CA03F091CB03808180688083E091CA0327
:10138000F091CB0380818F7D808380910701816004
:10139000809307014BE050E060E071E088EB93E060
:1013A0000E94770191ECE92E90E0F92E2DEAC22EF1
:1013B00020E0D22E39E9A32E30E0B32E88248A947F
:1013C000912C00E010E066246A9480916D038111F5
:1013D0000CC0F7018491F6017490F50154905110FE
:1013E0002CC0609210010E94F40288EB93E00E94EE
:1013F0002D020397C4F088EB93E00E94B301873578
:10140000910589F488EB93E00E94B3018B3A910532
:1014100051F488EB93E00E94B30181309105E9F02B
:10142000029709F47DC00115110579F20E94390275
:10143000882359F20E940000C8CF81110E948C00BD
:10144000E52DF0E0EE0FFF1FE859FF4FA591B49195
:101450008C91782209F4C5CFC8CF68E070E085E6AA
:1014600093E00E94C701809158030E943107809148
:1014700059030E94310780915A030E9431078091DD
:101480005B030E94310780915C030E9431078091C9
:101490005D030E94310760916503809156036813D4
:1014A000ABC061E0809167030E94DC0361E0809142
:1014B00068030E94DC0361E0809169030E94DC0301
:1014C00061E080916A030E94DC0361E080916B031C
:1014D0000E94DC0361E080916C030E94DC03809138
:1014E0006503809356038091660380935703809130
:1014F0006703809358038091680380935903809118
:10150000690380935A0380916A0380935B038091FF
:101510006B0380935C0380916C0380935D0383CFA6
:1015200064E070E082E191E00E94C70180911301C4
:1015300090E08038910508F09A95409163035091AE
:101540006403480F591F50936403409363038091D1
:10155000140190E08038910508F09A95209161037C
:1015600030916203280F391F309362032093610387
:10157000609112018091600390911501891B809305
:1015800060039091B303092E02C0569547950A94C3
:10159000E2F740935F0302C0369527959A95E2F7EC
:1015A000A401421B530B40935E03762F7170562F9C
:1015B0005270909111019923A9F0962F90959170F6
:1015C000292F30E0511103C09260292F30E062FFD3
:1015D00024608295807F820F8860809310010E9432
:1015E000F40221CF41E090E0511140E0242F392F47
:1015F0007111EDCF2260EBCF0E94AB0352CFE8EB2D
:10160000F3E01382128288EE93E0A0E0B0E08483DE
:101610009583A683B7838AE293E09183808385ECE8
:1016200090E09587848784EC90E09787868780ECAC
:1016300090E0918B808B81EC90E0938B828B82EC9D
:1016400090E0958B848B86EC90E0978B868B118E47
:10165000128E138E148E0895F999FECF92BD81BD1E
:10166000F89A992780B50895262FF999FECF1FBAC9
:1016700092BD81BD20BD0FB6F894FA9AF99A0FBEBB
:1016800001960895EE0FFF1F0590F491E02D099447
:04169000F894FFCFFC
:1016940057AB12000000000020FF210000000001F1
:1016A400FF01FF0000FF0000000000000000120026
:1016B4005800410032003300420052005700360007
:1016C40047003700270038004800260016001300A2
:1016D400430022005300460051002300310056000D
:1016E4002100140024003400440054005500450037
:1016F40035002500150017001811111511141800D4
:101704002847283728162827000028582826282163
:10171400112828482838284111240000000000001E
:101724000000000000000000000000001C001B007E
:101734001A00112500000000000000000000000055
:10174400283528251135115411551145000028510B
:101754002858284728371700140024003400440070
:1017640054005500450035002500150028380000B8
:101774000000000000000000000000000000000065
:101784000000000000000000000000000000000055
:101794000000000000000000000000000000000045
:1017A4000000000000000000000000000000000035
:1017B4000000000000000000000000000000000025
:1017C4000000000000000000000000000000000015
:1017D4000000000000000000000000000000000005
:1017E40000000000000000000000000000000000F5
:1017F40000000000000000000000000000000000E5
:1018040000000000000000000000000000000000D4
:1018140000000000000000000000000000000000C4
:1018240000000000000000000000000000000000B4
:1018340000000000000000000000000000000000A4
:101844000000000000000000000000000000000094
:101854000000000000000000000000000000000084
:10186400000000000000280011000000000000003B
:10187400280000000000000000000000000000003C
:101884000000000000000000000000000000000054
:101894000000000000000000000000000000000044
:1018A400000000000000AAFFAAFFAAFFAAFF000090
:1018B400000000000000000000006F027701A40196
:0818C400BC022D02B3011F025A
:00000001FF
