:100000000C946A010C9492010C9492010C9492014C
:100010000C9492010C9492010C9492010C94920114
:100020000C9492010C9492010C9492010C94400A4D
:100030000C9492010C9492010C9492010C949201F4
:100040000C949E090C9492010C940E0A0C94E809ED
:100050000C9492010C9492010C9492010C949201D4
:100060000C9492010C94920100000000000000002A
:100070001200580041003200330042005200570085
:1000800036004700370027003800480026001600D9
:1000900013004300220053004600510023003100AA
:1000A0005600210014002400340044005400550080
:1000B0004500350025001500170018111115111401
:1000C00018002847283728162827000028582826EF
:1000D0002821112828482838284111240000000030
:1000E00000000000000000000000000000001C00F4
:1000F0001B001A0011250000000000000000000095
:1001000000002835282511351154115511450000DE
:100110002851285828472837170014002400340095
:1001200044005400550045003500250015002838CE
:1001300000000000000000000000000000000000BF
:1001400000000000000000000000000000000000AF
:10015000000000000000000000000000000000009F
:10016000000000000000000000000000000000008F
:10017000000000000000000000000000000000007F
:10018000000000000000000000000000000000006F
:10019000000000000000000000000000000000005F
:1001A000000000000000000000000000000000004F
:1001B000000000000000000000000000000000003F
:1001C000000000000000000000000000000000002F
:1001D000000000000000000000000000000000001F
:1001E000000000000000000000000000000000000F
:1001F00000000000000000000000000000000000FF
:1002000000000000000000000000000000000000EE
:1002100000000000000000000000000000000000DE
:100220000000000000000000280011000000000095
:1002300000001100000000000000000000000000AD
:1002400000000000000000000000000000000000AE
:10025000000000000000000000000000000000009E
:100260000000000000000000AAFFAAFFAAFFAAFFEA
:100270000000000000000000000000002300260035
:10028000290000000000240027002A0000000000D0
:10029000250028002B0004040404040404040202C2
:1002A00002020202030303030303010204081020F5
:1002B0004080010204081020010204081020000000
:1002C0000008000201000003040700000000000015
:1002D0000000320D11241FBECFEFD8E0DEBFCDBF2E
:1002E00022E0A8E2B1E001C01D92A534B207E1F717
:1002F00011E0A0E0B1E0EAEFFAE102C005900D9252
:10030000A832B107D9F711E0CAE6D1E004C02197BD
:10031000FE010E94750DC936D107C9F70E94730A04
:100320000C947B0D0C940000833081F028F4813014
:1003300099F08230A9F008958730A9F08830C9F08B
:100340008430B1F4809180008F7D03C08091800063
:100350008F7780938000089584B58F7784BD08954A
:1003600084B58F7DFBCF8091B0008F778093B000F4
:1003700008958091B0008F7DF9CF1F93CF93DF93C5
:10038000282F30E0F901E254FD4F8491F901E65540
:10039000FD4FD491F901EA56FD4FC491CC23A9F049
:1003A000162F81110E949401EC2FF0E0EE0FFF1F39
:1003B000E457FD4FA591B4918FB7F894EC911111CA
:1003C00008C0D095DE23DC938FBFDF91CF911F91C2
:1003D0000895DE2BF8CFCF93DF9390E0FC01E65534
:1003E000FD4F24918A569D4FFC0184918823C9F0CA
:1003F00090E0880F991FFC01EE57FD4FA591B49135
:10040000FC01E457FD4FC591D49161110DC09FB718
:10041000F8948C91209582238C93888128232883BB
:100420009FBFDF91CF910895623051F49FB7F89448
:100430003C91822F809583238C93E8812E2BEFCFE4
:100440008FB7F894EC912E2B2C938FBFEACF3FB748
:10045000F89480915F0190916001A0916101B09149
:10046000620126B5A89B05C02F3F19F00196A11D7A
:10047000B11D3FBFBA2FA92F982F8827BC01CD01EE
:10048000620F711D811D911D42E0660F771F881F4D
:10049000991F4A95D1F708958F929F92AF92BF927C
:1004A000CF92DF92EF92FF926B017C010E942702B4
:1004B0004B015C01C114D104E104F104B9F00E94C4
:1004C0002702681979098A099B09683E73408105EA
:1004D000910580F321E0C21AD108E108F10888EE05
:1004E000880E83E0981EA11CB11CE4CFFF90EF9012
:1004F000DF90CF90BF90AF909F908F900895AF9274
:10050000BF92CF92DF92EF92FF920F931F93CF9300
:10051000DF936C017B018B01040F151FEB015E0162
:10052000AE18BF08C017D10759F06991D601ED91F7
:10053000FC910190F081E02DC6010995892B79F796
:10054000C501DF91CF911F910F91FF90EF90DF9048
:10055000CF90BF90AF900895FC01538D448D252F0F
:1005600030E0842F90E0821B930B541710F0CF964D
:10057000089501970895FC01918D828D981761F07F
:10058000A28DAE0FBF2FB11D5D968C91928D9F5F96
:100590009F73928F90E008958FEF9FEF0895EF92F1
:1005A000FF920F931F93CF93DF937B018C01D0E0D9
:1005B000C0E02FB7F8948091A4019091A501A0917B
:1005C000A601B091A7012FBF8093B0019093B10114
:1005D000A093B201B093B30188EA91E00E94BB02FC
:1005E00097FF2CC02FB7F8948091A4019091A5019A
:1005F000A091A601B091A7012FBF4091B0015091E9
:10060000B1016091B2017091B301841B950BA60BEF
:10061000B70B4091AC015091AD016091AE0170916A
:10062000AF0184179507A607B707B0F2CE01DF9197
:10063000CF911F910F91FF90EF900895F801819352
:100640008F012196EC16FD0609F0B3CFEFCFFC0128
:10065000918D828D981731F0828DE80FF11D858D77
:1006600090E008958FEF9FEF0895FC01918D228D0A
:10067000892F90E0805C9F4F821B91098F7399278F
:10068000089588EA91E00E94350321E0892B09F45E
:1006900020E0822F089580E090E0892B29F00E94CD
:1006A000410381110C9400000895FC01A48DA80F52
:1006B000B92FB11DA35ABF4F2C91848D90E00196A4
:1006C0008F739927848FA689B7892C93A089B189C4
:1006D0008C91837080648C93938D848D981306C065
:1006E0000288F389E02D80818F7D80830895EF92C9
:1006F000FF920F931F93CF93DF93EC0181E0888FDC
:100700009B8D8C8D98131AC0E889F989808185FFAB
:1007100015C09FB7F894EE89FF896083E889F9894D
:1007200080818370806480839FBF81E090E0DF914F
:10073000CF911F910F91FF90EF900895F62E0B8DA2
:1007400010E00F5F1F4F0F731127E02E8C8D8E115D
:100750000CC00FB607FCFACFE889F989808185FFC4
:10076000F5CFCE010E945503F1CFEB8DEC0FFD2F9D
:10077000F11DE35AFF4FF0829FB7F8940B8FEA897F
:10078000FB8980818062CFCFCF93DF93EC01888D8E
:100790008823B9F0AA89BB89E889F9898C9185FDFC
:1007A00003C0808186FD0DC00FB607FCF7CF8C918A
:1007B00085FFF2CF808185FFEDCFCE010E945503EA
:1007C000E9CFDF91CF9108958EBD00000DB407FEF3
:1007D000FDCF8EB50895662369F08068809345014A
:1007E000809145019BB19F739BB940980E94E4039F
:1007F000409A08958F77F2CF81110C94EB030895FE
:100800001F93CF93DF93C62FD82FD627D0FF0EC0CC
:10081000E8E2F2E08491162F1170612F0E94FC0330
:10082000E9E2F2E08491612F0E94FC03D1FF0FC046
:10083000C1FB112710F9EAE2F2E08491612F0E94D6
:10084000FC03EBE2F2E08491612F0E94FC03D2FFF3
:100850000FC0C2FB112710F9ECE2F2E08491612F86
:100860000E94FC03EDE2F2E08491612F0E94FC0300
:10087000D3FF0FC0C3FB112710F9EEE2F2E0849121
:10088000612F0E94FC03EFE2F2E08491612F0E944D
:10089000FC03D4FF0FC0C4FB112710F9E0E3F2E022
:1008A0008491612F0E94FC03E1E3F2E08491612FC7
:1008B0000E94FC03D5FF0FC0C5FB112710F9E2E32E
:1008C000F2E08491612F0E94FC03E3E3F2E0849163
:1008D000612F0E94FC03D6FF0FC0C6FB112710F941
:1008E000E4E3F2E08491612F0E94FC03E5E3F2E08F
:1008F0008491612F0E94FC03D7FF10C0E6E3F2E071
:100900008491DC2FDD1FDD27DD1F6D2F0E94FC038E
:10091000E7E3F2E084916D2F0E94FC038091430194
:10092000882379F080914201811102C0CC2349F0E3
:10093000E82FF0E0ED59FE4FC068C0838F5F8093D1
:100940004201DF91CF911F910895CF93DF93D62F6E
:10095000C42F40989BB19F739BB95E9A0E94E40399
:10096000409A40988BB18F738BB95F9A8D2F0E94FC
:10097000E403409A40988BB18F738BB98BB1806C34
:100980008BB98C2F0E94E403409ADF91CF91089598
:100990008FEF8093500140910F0160914E01809143
:1009A0004F010C94A504CF93DF93EB010E945F0DE0
:1009B0008883CE01DF91CF910895FF920F931F930B
:1009C000CF93DF93EC01F62E08811981C8010E94B4
:1009D0005F0DF81621F06F2DC8010E94670DCE0142
:1009E000DF91CF911F910F91FF900895CF93DF93E7
:1009F00000D0CDB7DEB780EF93E09A838983609112
:100A0000A301CE0101960E94DD0483EA91E00F90DC
:100A10000F90DF91CF910895EF92FF920F931F9364
:100A2000CF93DF9300D0CDB7DEB703E611E0835656
:100A300091407C01C701800F911F9A838983F8013F
:100A400061918F01CE0101960E94DD04F1E0033A2D
:100A50001F0781F783E691E00F900F90DF91CF9110
:100A60001F910F91FF90EF9008958F3F910511F026
:100A70000E940C0510924301809181008B6F80933E
:100A80008100809107018460809307014BE050E072
:100A900060E071E088EA91E00E947F0210924201DA
:100AA00008950F931F93CF93DF9300D0CDB7DEB798
:100AB0008B019A838983FB016081CE0101960E949C
:100AC000DD04C8010F900F90DF91CF911F910F911E
:100AD0000895EF92FF920F931F93CF93DF93882394
:100AE00009F418C1162FC82F662309F478C3893377
:100AF00079F58091070181FD29C08260809307010B
:100B00004BE050E060E071E088EA91E00E947F02F3
:100B10008C2F90E0FC01EE0FFF1FE859FF4F24914E
:100B20002A3109F03FC061E083E10E94EB0160E0FF
:100B300083E10E94BD0181E080935D01DF91CF914F
:100B40001F910F91FF90EF900C94C8048D7FD6CF2A
:100B50008C34F1F661E081E10E94EB0369E170E021
:100B600080E090E00E944C0261E085E30E94EB038C
:100B700069E170E080E090E00E944C0260E085E373
:100B80000E94EB0369E170E080E090E00E944C027B
:100B900061E085E1DF91CF911F910F91FF90EF9080
:100BA0000C94EB0324912B3171F461E082E10E94FB
:100BB000EB0160E082E1DF91CF911F910F91FF90F7
:100BC000EF900C94BD0124912B3231F461E082E16D
:100BD0000E94EB0161E0EECF24912C3139F461E009
:100BE00081E10E94EB0160E081E1E5CFE491EC322C
:100BF00031F461E081E10E94EB0161E0F5CF2091E9
:100C0000550127FF03C0286020935501209155010D
:100C1000322F387023FF85C0CE3151F41092A301DA
:100C2000DF91CF911F910F91FF90EF900C94F604FC
:100C3000CF3121F481E08093A301F2CFC03211F4CF
:100C400082E0F9CFC13211F483E0F5CFC73291F4DD
:100C50008091100191E089278093100160E171E09B
:100C600081EF93E0DF91CF911F910F91FF90EF9073
:100C70000C945105C63259F48091110191E08927F5
:100C80008093110161E171E082EF93E0EBCFCA3212
:100C900009F047C0109280001092810088E09DE327
:100CA0009093890080938800809181008860809370
:100CB00081008091810084608093810080916F0029
:100CC000826080936F00E3E6F1E083EA91E01192A5
:100CD0008E179F07E1F710923B0110923C01109292
:100CE0003D0110923E0110923F011092400110927E
:100CF0003301109234011092350110923601109296
:100D000037011092380181E0809343011092420133
:100D100010923001DF91CF911F910F91FF90EF90D2
:100D20000895C93271F420914301222351F08FEFCD
:100D300090E0DF91CF911F910F91FF90EF900C9475
:100D4000350526EC2C0F2C3008F040C120914301D2
:100D50002111E0CFF6E0880F991FFA95E1F7109284
:100D6000420110923B0110923C0110923D01109201
:100D70003E0110923F0110924001A3EAEA2EA1E049
:100D8000FA2E03E611E0EC01C35EDF40CE01800FD6
:100D9000911F0E945F0DF80181938F01EE16FF06EF
:100DA000A9F7C0916301CC2309F4B4CFE0914201CB
:100DB000F0E0ED59FE4FC081C7FF17C0DC2FDF7791
:100DC00080913001D81719F06D2F0E940004D09344
:100DD0003001809142018F5F8093420162E370E0B5
:100DE00080E090E00E944C02DECF80913B01C8136E
:100DF0003EC060E08C2F0E94690510923B0181E0AB
:100E000090913C01C91307C060E08C2F0E946905D6
:100E100010923C0181E090913D01C91307C060E050
:100E20008C2F0E94690510923D0181E090913E0156
:100E3000C91307C060E08C2F0E94690510923E0123
:100E400081E090913F01C91307C060E08C2F0E94A0
:100E5000690510923F0181E0D0914001CD1309C096
:100E600060E08C2F0E94690510924001B2CF80E0B3
:100E7000C7CF8111AECF8C2F90E0880F991FAC01A6
:100E800048595F4FFA012491222391F020914101AA
:100E900030E0220F331F28593F4FF9016491662338
:100EA00039F0FA016491F9012491621709F442C002
:100EB000FA012491222391F02091410130E0220F88
:100EC000331F27593F4FF9016491662339F0FA0126
:100ED0004491F9012491421709F42CC087599F4F7E
:100EE000FC012491222389F02091410130E0220F5E
:100EF000331F28593F4FF9014491442331F0FC013D
:100F00004491F90124914217A9F0FC012491222374
:100F1000B9F02091410130E0220F331F27593F4F94
:100F2000F9014491442361F0FC018491F901249179
:100F3000821306C062E370E080E090E00E944C0201
:100F400080913B01811121C0C0933B0161E0809100
:100F50003B010E94690561E080913C010E946905A6
:100F600061E080913D010E94690561E080913E0150
:100F70000E94690561E080913F010E94690561E07E
:100F8000809140010E94690524CF80913C0181112C
:100F900003C0C0933C01DACF80913D01811103C0B1
:100FA000C0933D01D3CF80913E01811103C0C09316
:100FB0003E01CCCF80913F01811103C0C0933F011E
:100FC000C5CFD111C3CFC0934001C0CF3111A2CE44
:100FD00080914301882309F445C0C23008F442C01F
:100FE00050913301C51304C080912A011817D1F123
:100FF00030913401C31304C080912B01181791F173
:1010000090913501C91304C080912C01181751F13A
:1010100080913601C81304C020912D01121711F1DF
:1010200020913701C21304C040912E011417D1F052
:1010300040913801C41304C060912F01161791F03C
:10104000C51338C01111E7C080914201E82FF0E0CC
:10105000ED59FE4FC0838F5F8093420110922A01A9
:1010600010923301C0934101D0E0CC0FDD1FFE018F
:10107000E859FF4F8491612F0E94FC03FE01E7595C
:10108000FF4F8491612FDF91CF911F910F91FF90BE
:10109000EF900C94FC0391113DCECC3409F098CF25
:1010A00060E085E30E94EB0360E085E30E94EB03D0
:1010B00060E06FCDC31311C01111AFC08091420128
:1010C000E82FF0E0ED59FE4FC0838F5F809342011F
:1010D00010922B0110923401C5CFC91311C0111108
:1010E0009EC080914201E82FF0E0ED59FE4FC08391
:1010F0008F5F8093420110922C0110923501B2CF84
:10110000C81311C011118DC080914201E82FF0E089
:10111000ED59FE4FC0838F5F8093420110922D01E5
:10112000109236019FCFC21311C011117CC0809163
:101130004201E82FF0E0ED59FE4FC0838F5F8093AE
:10114000420110922E01109237018CCFC41311C0AE
:1011500011116BC080914201E82FF0E0ED59FE4F74
:10116000C0838F5F8093420110922F01109238014B
:1011700079CF51115DC0112309F464C0C0933301CC
:1011800081E080932A0180914201E82FF0E0ED593F
:10119000FE4FC0838F5F8093420164CF911109C0DD
:1011A000112309F453C0C093350181E080932C01D1
:1011B000EACF811109C0112309F44AC0C093360156
:1011C00081E080932D01DFCF211145C0112309F467
:1011D00049CFC093370181E080932E01D4CF809115
:1011E0005501982F987083FF03C0CA3209F492CD3D
:1011F00086EC8C0F8C3008F04ECF80914301882311
:1012000009F488CDCA53DD0BCE0126E0880F991F63
:101210002A95E1F78ECDC31302C0C91371CFC8134D
:1012200082CFC21393CFC413A4CF552309F4A6CF02
:101230003111B4CF112341F0C093340181E0809388
:101240002B01A1CF311112C09111B3CF8111BCCFAD
:10125000222309F407CF411105CF112309F402CF4E
:10126000C093380181E080932F018DCF9111F0CF91
:10127000EDCF0F931F93CF93882309F45BC0C82F42
:10128000082F10E0000F111F08591F4FF80184911B
:101290008A3169F560E083E10E94EB0110925D0103
:1012A00081E0F80194919B3129F460E082E10E9491
:1012B000EB0181E0F80194919B3229F460E082E136
:1012C0000E94EB0181E0F80194919C3129F460E0E7
:1012D00081E10E94EB0181E0F80104910C3249F4B4
:1012E00060E081E1CF911F910F910C94EB0180E0C0
:1012F000D8CF81111FC080915701C817D9F08091B4
:101300005801C817B9F080915901C81799F0809118
:101310005A01C81779F080915B01C81759F0809184
:101320005C01C81739F060E08C2FCF911F910F91AD
:101330000C946905CF911F910F9108951F920F9200
:101340000FB60F9211242F933F938F939F93AF93D8
:10135000BF938091A4019091A501A091A601B091A5
:10136000A70130915E0123E0230F2D3758F5019638
:10137000A11DB11D20935E018093A4019093A5014E
:10138000A093A601B093A70180915F0190916001A5
:10139000A0916101B09162010196A11DB11D8093E0
:1013A0005F0190936001A0936101B0936201BF91CE
:1013B000AF919F918F913F912F910F900FBE0F9002
:1013C0001F90189526E8230F0296A11DB11DD2CFBC
:1013D0001F920F920FB60F9211242F933F934F93AA
:1013E0005F936F937F938F939F93AF93BF93EF938D
:1013F000FF9388EA91E00E945503FF91EF91BF911E
:10140000AF919F918F917F916F915F914F913F919C
:101410002F910F900FBE0F901F9018951F920F9253
:101420000FB60F9211242F938F939F93EF93FF93F7
:10143000E091B801F091B9018081E091BE01F09195
:10144000BF0182FD1BC090818091C1018F5F8F73AE
:101450002091C201821741F0E091C101F0E0E8550E
:10146000FE4F958F8093C101FF91EF919F918F91D6
:101470002F910F900FBE0F901F9018958081F4CF81
:101480001F920F920FB60F9211242F933F934F93F9
:101490005F936F937F938F939F93AF93BF93EF93DC
:1014A000FF938091070182FD1CC084608093070137
:1014B0004BE050E060E071E088EA91E00E947F023A
:1014C000FF91EF91BF91AF919F918F917F916F911C
:1014D0005F914F913F912F910F900FBE0F901F90F2
:1014E00018958B7FE3CFCF93DF9300D0CDB7DEB7D6
:1014F000789484B5826084BD84B5816084BD85B5EF
:10150000826085BD85B5816085BD80916E008160FA
:1015100080936E00109281008091810082608093A0
:1015200081008091810081608093810080918000A2
:101530008160809380008091B10084608093B100CD
:101540008091B00081608093B00080917A008460C7
:1015500080937A0080917A00826080937A008091F3
:101560007A00816080937A0080917A00806880930D
:101570007A001092C10061E083E10E94EB0160E01B
:1015800083E10E94BD0180E58CBD81E08DBD1FB768
:10159000F89480914401811127C0E0EAF2E084913F
:1015A000E4EBF2E09491E82FF0E0EE0FFF1FEE572E
:1015B000FD4FA591B491EC91E92321F461E08AE01B
:1015C0000E94BD0161E08AE00E94EB018CB5806160
:1015D0008CBD8CB580648CBD61E08DE00E94EB0118
:1015E00061E08BE00E94EB01809144018F5F80936A
:1015F00044011FBF60E082E10E94EB0160E081E1F5
:101600000E94EB0160E080E10E94EB0160E08FE06E
:101610000E94EB0161E086E00E94EB0161E087E05F
:101620000E94EB0161E08EE00E94EB0160E086E049
:101630000E94BD0160E087E00E94BD0160E08EE095
:101640000E94BD0110926100F8948FEF93E00E9418
:101650005F0D8433D1F1E3E6F1E0119281E0E33AEA
:10166000F807D9F710E000E0C8010E940C05005C03
:101670001F4F0115E3E01E07B9F780EF93E09A834F
:10168000898360E0CE0101960E94DD0481EF93E042
:101690009A83898360E0CE0101960E94DD0411E007
:1016A0001983BE016F5F7F4F81EF93E00E94510568
:1016B0001983BE016F5F7F4F82EF93E00E94510557
:1016C00064E38FEF93E00E94670D8FEF80930F012B
:1016D00085E180934E0186E180934F011092450190
:1016E000109280001092810088E09DE39093890021
:1016F0008093880080918100886080938100809130
:101700006F00826080936F00789480EF93E00E9476
:101710005F0D8093A30160E171E081EF93E00E948F
:10172000D30461E171E082EF93E00E94D304E3E629
:10173000F1E083EA91E011928E179F07E1F79EE1B5
:10174000909363012FE12093640180E2809365010F
:1017500020936601909367018093680164E670E0CE
:1017600080E090E00E944C0240910F0160914E0198
:1017700080914F010E94A50464EF71E080E090E049
:101780000E944C0262E083E10E94EB01E091B8010B
:10179000F091B90182E08083E091B401F091B5014C
:1017A0001082E091B601F091B70180E18083109240
:1017B000C001E091BC01F091BD0186E08083E09121
:1017C000BA01F091BB01808180618083E091BA0110
:1017D000F091BB01808188608083E091BA01F09133
:1017E000BB01808180688083E091BA01F091BB01E8
:1017F00080818F7D808380910701846080930701C1
:1018000091EDE92E92E0F92E2DEBC22E22E0D22EA0
:1018100039EAA32E32E0B32E88248A94912C00E07A
:1018200010E080915D0181110AC0F7018491F601F9
:101830007490F501649061102AC00E94C80488EA7F
:1018400091E00E9435030397C4F088EA91E00E947A
:10185000BB028735910589F488EA91E00E94BB02BA
:101860008B3A910551F488EA91E00E94BB028130E5
:101870009105E1F0029709F47CC00115110589F288
:101880000E944103882369F20E940000CACF81119F
:101890000E949401E62DF0E0EE0FFF1FE858FD4F87
:1018A000A591B4918C91782241F2C9CF68E070E0A3
:1018B00085E591E00E94CF02809148010E9439099C
:1018C000809149010E94390980914A010E94390999
:1018D00080914B010E94390980914C010E94390985
:1018E00080914D010E943909609155018091460116
:1018F0006813B3C061E0809157010E94690561E0FF
:10190000809158010E94690561E0809159010E940F
:10191000690561E080915A010E94690561E080914A
:101920005B010E94690561E080915C010E9469058C
:101930008091550180934601809156018093470123
:10194000809157018093480180915801809349010B
:101950008091590180934A0180915A0180934B01F3
:1019600080915B0180934C0180915C0180934D01DB
:1019700084CF64E070E082E191E00E94CF02809128
:10198000130190E08038910508F09A952091530159
:1019900030915401820F931F90935401809353010F
:1019A0002091140130E02038310508F03A9540913B
:1019B000510150915201240F351F30935201209351
:1019C0005101E09112014091150150915001609137
:1019D0001101662309F444C0541B452F4093500164
:1019E0004091A301042E02C0969587950A94E2F7D0
:1019F00080934F0102C0369527954A95E2F7B401CE
:101A0000621B730B60934E01AE2FA170FE2FF2701C
:101A1000209110012223B9F02E2F20952170422F02
:101A200050E0F11103C02260422F50E0E2FF446019
:101A3000909150019295907F490F486040930F011B
:101A40000E94A5041ACF31E020E0F11130E0432FCD
:101A5000522FA111EBCF4260E9CF0E9400044ACF80
:101A6000450FBCCFE8EAF1E01382128288EE93E0E2
:101A7000A0E0B0E084839583A683B7838AE191E0F8
:101A80009183808385EC90E09587848784EC90E057
:101A90009787868780EC90E0918B808B81EC90E03B
:101AA000938B828B82EC90E0958B848B86EC90E01C
:101AB000978B868B118E128E138E148E0895F99942
:101AC000FECF92BD81BDF89A992780B50895262F43
:101AD000F999FECF1FBA92BD81BD20BD0FB6F89413
:101AE000FA9AF99A0FBE01960895EE0FFF1F05901E
:0A1AF000F491E02D0994F894FFCF63
:101AFA0057AB12000000000020FF2100000000FF89
:101B0A000101FF0000FF0000000077037F02AC0222
:081B1A00C4033503BB022703DD
:00000001FF
