:100000000C945D000C9485000C9485000C94850084
:100010000C9485000C9485000C9485000C9485004C
:100020000C9485000C9485000C9485000C94840736
:100030000C9485000C9485000C9485000C9485002C
:100040000C94E2060C9485000C9452070C942C0737
:100050000C9485000C9485000C9485000C9485000C
:100060000C9485000C9485000000000024002700FB
:100070002A0000000000250028002B0004040404CE
:100080000404040402020202020203030303030342
:10009000010204081020408001020408102001021F
:1000A00004081020000000080002010000030407FB
:1000B0000000000000000000450A11241FBECFEF21
:1000C000D8E0DEBFCDBF24E0A4E3B3E001C01D92C1
:1000D000A035B207E1F713E0A0E0B1E0E0E2F5E11E
:1000E00002C005900D92A433B107D9F710E0CDE519
:1000F000D0E004C02197FE010E94880ACC35D107C8
:10010000C9F70E94B7070C948E0A0C94000090E087
:10011000FC01EC55FF4F2491FC01E057FF4F349157
:10012000FC01E458FF4FE491EE23C9F0222339F09B
:10013000233001F1A8F4213019F1223029F1F0E047
:10014000EE0FFF1FEE58FF4FA591B4918FB7F894B3
:10015000EC91611126C030953E233C938FBF0895EA
:100160002730A9F02830C9F0243049F78091800069
:100170008F7D03C0809180008F7780938000DFCFD8
:1001800084B58F7784BDDBCF84B58F7DFBCF809125
:10019000B0008F778093B000D2CF8091B0008F7D78
:1001A000F9CF3E2BDACFCF93DF9390E0FC01E057FD
:1001B000FF4F249184589F4FFC0184918823D1F0F4
:1001C00090E0880F991FFC01E859FF4FA591B49169
:1001D000FC01EE58FF4FC591D49161110EC09FB73D
:1001E000F8948C91E22FE0958E238C932881E22362
:1001F000E8839FBFDF91CF9108958FB7F894EC917A
:10020000E22BEC938FBFF6CF3FB7F89480916A034F
:1002100090916B03A0916C03B0916D0326B5A89BE0
:1002200005C02F3F19F00196A11DB11D3FBFBA2F88
:10023000A92F982F8827BC01CD01620F711D811D48
:10024000911D42E0660F771F881F991F4A95D1F7CD
:1002500008958F929F92AF92BF92CF92DF92EF92CA
:10026000FF926B017C010E9404014B015C01C114EF
:10027000D104E104F104B9F00E940401681979097C
:100280008A099B09683E73408105910580F321E04E
:10029000C21AD108E108F10888EE880E83E0981EA2
:1002A000A11CB11CE4CFFF90EF90DF90CF90BF90E6
:1002B000AF909F908F900895AF92BF92CF92DF92B0
:1002C000EF92FF920F931F93CF93DF936C017B010B
:1002D0008B01040F151FEB015E01AE18BF08C0179C
:1002E000D10759F06991D601ED91FC910190F0810F
:1002F000E02DC6010995892B79F7C501DF91CF91D2
:100300001F910F91FF90EF90DF90CF90BF90AF9033
:100310000895FC01538D448D252F30E0842F90E00B
:10032000821B930B541710F0CF96089501970895F0
:10033000FC01918D828D981761F0A28DAE0FBF2FB9
:10034000B11D5D968C91928D9F5F9F73928F90E00F
:1003500008958FEF9FEF0895EF92FF920F931F93F1
:10036000CF93DF937B018C01D0E0C0E02FB7F894EE
:100370008091AF039091B003A091B103B091B2030B
:100380002FBF8093BB039093BC03A093BD03B09396
:10039000BE0383EB93E00E94980197FF2CC02FB718
:1003A000F8948091AF039091B003A091B103B09104
:1003B000B2032FBF4091BB035091BC036091BD03BA
:1003C0007091BE03841B950BA60BB70B4091B7032E
:1003D0005091B8036091B9037091BA0384179507DF
:1003E000A607B707B0F2CE01DF91CF911F910F9111
:1003F000FF90EF900895F80181938F012196EC16FC
:10040000FD0609F0B3CFEFCFFC01918D828D9817D7
:1004100031F0828DE80FF11D858D90E008958FEF0A
:100420009FEF0895FC01918D228D892F90E0805CD3
:100430009F4F821B91098F739927089583EB93E057
:100440000E94120221E0892B09F420E0822F0895F6
:1004500080E090E0892B29F00E941E0281110C940B
:1004600000000895FC01A48DA80FB92FB11DA35A57
:10047000BF4F2C91848D90E001968F739927848FC4
:10048000A689B7892C93A089B1898C9183708064E7
:100490008C93938D848D981306C00288F389E02D88
:1004A00080818F7D80830895EF92FF920F931F9339
:1004B000CF93DF93EC0181E0888F9B8D8C8D981317
:1004C0001AC0E889F989808185FF15C09FB7F89423
:1004D000EE89FF896083E889F9898081837080646F
:1004E00080839FBF81E090E0DF91CF911F910F91BA
:1004F000FF90EF900895F62E0B8D10E00F5F1F4FC9
:100500000F731127E02E8C8D8E110CC00FB607FCD7
:10051000FACFE889F989808185FFF5CFCE010E9465
:100520003202F1CFEB8DEC0FFD2FF11DE35AFF4F9F
:10053000F0829FB7F8940B8FEA89FB8980818062F3
:10054000CFCFCF93DF93EC01888D8823B9F0AA89B0
:10055000BB89E889F9898C9185FD03C0808186FD7E
:100560000DC00FB607FCF7CF8C9185FFF2CF8081CD
:1005700085FFEDCFCE010E943202E9CFDF91CF910E
:100580000895982F9F7095B990E024E095958795F0
:100590002A95E1F7877088B981E10E9487005F9A08
:1005A0005F980895FF920F931F93CF93DF93EC0111
:1005B000F62E08811981C8010E94720AF81621F0EE
:1005C0006F2DC8010E947A0ACE01DF91CF911F9151
:1005D0000F91FF900895CF93DF9300D0CDB7DEB792
:1005E00080EF93E09A8389836091AE03CE010196F8
:1005F0000E94D2028EEA93E00F900F90DF91CF918C
:100600000895EF92FF920F931F93CF93DF9300D043
:10061000CDB7DEB70EE613E08E5693407C01C701DE
:10062000800F911F9A838983F80161918F01CE0118
:1006300001960E94D202F3E00E3A1F0781F78EE680
:1006400093E00F900F90DF91CF911F910F91FF904A
:10065000EF9008958F3F910511F00E9401031092D1
:100660004F03809181008B6F8093810080910701FF
:100670008B7F809307014BE050E060E071E083EBFB
:1006800093E00E945C0110924E030895CF93DF9394
:10069000C62FD82FD627D0FF04C0617088E20E94F1
:1006A000C102D1FF06C0C1FB662760F981E10E944B
:1006B000C102D5FF06C0C5FB662760F988E20E942B
:1006C000C10280914F03882379F080914E038111FC
:1006D00002C0CC2349F0E82FF0E0E259FC4FC0689B
:1006E000C0838F5F80934E03DF91CF910895CF92A7
:1006F000DF92EF92FF920F931F93CF93DF9300D07F
:10070000CDB7DEB78823A9F0F62E662309F4D3C24D
:10071000282F30E0F901EE0FFF1FEF5EFE4F9081B2
:1007200060E09A3119F09A3279F461E082E00E9437
:1007300087000F900F90DF91CF911F910F91FF9045
:10074000EF90DF90CF9008959B3139F461E08DE018
:100750000E94D30060E08DE0EACF9B3231F461E08B
:100760008DE00E94D30061E0F6CF9C3139F461E066
:100770008CE00E94D30060E08CE0D9CF9C3231F451
:1007800061E08CE00E94D30061E0F6CF90916103BC
:1007900097FF03C098609093610390916103492F84
:1007A000487093FF69C08E3129F41092AE030E9405
:1007B000EB02BFCF8F3121F481E08093AE03F7CFFE
:1007C000803211F482E0F9CF813211F483E0F5CF69
:1007D000873279F460910F0181E0682760930F01FF
:1007E00081EF93E09A838983CE0101960E94D20221
:1007F000A0CF8A3209F040C0109280001092810090
:1008000088E09DE390938900809388008091810027
:100810008860809381008091810084608093810052
:1008200080916F00826080936F00EEE6F3E011929A
:1008300083E0EE3AF807D9F7109247031092480385
:100840001092490310924A0310924B0310924C03EA
:1008500010923F0310924003109241031092420302
:10086000109243031092440381E080934F0310924F
:100870004E0310923C035DCF893249F490914F03AF
:10088000992329F08FEF90E00E942A0352CF96EC33
:10089000980F9C3008F012C180914F03811149CF0D
:1008A00066E0220F331F6A95E1F710924E03109213
:1008B0004703109248031092490310924A03109282
:1008C0004B0310924C037EEAC72E73E0D72EEEE660
:1008D000EE2EE3E0FE2E89010E5E1141C8018E0D61
:1008E0009F1D0E94720AF70181937F01CE16DF06D9
:1008F000A9F710916E03112309F41BCFE0914E0369
:10090000F0E0E259FC4F108117FF17C0012F0F775D
:1009100080913C03081719F0602F0E944603009352
:100920003C0380914E038F5F80934E0362E370E03F
:1009300080E090E00E942901DECF809147031813E8
:100940003EC060E0812F0E9477031092470381E050
:1009500090914803191307C060E0812F0E9477032C
:100960001092480381E090914903191307C060E099
:10097000812F0E9477031092490381E090914A03EE
:10098000191307C060E0812F0E94770310924A0379
:1009900081E090914B03191307C060E0812F0E9402
:1009A000770310924B0381E000914C03101309C0B0
:1009B00060E0812F0E94770310924C03B2CF80E059
:1009C000C7CF8111AECFA12FB0E0AA0FBB1FAF5E82
:1009D000BE4F8C91882389F0E0914D03F0E0EE0F3B
:1009E000FF1FEF5EFE4F9081992311F08917D1F020
:1009F0009181992311F08917A9F011968C91882380
:100A0000B9F0E0914D03F0E0EE0FFF1FEF5EFE4FF7
:100A10009081992311F0891729F09181992341F050
:100A2000891306C062E370E080E090E00E94290133
:100A300080914703811121C01093470361E08091A9
:100A400047030E94770361E0809148030E94770387
:100A500061E0809149030E94770361E080914A033D
:100A60000E94770361E080914B030E94770361E06D
:100A700080914C030E94770354CF809148038111E9
:100A800003C010934803DACF80914903811103C05A
:100A900010934903D3CF80914A03811103C010936F
:100AA0004A03CCCF80914B03811103C010934B03B9
:100AB000C5CF0111C3CF10934C03C0CF411139CE24
:100AC00090914F03992309F445C0823008F442C045
:100AD00060913F03861304C090913603F916D1F15B
:100AE00040914003841304C090913703F91691F1AB
:100AF00020914103821304C090913803F91651F1FB
:100B000090914203891304C030913903F31611F117
:100B100030914303831304C050913A03F516D1F08A
:100B200050914403851304C070913B03F71691F074
:100B300086132CC0F110DAC090914E03E92FF0E03B
:100B4000E259FC4F80839F5F90934E0310923603CF
:100B500010923F0380934D03082F10E0000F111FE8
:100B60000F5E1E4FF8018081882319F06F2D0E94BF
:100B7000C102F8018181882309F4DBCD6F2D0E9429
:100B8000C102D7CD222309F49BCFD3CD841311C04A
:100B9000F110AEC090914E03E92FF0E0E259FC4F06
:100BA00080839F5F90934E0310923703109240030F
:100BB000D1CF821311C0F1109DC090914E03E92F47
:100BC000F0E0E259FC4F80839F5F90934E031092B8
:100BD000380310924103BECF891311C0F1108CC0AD
:100BE00090914E03E92FF0E0E259FC4F80839F5F24
:100BF00090934E031092390310924203ABCF8313AC
:100C000011C0F1107BC090914E03E92FF0E0E25942
:100C1000FC4F80839F5F90934E0310923A03109293
:100C2000430398CF851311C0F1106AC090914E0311
:100C3000E92FF0E0E259FC4F80839F5F90934E03D1
:100C400010923B031092440385CF61115CC0FF20DA
:100C500009F463C080933F0391E090933603909131
:100C60004E03E92FF0E0E259FC4F80839F5F9093A1
:100C70004E0370CF211109C0FF2009F452C08093A8
:100C8000410391E090933803EACF911109C0FF200E
:100C900009F449C08093420391E090933903DFCF78
:100CA000311144C0FF2009F455CF8093430391E0F4
:100CB00090933A03D4CF90916103292F287093FF2A
:100CC00003C08A3209F435CD96EC980F9C3008F0B9
:100CD00059CF90914F03992309F42BCD8A53990B47
:100CE00026E0880F991F2A95E1F7CECD841302C024
:100CF000821372CF891383CF831394CF8513A5CF2B
:100D0000662309F4A7CF4111B5CFFF2041F08093AE
:100D1000400391E090933703A2CF411112C02111FB
:100D2000B4CF9111BDCF332309F414CF511112CF99
:100D3000FF2009F40FCF8093440391E090933B038D
:100D40008ECF2111F0CFEDCF8823D9F1E82FF0E03D
:100D5000EE0FFF1FEF5EFE4F908161E09A3119F0B8
:100D60009A3229F460E082E00E94870008959B3166
:100D700021F460E08DE00C94D3009B32D1F39C31E0
:100D800019F460E08CE0F7CF9C32D9F390916303C3
:100D90008917B9F090916403891799F090916503D0
:100DA000891779F090916603891759F0909167033C
:100DB000891739F090916803891719F060E00C9455
:100DC000770308951F920F920FB60F9211242F935D
:100DD0003F938F939F93AF93BF938091AF03909175
:100DE000B003A091B103B091B2033091690323E045
:100DF000230F2D3758F50196A11DB11D20936903CE
:100E00008093AF039093B003A093B103B093B20368
:100E100080916A0390916B03A0916C03B0916D0374
:100E20000196A11DB11D80936A0390936B03A0935B
:100E30006C03B0936D03BF91AF919F918F913F91E0
:100E40002F910F900FBE0F901F90189526E8230F3B
:100E50000296A11DB11DD2CF1F920F920FB60F9215
:100E600011242F933F934F935F936F937F938F93AF
:100E70009F93AF93BF93EF93FF9383EB93E00E9415
:100E80003202FF91EF91BF91AF919F918F917F912E
:100E90006F915F914F913F912F910F900FBE0F90E7
:100EA0001F9018951F920F920FB60F9211242F9337
:100EB0008F939F93EF93FF93E091C303F091C4034B
:100EC0008081E091C903F091CA0382FD1BC090812B
:100ED0008091CC038F5F8F732091CD03821741F0F7
:100EE000E091CC03F0E0ED54FC4F958F8093CC0360
:100EF000FF91EF919F918F912F910F900FBE0F90C7
:100F00001F9018958081F4CF1F920F920FB60F9209
:100F100011242F933F934F935F936F937F938F93FE
:100F20009F93AF93BF93EF93FF938091070182FD4F
:100F30001CC08460809307014BE050E060E071E0EA
:100F400083EB93E00E945C01FF91EF91BF91AF9121
:100F50009F918F917F916F915F914F913F912F91D1
:100F60000F900FBE0F901F9018958B7FE3CFCF93FC
:100F7000DF9300D0CDB7DEB7789484B5826084BDAE
:100F800084B5816084BD85B5826085BD85B581608D
:100F900085BD80916E00816080936E00109281000B
:100FA00080918100826080938100809181008160C6
:100FB0008093810080918000816080938000809187
:100FC000B10084608093B1008091B0008160809313
:100FD000B00080917A00846080937A0080917A00DA
:100FE000826080937A0080917A00816080937A0099
:100FF00080917A00806880937A001092C100F89402
:10100000109280001092810088E09DE39093890007
:101010008093880080918100886080938100809116
:101020006F00826080936F00789461E084E00E949A
:10103000D30061E085E00E94D30061E086E00E9479
:10104000D30061E087E00E94D30061E088E00E9465
:10105000D30061E089E00E94D30061E08AE00E9451
:10106000D30061E08BE00E94D30061E08EE00E943B
:10107000D30061E08FE00E94D30061E080E10E9434
:10108000D30061E081E10E94D30061E082E00E9430
:10109000D30061E082E00E9487008FEF93E00E941E
:1010A000720A843389F1EEE6F3E08EEA93E011925E
:1010B0008E179F07E1F710E000E0C8010E940103CE
:1010C000005C1F4F011523E01207B9F780EF93E092
:1010D0009A83898360E0CE0101960E94D20201EFDB
:1010E00013E01A83098360E0CE0101960E94D202C8
:1010F0001A83098361E0CE0101960E94D20264E363
:101100008FEF93E00E947A0A68EE73E080E090E04F
:101110000E9429018FEF8093580315B818B85D9A83
:101120005D9815B818B85E9A5E988FE085B988B951
:101130005C9A5C9880EF93E00E94720A8093AE0301
:1011400081EF93E00E94720A80930F01EEE6F3E0D4
:101150008EEA93E011928E179F07E1F79EE190933C
:101160006E032FE120936F0380E28093700320933E
:1011700071039093720380937303E091C303F09122
:10118000C40382E08083E091BF03F091C00310822A
:10119000E091C103F091C20380E180831092CB0300
:1011A000E091C703F091C80386E08083E091C50316
:1011B000F091C603808180618083E091C503F09146
:1011C000C603808188608083E091C503F091C603E7
:1011D000808180688083E091C503F091C60380819F
:1011E0008F7D8083809107018160809307014BE0B0
:1011F00050E060E071E083EB93E00E945C01CC245E
:10120000CA94D12C0FE0F0E0EF2EF0E0FF2E83EB3C
:1012100093E00E9412020397C4F083EB93E00E94D4
:1012200098018735910589F483EB93E00E9498013A
:101230008B3A910551F483EB93E00E949801813041
:10124000910569F0029709F46DC0E114F104F9F217
:101250000E941E028823D9F20E940000D8CF68E0C5
:1012600070E081E693E00E94AC01809152030E94FD
:10127000A406809153030E94A406809154030E9407
:10128000A406809155030E94A406809156030E94F3
:10129000A406809157030E94A40660916103809187
:1012A00050036813EFC061E0809163030E947703ED
:1012B00061E0809164030E94770361E0809165039F
:1012C0000E94770361E0809166030E94770361E0EA
:1012D000809167030E94770361E0809168030E9418
:1012E0007703809161038093500380916203809320
:1012F0005103809163038093520380916403809330
:101300005303809165038093540380916603809317
:1013100055038091670380935603809168038093FF
:10132000570393CF64E070E08DE593E00E94AC0139
:1013300080915E0390E08038910508F09A952091A5
:101340005B0330915C03820F931F90935C03809347
:101350005B0320915F0330E02038310508F03A95B7
:101360004091590350915A03240F351F30935A036B
:101370002093590320915D0320931001209158037D
:1013800030916003230F209358032091AE0302C0D5
:10139000969587952A95E2F7282F2F7025B964E056
:1013A000969587956A95E1F78F7088B95D9A5D98F3
:1013B0008091590390915A032091AE0302C09695F3
:1013C00087952A95E2F79601281B390BC9012F70E2
:1013D00025B974E0969587957A95E1F78F7088B96D
:1013E0005E9A5E9810911001A12EB12C05B908B932
:1013F00080910F011095A094B0948823D1F1612FB2
:10140000617088E00E948700B501769567956170EC
:1014100089E00E948700B501769567957695679576
:1014200061708AE00E94870060915803A62EB12C5B
:1014300061708EE00E948700B501769567956170B6
:101440008FE00E948700B501769567957695679540
:10145000617080E10E948700B50133E07695679561
:101460003A95E1F7617081E10E9487005C9A5C988F
:10147000ECCEB50176956795617088E00E94870093
:10148000612FC5CF0E9446030ECFE3EBF3E013823A
:10149000128288EE93E0A0E0B0E084839583A68377
:1014A000B78385E293E09183808385EC90E0958714
:1014B000848784EC90E09787868780EC90E0918B1E
:1014C000808B81EC90E0938B828B82EC90E0958B0B
:1014D000848B86EC90E0978B868B118E128E138E08
:1014E000148E0895F999FECF92BD81BDF89A99277F
:1014F00080B50895262FF999FECF1FBA92BD81BD00
:1015000020BD0FB6F894FA9AF99A0FBE0196089585
:10151000EE0FFF1F0590F491E02D0994F894FFCF92
:1015200057AB12000000000020FF21000000000166
:10153000FF000000000000000012005800410032CF
:1015400000330042005200570036004700370027A2
:101550000038004800260016001300430022005304
:1015600000460051002300310056002100140024E1
:101570000034004400540055004500350025001596
:1015800000170018111115111418002847283728C2
:1015900016282700002858282628211128284828FE
:1015A0003828411124000000000000000000000065
:1015B000000000000000001C001B001A00112500A4
:1015C0000000000000000000000000283528251160
:1015D0003511541155114500002851285828472825
:1015E000371700140024003400440054005500450F
:1015F000003500250015002838000000000000001C
:1016000000000000000000000000000000000000DA
:1016100000000000000000000000000000000000CA
:1016200000000000000000000000000000000000BA
:1016300000000000000000000000000000000000AA
:10164000000000000000000000000000000000009A
:10165000000000000000000000000000000000008A
:10166000000000000000000000000000000000007A
:10167000000000000000000000000000000000006A
:10168000000000000000000000000000000000005A
:10169000000000000000000000000000000000004A
:1016A000000000000000000000000000000000003A
:1016B000000000000000000000000000000000002A
:1016C000000000000000000000000000000000001A
:1016D000000000000000000000000000000000000A
:1016E00000000000000000000000000000000000FA
:1016F0000028001100000000000000280000000089
:1017000000000000000000000000000000000000D9
:1017100000000000000000000000000000000000C9
:1017200000000000000000000000000000000000B9
:1017300000AAFFAAFFAAFFAAFF0000000000000005
:10174000000000000054025C018901A1021202980D
:04175000010402008E
:00000001FF
