:100000000C9462000C948A000C948A000C948A0070
:100010000C948A000C948A000C948A000C948A0038
:100020000C948A000C948A000C948A000C948E081C
:100030000C948A000C948A000C948A000C948A0018
:100040000C94EC070C948A000C945C080C94360811
:100050000C948A000C948A000C948A000C948A00F8
:100060000C948A000C948A000000000023002600F3
:10007000290000000000240027002A0000000000E2
:10008000250028002B0004040404040404040202D4
:100090000202020203030303030301020408102007
:1000A0004080010204081020010204081020000012
:1000B0000008000201000003040700000000000027
:1000C0000000730B11241FBECFEFD8E0DEBFCDBF01
:1000D00024E0A8E3B3E001C01D92A035B207E1F728
:1000E00013E0A0E0B1E0ECE7F7E102C005900D926B
:1000F000A833B107D9F710E0C2E6D0E004C02197D9
:10010000FE010E94B60BC136D107C9F70E94C10893
:100110000C94BC0B0C940000833081F028F48130E7
:1001200099F08230A9F008958730A9F08830C9F09D
:100130008430B1F4809180008F7D03C08091800075
:100140008F7780938000089584B58F7784BD08955C
:1001500084B58F7DFBCF8091B0008F778093B00006
:1001600008958091B0008F7DF9CF1F93CF93DF93D7
:10017000282F30E0F901E255FF4F8491F901E6564E
:10018000FF4FD491F901EA57FF4FC491CC23A9F056
:10019000162F81110E948C00EC2FF0E0EE0FFF1F54
:1001A000E458FF4FA591B4918FB7F894EC911111D9
:1001B00008C0D095DE23DC938FBFDF91CF911F91D4
:1001C0000895DE2BF8CFCF93DF9390E0FC01E65645
:1001D000FF4F24918A579F4FFC0184918823D1F0CF
:1001E00090E0880F991FFC01EE58FF4FA591B49144
:1001F000FC01E458FF4FC591D49161110EC09FB727
:10020000F8948C91E22FE0958E238C932881E22341
:10021000E8839FBFDF91CF9108958FB7F894EC9159
:10022000E22BEC938FBFF6CF3FB7F89480916A032F
:1002300090916B03A0916C03B0916D0326B5A89BC0
:1002400005C02F3F19F00196A11DB11D3FBFBA2F68
:10025000A92F982F8827BC01CD01620F711D811D28
:10026000911D42E0660F771F881F991F4A95D1F7AD
:1002700008958F929F92AF92BF92CF92DF92EF92AA
:10028000FF926B017C010E9414014B015C01C114BF
:10029000D104E104F104B9F00E941401681979094C
:1002A0008A099B09683E73408105910580F321E02E
:1002B000C21AD108E108F10888EE880E83E0981E82
:1002C000A11CB11CE4CFFF90EF90DF90CF90BF90C6
:1002D000AF909F908F900895AF92BF92CF92DF9290
:1002E000EF92FF920F931F93CF93DF936C017B01EB
:1002F0008B01040F151FEB015E01AE18BF08C0177C
:10030000D10759F06991D601ED91FC910190F081EE
:10031000E02DC6010995892B79F7C501DF91CF91B1
:100320001F910F91FF90EF90DF90CF90BF90AF9013
:100330000895FC01538D448D252F30E0842F90E0EB
:10034000821B930B541710F0CF96089501970895D0
:10035000FC01918D828D981761F0A28DAE0FBF2F99
:10036000B11D5D968C91928D9F5F9F73928F90E0EF
:1003700008958FEF9FEF0895EF92FF920F931F93D1
:10038000CF93DF937B018C01D0E0C0E02FB7F894CE
:100390008091AF039091B003A091B103B091B203EB
:1003A0002FBF8093BB039093BC03A093BD03B09376
:1003B000BE0383EB93E00E94A80197FF2CC02FB7E8
:1003C000F8948091AF039091B003A091B103B091E4
:1003D000B2032FBF4091BB035091BC036091BD039A
:1003E0007091BE03841B950BA60BB70B4091B7030E
:1003F0005091B8036091B9037091BA0384179507BF
:10040000A607B707B0F2CE01DF91CF911F910F91F0
:10041000FF90EF900895F80181938F012196EC16DB
:10042000FD0609F0B3CFEFCFFC01918D828D9817B7
:1004300031F0828DE80FF11D858D90E008958FEFEA
:100440009FEF0895FC01918D228D892F90E0805CB3
:100450009F4F821B91098F739927089583EB93E037
:100460000E94220221E0892B09F420E0822F0895C6
:1004700080E090E0892B29F00E942E0281110C94DB
:1004800000000895FC01A48DA80FB92FB11DA35A37
:10049000BF4F2C91848D90E001968F739927848FA4
:1004A000A689B7892C93A089B1898C9183708064C7
:1004B0008C93938D848D981306C00288F389E02D68
:1004C00080818F7D80830895EF92FF920F931F9319
:1004D000CF93DF93EC0181E0888F9B8D8C8D9813F7
:1004E0001AC0E889F989808185FF15C09FB7F89403
:1004F000EE89FF896083E889F9898081837080644F
:1005000080839FBF81E090E0DF91CF911F910F9199
:10051000FF90EF900895F62E0B8D10E00F5F1F4FA8
:100520000F731127E02E8C8D8E110CC00FB607FCB7
:10053000FACFE889F989808185FFF5CFCE010E9445
:100540004202F1CFEB8DEC0FFD2FF11DE35AFF4F6F
:10055000F0829FB7F8940B8FEA89FB8980818062D3
:10056000CFCFCF93DF93EC01888D8823B9F0AA8990
:10057000BB89E889F9898C9185FD03C0808186FD5E
:100580000DC00FB607FCF7CF8C9185FFF2CF8081AD
:1005900085FFEDCFCE010E944202E9CFDF91CF91DE
:1005A0000895982F9F7095B990E024E095958795D0
:1005B0002A95E1F7877088B981E10E94B5005F9ABA
:1005C0005F98089581110C94D1020895FF920F93C2
:1005D0001F93CF93DF93C62FD82FD627D0FF0EC0FF
:1005E000E8E2F0E08491162F1170612F0E94E20280
:1005F000F0E0E0E08491612F0E94E202D1FF0FC0A1
:10060000C1FB112710F9E1E1F0E08491612F0E9414
:10061000E202F0E0E0E08491612F0E94E202D2FF6A
:100620000FC0C2FBFF24F0F810E000E0F801849155
:100630006F2D0E94E202F80184916F2D0E94E20268
:10064000D3FF0FC0C3FBFF24F0F810E000E0F80177
:1006500084916F2D0E94E202F80184916F2D0E9417
:10066000E202D4FF0FC0C4FBFF24F0F810E000E06A
:10067000F80184916F2D0E94E202F80184916F2DA0
:100680000E94E202D5FF0FC0C5FB112710F9E1E17E
:10069000F0E08491612F0E94E202F0E0E0E08491BA
:1006A000612F0E94E202D6FF0FC0C6FBFF24F0F8C4
:1006B00010E000E0F80184916F2D0E94E202F80141
:1006C00084916F2D0E94E202D7FF10C010E000E07D
:1006D000F8018491DC2FDD1FDD27DD1F6D2F0E94C7
:1006E000E202F80184916D2F0E94E202809153038F
:1006F000882379F080915203811102C0CC2349F004
:10070000E82FF0E0E259FC4FC068C0838F5F809310
:100710005203DF91CF911F910F91FF90089561E0F7
:100720008EE00E94B50061E08FE00E94B50061E0BC
:1007300080E10E94B50061E081E10E94B50061E0C6
:100740008AE00E94B5005C9A5C980895CF93DF938D
:10075000EB010E94A00B8883CE01DF91CF91089519
:10076000FF920F931F93CF93DF93EC01F62E088136
:100770001981C8010E94A00BF81621F06F2DC80145
:100780000E94A80BCE01DF91CF911F910F91FF9096
:100790000895CF93DF9300D0CDB7DEB780EF93E01D
:1007A0009A8389836091AE03CE0101960E94B003C3
:1007B0008EEA93E00F900F90DF91CF910895EF9222
:1007C000FF920F931F93CF93DF9300D0CDB7DEB787
:1007D0000EE613E08E5693407C01C701800F911FF7
:1007E0009A838983F80161918F01CE0101960E945D
:1007F000B003F3E00E3A1F0781F78EE693E00F9007
:100800000F90DF91CF911F910F91FF90EF9008957E
:100810008F3F910511F00E94DF03109253038091E6
:1008200081008B6F809381008091070184608093A9
:1008300007014BE050E060E071E083EB93E00E9441
:100840006C011092520308950F931F93CF93DF937F
:1008500000D0CDB7DEB78B019A838983FB0160811D
:10086000CE0101960E94B003C8010F900F90DF9156
:10087000CF911F910F910895EF92FF920F931F93C5
:10088000CF93DF93882309F4EEC0162FC82F662379
:1008900009F41AC3893339F59091070191FD21C0FC
:1008A0009260909307014BE050E060E071E083EBD1
:1008B00093E00E946C018C2F90E0FC01EE0FFF1F73
:1008C000EB5EFE4F20812A31C1F560E082E00E949C
:1008D000B500DF91CF911F910F91FF90EF900C9495
:1008E0008F039D7FDECF8C3431F761E081E10E9480
:1008F000D10269E170E080E090E00E94390161E09E
:1009000085E30E94D10269E170E080E090E00E94FE
:10091000390160E085E30E94D10269E170E080E086
:1009200090E00E94390161E085E1DF91CF911F9154
:100930000F91FF90EF900C94D1022A3251F461E0B4
:1009400082E0DF91CF911F910F91FF90EF900C9477
:10095000B5002091610327FF03C028602093610345
:1009600020916103322F387023FF84C0CE3151F4BF
:100970001092AE03DF91CF911F910F91FF90EF90F6
:100980000C94C903CF3121F481E08093AE03F2CF00
:10099000C03211F482E0F9CFC13211F483E0F5CF17
:1009A000C73291F480910F0191E0892780930F0164
:1009B0006FE071E081EF93E0DF91CF911F910F9194
:1009C000FF90EF900C942404C63259F480911001EA
:1009D00091E089278093100160E171E082EF93E05C
:1009E000EBCFCA3209F046C010928000109281000D
:1009F00088E09DE390938900809388008091810036
:100A00008860809381008091810084608093810060
:100A100080916F00826080936F00EEE6F3E01192A8
:100A200083E0EE3AF807D9F710924B0310924C038B
:100A300010924D0310924E0310924F0310925003E8
:100A40001092430310924403109245031092460300
:100A5000109247031092480381E080935303109251
:100A6000520310924003DF91CF911F910F91FF909D
:100A7000EF900895C93271F420915303222351F06D
:100A80008FEF90E0DF91CF911F910F91FF90EF904A
:100A90000C94080426EC2C0F2C3008F010C1209187
:100AA00053032111E0CF66E0880F991F6A95E1F7A3
:100AB0001092520310924B0310924C0310924D036C
:100AC00010924E0310924F03109250037EEAE72ECD
:100AD00073E0F72E0EE613E0EC01CE5ED141CE01BD
:100AE000800F911F0E94A00BF80181938F01EE16D9
:100AF000FF06A9F7C0916E03CC2309F4B4CFE091AF
:100B00005203F0E0E259FC4FC081C7FF17C0DC2F51
:100B1000DF7780914003D81719F06D2F0E94E6020D
:100B2000D0934003809152038F5F8093520362E31E
:100B300070E080E090E00E943901DECF80914B03AD
:100B4000C8133EC060E08C2F0E943C0410924B03FF
:100B500081E090914C03C91307C060E08C2F0E9484
:100B60003C0410924C0381E090914D03C91307C0DF
:100B700060E08C2F0E943C0410924D0381E0909124
:100B80004E03C91307C060E08C2F0E943C041092F2
:100B90004E0381E090914F03C91307C060E08C2F92
:100BA0000E943C0410924F0381E0D0915003CD137A
:100BB00009C060E08C2F0E943C0410925003B2CF19
:100BC00080E0C7CF8111AECFAC2FB0E0AA0FBB1F22
:100BD000AB5EBE4F8C91882389F0E0915103F0E029
:100BE000EE0FFF1FEB5EFE4F9081992311F08917E6
:100BF000D1F09181992311F08917A9F011968C9168
:100C00008823B9F0E0915103F0E0EE0FFF1FEB5E97
:100C1000FE4F9081992311F0891729F09181992332
:100C200041F0891306C062E370E080E090E00E942A
:100C3000390180914B03811121C0C0934B0361E0C6
:100C400080914B030E943C0461E080914C030E9420
:100C50003C0461E080914D030E943C0461E080917E
:100C60004E030E943C0461E080914F030E943C04CB
:100C700061E0809150030E943C0454CF80914C036A
:100C8000811103C0C0934C03DACF80914D038111D1
:100C900003C0C0934D03D3CF80914E03811103C095
:100CA000C0934E03CCCF80914F03811103C0C093FA
:100CB0004F03C5CFD111C3CFC0935003C0CF311163
:100CC000D2CE80915303882309F445C0C23008F482
:100CD00042C050914303C51304C080913A031817D2
:100CE000D1F180914403C81304C090913B031917BC
:100CF00091F120914503C21304C090913C03191750
:100D000051F190914603C91304C030913D0313176C
:100D100011F130914703C31304C040913E031417EF
:100D2000D1F040914803C41304C060913F031617EB
:100D300091F0C51334C01111E3C080915203E82F24
:100D4000F0E0E259FC4FC0838F5F80935203109212
:100D50003A0310924303C0935103D0E0CC0FDD1F40
:100D6000CB5EDE4F612F88810E94E202612F898174
:100D7000DF91CF911F910F91FF90EF900C94E202C1
:100D8000911171CECC3409F09CCF60E085E30E94D4
:100D9000D10260E085E30E94D10260E0C5CDC813B6
:100DA00011C01111AFC080915203E82FF0E0E25959
:100DB000FC4FC0838F5F8093520310923B031092CD
:100DC0004403C9CFC21311C011119EC080915203B8
:100DD000E82FF0E0E259FC4FC0838F5F809352030D
:100DE00010923C0310924503B6CFC91311C01111E4
:100DF0008DC080915203E82FF0E0E259FC4FC08390
:100E00008F5F8093520310923D0310924603A3CF4D
:100E1000C31311C011117CC080915203E82FF0E080
:100E2000E259FC4FC0838F5F8093520310923E03C0
:100E30001092470390CFC41311C011116BC0809161
:100E40005203E82FF0E0E259FC4FC0838F5F80939C
:100E5000520310923F03109248037DCF51115DC0A1
:100E6000112309F464C0C093430381E080933A03E3
:100E700080915203E82FF0E0E259FC4FC0838F5F6E
:100E80008093520368CF211109C0112309F453C084
:100E9000C093450381E080933C03EACF911109C0E0
:100EA000112309F44AC0C093460381E080933D03B7
:100EB000DFCF311145C0112309F44DCFC093470353
:100EC00081E080933E03D4CF80916103982F987086
:100ED00083FF03C0CA3209F4C6CD86EC8C0F8C3078
:100EE00008F04ECF80915303882309F4BCCDCA5338
:100EF000DD0BCE0126E0880F991F2A95E1F7C2CDC0
:100F0000C81302C0C21371CFC91382CFC31393CFCA
:100F1000C413A4CF552309F4A6CF8111B4CF112354
:100F200041F0C093440381E080933B03A1CF811142
:100F300012C02111B3CF9111BCCF332309F40BCFD1
:100F4000411109CF112309F406CFC093480381E072
:100F500080933F038DCF2111F0CFEDCF8823D9F1BE
:100F6000E82FF0E0EE0FFF1FEB5EFE4F908161E097
:100F70009A3119F09A3229F460E082E00E94B500BB
:100F800008959B3121F460E08DE00C94E3009B32E6
:100F9000D1F39C3119F460E08CE0F7CF9C32D9F3A7
:100FA000909163038917B9F090916403891799F0C0
:100FB00090916503891779F090916603891759F02C
:100FC00090916703891739F090916803891719F098
:100FD00060E00C943C0408951F920F920FB60F929C
:100FE00011242F933F938F939F93AF93BF9380913F
:100FF000AF039091B003A091B103B091B2033091CF
:10100000690323E0230F2D3758F50196A11DB11D6B
:10101000209369038093AF039093B003A093B1032F
:10102000B093B20380916A0390916B03A0916C031B
:10103000B0916D030196A11DB11D80936A03909339
:101040006B03A0936C03B0936D03BF91AF919F911D
:101050008F913F912F910F900FBE0F901F90189579
:1010600026E8230F0296A11DB11DD2CF1F920F9229
:101070000FB60F9211242F933F934F935F936F936B
:101080007F938F939F93AF93BF93EF93FF9383EBE4
:1010900093E00E944202FF91EF91BF91AF919F9127
:1010A0008F917F916F915F914F913F912F910F9011
:1010B0000FBE0F901F9018951F920F920FB60F92B0
:1010C00011242F938F939F93EF93FF93E091C3038A
:1010D000F091C4038081E091C903F091CA0382FDBD
:1010E0001BC090818091CC038F5F8F732091CD03C3
:1010F000821741F0E091CC03F0E0ED54FC4F958F66
:101100008093CC03FF91EF919F918F912F910F903E
:101110000FBE0F901F9018958081F4CF1F920F92F1
:101120000FB60F9211242F933F934F935F936F93BA
:101130007F938F939F93AF93BF93EF93FF93809190
:10114000070182FD1CC08460809307014BE050E0E2
:1011500060E071E083EB93E00E946C01FF91EF91FE
:10116000BF91AF919F918F917F916F915F914F91BF
:101170003F912F910F900FBE0F901F9018958B7F6E
:10118000E3CFCF93DF9300D0CDB7DEB7789484B5AB
:10119000826084BD84B5816084BD85B5826085BD73
:1011A00085B5816085BD80916E00816080936E0001
:1011B00010928100809181008260809381008091F3
:1011C00081008160809381008091800081608093A4
:1011D00080008091B10084608093B1008091B00064
:1011E00081608093B00080917A00846080937A005F
:1011F00080917A00826080937A0080917A00816089
:1012000080937A0080917A00806880937A001092AF
:10121000C10061E082E00E94E30061E082E00E94A0
:10122000B50061E084E00E94E30061E085E00E9497
:10123000E30061E086E00E94E30061E087E00E9455
:10124000E30061E088E00E94E30061E089E00E9441
:10125000E30061E08AE00E94E30061E08BE00E942D
:10126000E30061E08EE00E94E30061E08FE00E9415
:10127000E30061E080E10E94E30061E081E10E941F
:10128000E30015B818B85D9A5D9815B818B85E9A5D
:101290005E988FE085B988B95C9A5C98109261007D
:1012A000F8948FEF93E00E94A00B8433D9F1EEE61F
:1012B000F3E08EEA93E011928E179F07E1F710E0BA
:1012C00000E0C8010E94DF03005C1F4F011543E0EE
:1012D0001407B9F780EF93E09A83898360E0CE0129
:1012E00001960E94B00381EF93E09A83898360E0C6
:1012F000CE0101960E94B00311E01983BE016F5F19
:101300007F4F81EF93E00E9424041983BE016F5F39
:101310007F4F82EF93E00E94240464E38FEF93E019
:101320000E94A80B109280001092810088E09DE33B
:1013300090938900809388008091810088608093D9
:10134000810080916F00826080936F00789480EFBD
:1013500093E00E94A00B8093AE036FE071E081EFF9
:1013600093E00E94A60360E171E082EF93E00E94A7
:10137000A603EEE6F3E08EEA93E011928E179F0744
:10138000E1F79EE190936E032FE120936F0380E2DB
:10139000809370032093710390937203809373037F
:1013A000E091C303F091C40382E08083E091BF0326
:1013B000F091C0031082E091C103F091C20380E17B
:1013C00080831092CB03E091C703F091C80386E0BD
:1013D0008083E091C503F091C603808180618083A2
:1013E000E091C503F091C603808188608083E0911D
:1013F000C503F091C603808180688083E091C503B6
:10140000F091C60380818F7D808380910701846085
:10141000809307014BE050E060E071E083EB93E0E4
:101420000E946C0121EB622E20E0722E3DE9E32E3A
:1014300030E0F32E49E8C42E40E0D42E88248A946C
:10144000912C6FE0462E70E0A72E70E0B72EF301CE
:101450008491F7011491F601049101112AC00E94B0
:101460008F0383EB93E00E9422020397C4F083EB87
:1014700093E00E94A8018735910589F483EB93E0FE
:101480000E94A8018B3A910551F483EB93E00E94EE
:10149000A80181309105E1F0029709F47CC0A11404
:1014A000B104A9F20E942E02882389F20E94000052
:1014B000CECF81110E948C00E02FF0E0EE0FFF1FD5
:1014C000E859FF4FA591B4918C91182341F2C9CFEF
:1014D00068E070E081E693E00E94BC0180915603D1
:1014E0000E94AE07809157030E94AE078091580377
:1014F0000E94AE07809159030E94AE0780915A0363
:101500000E94AE0780915B030E94AE076091610369
:10151000809154036813E2C061E0809163030E94EC
:101520003C0461E0809164030E943C0461E080918E
:1015300065030E943C0461E0809166030E943C04C4
:1015400061E0809167030E943C0461E08091680340
:101550000E943C0480916103809354038091620354
:1015600080935503809163038093560380916403B5
:10157000809357038091650380935803809166039D
:10158000809359038091670380935A038091680385
:1015900080935B0384CF64E070E081E191E00E947E
:1015A000BC018091120190E08038910508F09A9575
:1015B00020915F0330916003820F931F909360032B
:1015C00080935F032091130130E02038310508F04B
:1015D0003A9540915D0350915E03240F351F30937F
:1015E0005E0320935D0330901101509114014091EE
:1015F0005C0360911001662309F473C0451B40939E
:101600005C034091AE03042E02C0969587950A9420
:10161000E2F702C0369527954A95E2F7A401421BEE
:10162000530B9A0150905C03482F4F7045B944E02A
:10163000969587954A95E1F78F70992788B95D9AB5
:101640005D98822F8F7085B954E0369527955A950D
:10165000E1F72F70332728B95E9A5E9845B848B8ED
:10166000032D10E000951095B8017695679561708F
:1016700088E00E94B500632D6095617089E00E944A
:10168000B5001695079516950795602F61708AE04D
:101690000E94B500052D10E0652D61708EE00E945E
:1016A000B500B8017695679561708FE00E94B5002E
:1016B000B8017695679576956795617080E10E948F
:1016C000B50083E0169507958A95E1F7602F617064
:1016D00081E10E94B5005C9A5C98E1CE0E94E6022E
:1016E0001BCF450F8CCFE3EBF3E01382128288EE21
:1016F00093E0A0E0B0E084839583A683B78389E27A
:1017000093E09183808385EC90E09587848784ECD7
:1017100090E09787868780EC90E0918B808B81ECBE
:1017200090E0938B828B82EC90E0958B848B86EC9F
:1017300090E0978B868B118E128E138E148E0895E7
:10174000F999FECF92BD81BDF89A992780B5089589
:10175000262FF999FECF1FBA92BD81BD20BD0FB6CD
:10176000F894FA9AF99A0FBE01960895EE0FFF1FAA
:0C1770000590F491E02D0994F894FFCF4F
:10177C0057AB12000000000020FF21000000000108
:10178C0001FF0000FF0000000000000000120058E4
:10179C00004100320033004200520057003600472F
:1017AC0000370027003800480026001600130043BD
:1017BC000022005300460051002300310056002146
:1017CC00001400240034004400540055004500353A
:1017DC0000250015001700181111151114180028F8
:1017EC004728372816282700002858282628211192
:1017FC002828482838284111240000000000000047
:10180C0000000000000000000000001C001B001A7B
:10181C00001125000000000000000000000000285E
:10182C003528251135115411551145000028512822
:10183C00582847283717001400240034004400545B
:10184C000055004500350025001500283800000023
:10185C00000000000000000000000000000000007C
:10186C00000000000000000000000000000000006C
:10187C00000000000000000000000000000000005C
:10188C00000000000000000000000000000000004C
:10189C00000000000000000000000000000000003C
:1018AC00000000000000000000000000000000002C
:1018BC00000000000000000000000000000000001C
:1018CC00000000000000000000000000000000000C
:1018DC0000000000000000000000000000000000FC
:1018EC0000000000000000000000000000000000EC
:1018FC0000000000000000000000000000000000DC
:10190C0000000000000000000000000000000000CB
:10191C0000000000000000000000000000000000BB
:10192C0000000000000000000000000000000000AB
:10193C00000000000000000000000000000000009B
:10194C000000000000280011000000000000001141
:10195C00000000000000000000000000000000007B
:10196C00000000000000000000000000000000006B
:10197C00000000000000000000000000000000005B
:10198C000000000000AAFFAAFFAAFFAAFF000000A7
:10199C0000000000000000000064026C019901B11D
:0819AC00022202A8011402004E
:00000001FF
