:100000000C946A010C9492010C9492010C9492014C
:100010000C9492010C9492010C9492010C94920114
:100020000C9492010C9492010C9492010C94F70997
:100030000C9492010C9492010C9492010C949201F4
:100040000C9455090C9492010C94C5090C949F09C9
:100050000C9492010C9492010C9492010C949201D4
:100060000C9492010C94920100000000000000002A
:100070001200580041003200330042005200570085
:1000800036004700370027003800480026001600D9
:1000900013004300220053004600510023003100AA
:1000A0005600210014002400340044005400550080
:1000B0004500350025001500170018111115111401
:1000C00018002847283728162827000028582826EF
:1000D0002821112828482838284111240000000030
:1000E00000000000000000000000000000001C00F4
:1000F0001B001A0011250000000000000000000095
:1001000000002835282511351154115511450000DE
:100110002851285828472837170014002400340095
:1001200044005400550045003500250015002838CE
:1001300000000000000000000000000000000000BF
:1001400000000000000000000000000000000000AF
:10015000000000000000000000000000000000009F
:10016000000000000000000000000000000000008F
:10017000000000000000000000000000000000007F
:10018000000000000000000000000000000000006F
:10019000000000000000000000000000000000005F
:1001A000000000000000000000000000000000004F
:1001B000000000000000000000000000000000003F
:1001C000000000000000000000000000000000002F
:1001D000000000000000000000000000000000001F
:1001E000000000000000000000000000000000000F
:1001F00000000000000000000000000000000000FF
:1002000000000000000000000000000000000000EE
:1002100000000000000000000000000000000000DE
:100220000000000000000000280011000000000095
:1002300000001100000000000000000000000000AD
:1002400000000000000000000000000000000000AE
:10025000000000000000000000000000000000009E
:100260000000000000000000AAFFAAFFAAFFAAFFEA
:100270000000000000000000000000002300260035
:10028000290000000000240027002A0000000000D0
:10029000250028002B0004040404040404040202C2
:1002A00002020202030303030303010204081020F5
:1002B0004080010204081020010204081020000000
:1002C0000008000201000003040700000000000015
:1002D0000000D40C11241FBECFEFD8E0DEBFCDBF8D
:1002E00022E0A8E2B1E001C01D92A034B207E1F71C
:1002F00011E0A0E0B1E0EEE3FAE102C005900D925A
:10030000A832B107D9F711E0CAE6D1E004C02197BD
:10031000FE010E94170DC936D107C9F70E942A0AAB
:100320000C941D0D0C940000833081F028F4813072
:1003300099F08230A9F008958730A9F08830C9F08B
:100340008430B1F4809180008F7D03C08091800063
:100350008F7780938000089584B58F7784BD08954A
:1003600084B58F7DFBCF8091B0008F778093B000F4
:1003700008958091B0008F7DF9CF1F93CF93DF93C5
:10038000282F30E0F901E254FD4F8491F901E65540
:10039000FD4FD491F901EA56FD4FC491CC23A9F049
:1003A000162F81110E949401EC2FF0E0EE0FFF1F39
:1003B000E457FD4FA591B4918FB7F894EC911111CA
:1003C00008C0D095DE23DC938FBFDF91CF911F91C2
:1003D0000895DE2BF8CFCF93DF9390E0FC01E65534
:1003E000FD4F24918A569D4FFC0184918823D1F0C2
:1003F00090E0880F991FFC01EE57FD4FA591B49135
:10040000FC01E457FD4FC591D49161110EC09FB717
:10041000F8948C91E22FE0958E238C932881E2232F
:10042000E8839FBFDF91CF9108958FB7F894EC9147
:10043000E22BEC938FBFF6CF3FB7F89480915A012F
:1004400090915B01A0915C01B0915D0126B5A89BE4
:1004500005C02F3F19F00196A11DB11D3FBFBA2F56
:10046000A92F982F8827BC01CD01620F711D811D16
:10047000911D42E0660F771F881F991F4A95D1F79B
:1004800008958F929F92AF92BF92CF92DF92EF9298
:10049000FF926B017C010E941C024B015C01C114A4
:1004A000D104E104F104B9F00E941C026819790931
:1004B0008A099B09683E73408105910580F321E01C
:1004C000C21AD108E108F10888EE880E83E0981E70
:1004D000A11CB11CE4CFFF90EF90DF90CF90BF90B4
:1004E000AF909F908F900895AF92BF92CF92DF927E
:1004F000EF92FF920F931F93CF93DF936C017B01D9
:100500008B01040F151FEB015E01AE18BF08C01769
:10051000D10759F06991D601ED91FC910190F081DC
:10052000E02DC6010995892B79F7C501DF91CF919F
:100530001F910F91FF90EF90DF90CF90BF90AF9001
:100540000895FC01538D448D252F30E0842F90E0D9
:10055000821B930B541710F0CF96089501970895BE
:10056000FC01918D828D981761F0A28DAE0FBF2F87
:10057000B11D5D968C91928D9F5F9F73928F90E0DD
:1005800008958FEF9FEF0895EF92FF920F931F93BF
:10059000CF93DF937B018C01D0E0C0E02FB7F894BC
:1005A00080919F019091A001A091A101B091A20121
:1005B0002FBF8093AB019093AC01A093AD01B0939A
:1005C000AE0183EA91E00E94B00297FF2CC02FB7E2
:1005D000F89480919F019091A001A091A101B09108
:1005E000A2012FBF4091AB015091AC016091AD01D0
:1005F0007091AE01841B950BA60BB70B4091A70120
:100600005091A8016091A9017091AA0184179507E2
:10061000A607B707B0F2CE01DF91CF911F910F91DE
:10062000FF90EF900895F80181938F012196EC16C9
:10063000FD0609F0B3CFEFCFFC01918D828D9817A5
:1006400031F0828DE80FF11D858D90E008958FEFD8
:100650009FEF0895FC01918D228D892F90E0805CA1
:100660009F4F821B91098F739927089583EA91E028
:100670000E942A0321E0892B09F420E0822F0895AB
:1006800080E090E0892B29F00E94360381110C94C0
:1006900000000895FC01A48DA80FB92FB11DA35A25
:1006A000BF4F2C91848D90E001968F739927848F92
:1006B000A689B7892C93A089B1898C9183708064B5
:1006C0008C93938D848D981306C00288F389E02D56
:1006D00080818F7D80830895EF92FF920F931F9307
:1006E000CF93DF93EC0181E0888F9B8D8C8D9813E5
:1006F0001AC0E889F989808185FF15C09FB7F894F1
:10070000EE89FF896083E889F9898081837080643C
:1007100080839FBF81E090E0DF91CF911F910F9187
:10072000FF90EF900895F62E0B8D10E00F5F1F4F96
:100730000F731127E02E8C8D8E110CC00FB607FCA5
:10074000FACFE889F989808185FFF5CFCE010E9433
:100750004A03F1CFEB8DEC0FFD2FF11DE35AFF4F54
:10076000F0829FB7F8940B8FEA89FB8980818062C1
:10077000CFCFCF93DF93EC01888D8823B9F0AA897E
:10078000BB89E889F9898C9185FD03C0808186FD4C
:100790000DC00FB607FCF7CF8C9185FFF2CF80819B
:1007A00085FFEDCFCE010E944A03E9CFDF91CF91C3
:1007B0000895982F9F7095B990E024E095958795BE
:1007C0002A95E1F7877088B981E10E94BD015F9A9F
:1007D0005F98089581110C94D90308951F93CF93C6
:1007E000DF93C62FD82FD627D0FF0EC0E8E2F2E065
:1007F0008491162F1170612F0E94EA03E9E2F2E062
:100800008491612F0E94EA03D1FF0FC0C1FB112721
:1008100010F9EAE2F2E08491612F0E94EA03EBE230
:10082000F2E08491612F0E94EA03D2FF0FC0C2FB65
:10083000112710F9ECE2F2E08491612F0E94EA03A3
:10084000EDE2F2E08491612F0E94EA03D3FF0FC032
:10085000C3FB112710F9EEE2F2E08491612F0E94B0
:10086000EA03EFE2F2E08491612F0E94EA03D4FFF1
:100870000FC0C4FB112710F9E0E3F2E08491612F6F
:100880000E94EA03E1E3F2E08491612F0E94EA030F
:10089000D5FF0FC0C5FB112710F9E2E3F2E0849108
:1008A000612F0E94EA03E3E3F2E08491612F0E944A
:1008B000EA03D6FF0FC0C6FB112710F9E4E3F2E00C
:1008C0008491612F0E94EA03E5E3F2E08491612FB5
:1008D0000E94EA03D7FF10C0E6E3F2E08491DC2F28
:1008E000DD1FDD27DD1F6D2F0E94EA03E7E3F2E045
:1008F00084916D2F0E94EA0380914301882379F04F
:1009000080914201811102C0CC2349F0E82FF0E030
:10091000E25AFE4FC068C0838F5F80934201DF912F
:10092000CF911F91089561E08EE00E94BD0161E0CA
:100930008FE00E94BD0161E080E10E94BD0161E0A5
:1009400081E10E94BD0161E08AE00E94BD015C9AE4
:100950005C980895CF93DF93EB010E94010D88838B
:10096000CE01DF91CF910895FF920F931F93CF9304
:10097000DF93EC01F62E08811981C8010E94010D58
:10098000F81621F06F2DC8010E94090DCE01DF91EC
:10099000CF911F910F91FF900895CF93DF9300D0D7
:1009A000CDB7DEB780EF93E09A83898360919E0193
:1009B000CE0101960E94B4048EE991E00F900F9051
:1009C000DF91CF910895EF92FF920F931F93CF93F2
:1009D000DF9300D0CDB7DEB70EE511E08E55914024
:1009E0007C01C701800F911F9A838983F80161916F
:1009F0008F01CE0101960E94B404F1E00E391F0769
:100A000081F78EE591E00F900F90DF91CF911F91CC
:100A10000F91FF90EF9008958F3F910511F00E9484
:100A2000E30410924301809181008B6F80938100D9
:100A3000809107018460809307014BE050E060E003
:100A400071E083EA91E00E947402109242010895DD
:100A50000F931F93CF93DF9300D0CDB7DEB78B01F9
:100A60009A838983FB016081CE0101960E94B404C0
:100A7000C8010F900F90DF91CF911F910F910895B2
:100A8000EF92FF920F931F93CF93DF93882309F484
:100A9000F0C0162FC82F662309F450C3893339F5E7
:100AA0008091070181FD21C08260809307014BE0A6
:100AB00050E060E071E083EA91E00E9474028C2FC4
:100AC00090E0FC01EE0FFF1FE859FF4F24912A31FF
:100AD000C1F560E082E00E94BD01DF91CF911F91DE
:100AE0000F91FF90EF900C9493048D7FDECF8C34A8
:100AF00031F761E081E10E94D90369E170E080E0B3
:100B000090E00E94410261E085E30E94D90369E11F
:100B100070E080E090E00E94410260E085E30E9486
:100B2000D90369E170E080E090E00E94410261E059
:100B300085E1DF91CF911F910F91FF90EF900C9481
:100B4000D903E491EA3251F461E082E0DF91CF9180
:100B50001F910F91FF90EF900C94BD0120915101D6
:100B600027FF03C028602093510120915101322FAB
:100B7000387023FF85C0CE3151F410929E01DF9171
:100B8000CF911F910F91FF90EF900C94CD04CF3136
:100B900021F481E080939E01F2CFC03211F482E013
:100BA000F9CFC13211F483E0F5CFC73291F48091CF
:100BB0000F0191E0892780930F016FE071E081EFD1
:100BC00093E0DF91CF911F910F91FF90EF900C94E4
:100BD0002805C63259F48091100191E0892780934D
:100BE000100160E171E082EF93E0EBCFCA3209F0CF
:100BF00047C0109280001092810088E09DE390939E
:100C000089008093880080918100886080938100B2
:100C10008091810084608093810080916F00826068
:100C200080936F00EEE5F1E08EE991E011928E176E
:100C30009F07E1F710923B0110923C0110923D0199
:100C400010923E0110923F01109240011092330128
:100C50001092340110923501109236011092370132
:100C60001092380181E0809343011092420110926A
:100C70003001DF91CF911F910F91FF90EF90089578
:100C8000C93271F420914301222351F08FEF90E09B
:100C9000DF91CF911F910F91FF90EF900C940C0575
:100CA00026EC2C0F2C3008F040C12091430121117B
:100CB000E0CFF6E0880F991FFA95E1F71092420114
:100CC00010923B0110923C0110923D0110923E01A6
:100CD00010923F0110924001AEE9EA2EA1E0FA2EF7
:100CE0000EE511E0EC01CE5DDF40CE01800F911FDB
:100CF0000E94010DF80181938F01EE16FF06A9F7FE
:100D0000C0915E01CC2309F4B4CFE0914201F0E040
:100D1000E25AFE4FC081C7FF17C0DC2FDF778091FA
:100D20003001D81719F06D2F0E94EE03D0933001D7
:100D3000809142018F5F8093420162E370E080E026
:100D400090E00E944102DECF80913B01C8133EC07B
:100D500060E08C2F0E94400510923B0181E0909151
:100D60003C01C91307C060E08C2F0E94400510921F
:100D70003C0181E090913D01C91307C060E08C2FD8
:100D80000E94400510923D0181E090913E01C913FF
:100D900007C060E08C2F0E94400510923E0181E068
:100DA00090913F01C91307C060E08C2F0E9440055D
:100DB00010923F0181E0D0914001CD1309C060E065
:100DC0008C2F0E94400510924001B2CF80E0C7CF27
:100DD0008111AECF8C2F90E0880F991FAC0148593C
:100DE0005F4FFA012491222391F02091410130E0DC
:100DF000220F331F28593F4FF9016491662339F0C0
:100E0000FA016491F9012491621709F442C0FA01D0
:100E10002491222391F02091410130E0220F331FD1
:100E200027593F4FF9016491662339F0FA01449143
:100E3000F9012491421709F42CC087599F4FFC01F6
:100E40002491222389F02091410130E0220F331FA9
:100E500028593F4FF9014491442331F0FC0144915A
:100E6000F90124914217A9F0FC0124912223B9F041
:100E70002091410130E0220F331F27593F4FF901E4
:100E80004491442361F0FC018491F901249182137F
:100E900006C062E370E080E090E00E944102809131
:100EA0003B01811121C0C0933B0161E080913B0176
:100EB0000E94400561E080913C010E94400561E094
:100EC00080913D010E94400561E080913E010E94B9
:100ED000400561E080913F010E94400561E0809102
:100EE00040010E94400524CF80913C01811103C044
:100EF000C0933C01DACF80913D01811103C0C093C2
:100F00003D01D3CF80913E01811103C0C0933E01CA
:100F1000CCCF80913F01811103C0C0933F01C5CF69
:100F2000D111C3CFC0934001C0CF3111A2CE809167
:100F30004301882309F445C0C23008F442C05091EF
:100F40003301C51304C080912A011817D1F13091E3
:100F50003401C31304C080912B01181791F19091B3
:100F60003501C91304C080912C01181751F18091EB
:100F70003601C81304C020912D01121711F12091E0
:100F80003701C21304C040912E011417D1F04091D3
:100F90003801C41304C060912F01161791F0C513D6
:100FA00038C01111E7C080914201E82FF0E0E25A09
:100FB000FE4FC0838F5F8093420110922A011092EE
:100FC0003301C0934101D0E0CC0FDD1FFE01E85991
:100FD000FF4F8491612F0E94EA03FE01E759FF4F02
:100FE0008491612FDF91CF911F910F91FF90EF902E
:100FF0000C94EA0391113DCECC3409F098CF60E017
:1010000085E30E94D90360E085E30E94D90360E094
:101010008FCDC31311C01111AFC080914201E82FD1
:10102000F0E0E25AFE4FC0838F5F8093420110923E
:101030002B0110923401C5CFC91311C011119EC0EC
:1010400080914201E82FF0E0E25AFE4FC0838F5FAB
:101050008093420110922C0110923501B2CFC81337
:1010600011C011118DC080914201E82FF0E0E25AC9
:10107000FE4FC0838F5F8093420110922D0110922A
:1010800036019FCFC21311C011117CC08091420163
:10109000E82FF0E0E25AFE4FC0838F5F8093420159
:1010A00010922E01109237018CCFC41311C0111170
:1010B0006BC080914201E82FF0E0E25AFE4FC083FE
:1010C0008F5F8093420110922F011092380179CFE7
:1010D00051115DC0112309F464C0C093330181E054
:1010E00080932A0180914201E82FF0E0E25AFE4FFE
:1010F000C0838F5F8093420164CF911109C0112397
:1011000009F453C0C093350181E080932C01EACFEC
:10111000811109C0112309F44AC0C093360181E04E
:1011200080932D01DFCF211145C0112309F449CF50
:10113000C093370181E080932E01D4CF809151017B
:10114000982F987083FF03C0CA3209F492CD86ECC1
:101150008C0F8C3008F04ECF80914301882309F426
:1011600088CDCA53DD0BCE0126E0880F991F2A9542
:10117000E1F78ECDC31302C0C91371CFC81382CF5C
:10118000C21393CFC413A4CF552309F4A6CF3111B2
:10119000B4CF112341F0C093340181E080932B013F
:1011A000A1CF311112C09111B3CF8111BCCF222335
:1011B00009F407CF411105CF112309F402CFC093E1
:1011C000380181E080932F018DCF9111F0CFEDCFC9
:1011D0001F93CF93DF93882309F463C0182FC82F80
:1011E000D0E0CC0FDD1FC859DF4FFE0184918A315A
:1011F00009F034C061E082E00E94BD0181E0FE019F
:1012000094919A3229F460E082E00E94BD0181E06D
:10121000FE0194919B3129F460E08DE00E94EB0186
:1012200081E0FE0194919B3229F460E08DE00E9400
:10123000EB0181E0FE0194919C3129F460E08CE0A7
:101240000E94EB0181E0FE01C491CC3249F460E0E0
:101250008CE0DF91CF911F910C94EB0180E0CFCF18
:1012600081111FC0809153011817D9F0809154014A
:101270001817B9F080915501181799F0809156010F
:10128000181779F080915701181759F0809158017B
:10129000181739F060E0812FDF91CF911F910C94E6
:1012A0004005DF91CF911F9108951F920F920FB6C5
:1012B0000F9211242F933F938F939F93AF93BF93DC
:1012C00080919F019091A001A091A101B091A201F4
:1012D0003091590123E0230F2D3758F50196A11DB8
:1012E000B11D2093590180939F019093A001A09379
:1012F000A101B093A20180915A0190915B01A0914C
:101300005C01B0915D010196A11DB11D80935A0150
:1013100090935B01A0935C01B0935D01BF91AF918D
:101320009F918F913F912F910F900FBE0F901F9023
:10133000189526E8230F0296A11DB11DD2CF1F924A
:101340000F920FB60F9211242F933F934F935F93F9
:101350006F937F938F939F93AF93BF93EF93FF937D
:1013600083EA91E00E944A03FF91EF91BF91AF9110
:101370009F918F917F916F915F914F913F912F91AD
:101380000F900FBE0F901F9018951F920F920FB6DF
:101390000F9211242F938F939F93EF93FF93E091DC
:1013A000B301F091B4018081E091B901F091BA01EB
:1013B00082FD1BC090818091BC018F5F8F73209153
:1013C000BD01821741F0E091BC01F0E0ED55FE4F08
:1013D000958F8093BC01FF91EF919F918F912F91F9
:1013E0000F900FBE0F901F9018958081F4CF1F9221
:1013F0000F920FB60F9211242F933F934F935F9349
:101400006F937F938F939F93AF93BF93EF93FF93CC
:101410008091070182FD1CC08460809307014BE02E
:1014200050E060E071E083EA91E00E947402FF9175
:10143000EF91BF91AF919F918F917F916F915F914C
:101440004F913F912F910F900FBE0F901F901895C5
:101450008B7FE3CFCF93DF9300D0CDB7DEB7789407
:1014600084B5826084BD84B5816084BD85B58260A9
:1014700085BD85B5816085BD80916E00816080935A
:101480006E001092810080918100826080938100C3
:1014900080918100816080938100809180008160D3
:1014A000809380008091B10084608093B10080912E
:1014B000B00081608093B00080917A008460809356
:1014C0007A0080917A00826080937A0080917A001D
:1014D000816080937A0080917A00806880937A009E
:1014E0001092C10061E082E00E94EB0161E082E0C5
:1014F0000E94BD0161E084E00E94EB0161E085E0B3
:101500000E94EB0161E086E00E94EB0161E087E070
:101510000E94EB0161E088E00E94EB0161E089E05C
:101520000E94EB0161E08AE00E94EB0161E08BE048
:101530000E94EB0161E08EE00E94EB0161E08FE030
:101540000E94EB0161E080E10E94EB0161E081E13A
:101550000E94EB0115B818B85D9A5D9815B818B8D7
:101560005E9A5E988FE085B988B95C9A5C98109213
:101570006100F8948FEF93E00E94010D8433D9F15C
:10158000EEE5F1E08EE991E011928E179F07E1F709
:1015900010E000E0C8010E94E304005C1F4F011549
:1015A00043E01407B9F780EF93E09A83898360E002
:1015B000CE0101960E94B40481EF93E09A8389835F
:1015C00060E0CE0101960E94B40411E01983BE01CF
:1015D0006F5F7F4F81EF93E00E9428051983BE0162
:1015E0006F5F7F4F82EF93E00E94280564E38FEFE7
:1015F00093E00E94090D109280001092810088E013
:101600009DE3909389008093880080918100886099
:101610008093810080916F00826080936F00789446
:1016200080EF93E00E94010D80939E016FE071E0D6
:1016300081EF93E00E94AA0460E171E082EF93E001
:101640000E94AA04EEE5F1E08EE991E011928E1776
:101650009F07E1F79EE190935E012FE120935F01E8
:1016600080E28093600120936101909362018093F6
:101670006301E091B301F091B40182E08083E091D5
:10168000AF01F091B0011082E091B101F091B2018F
:1016900080E180831092BB01E091B701F091B80125
:1016A00086E08083E091B501F091B6018081806190
:1016B0008083E091B501F091B601808188608083DC
:1016C000E091B501F091B601808180688083E0915E
:1016D000B501F091B60180818F7D808380910701F3
:1016E00084608093070121EC622E22E0722E3DEA95
:1016F000E32E32E0F32E49E9C42E42E0D42E8824B2
:101700008A94912C6FE0462E70E0A72E70E0B72EE1
:10171000F3018491F7011491F601049101112AC09B
:101720000E94930483EA91E00E942A030397C4F085
:1017300083EA91E00E94B0028735910589F483EA3B
:1017400091E00E94B0028B3A910551F483EA91E056
:101750000E94B00281309105E1F0029709F47CC04B
:10176000A114B104A9F20E943603882389F20E94D1
:101770000000CECF81110E949401E02FF0E0EE0F27
:10178000FF1FE858FD4FA591B4918C91182341F2A9
:10179000C9CF68E070E081E591E00E94C4028091C9
:1017A00046010E94E808809147010E94E808809164
:1017B00048010E94E808809149010E94E808809150
:1017C0004A010E94E80880914B010E94E80860915C
:1017D0005101809144016813E2C061E0809153019E
:1017E0000E94400561E0809154010E94400561E043
:1017F000809155010E94400561E0809156010E9450
:10180000400561E0809157010E94400561E08091B0
:1018100058010E94400580915101809344018091BC
:10182000520180934501809153018093460180913C
:101830005401809347018091550180934801809124
:101840005601809349018091570180934A0180910C
:10185000580180934B0184CF64E070E081E191E016
:101860000E94C4028091120190E08038910508F036
:101870009A9520914F0130915001820F931F9093C0
:10188000500180934F012091130130E02038310541
:1018900008F03A9540914D0150914E01240F351FAB
:1018A00030934E0120934D0130901101509114015D
:1018B00040914C0160911001662309F473C0451BEF
:1018C00040934C0140919E01042E02C0969587954D
:1018D0000A94E2F702C0369527954A95E2F7A401EB
:1018E000421B530B9A0150904C01482F4F7045B941
:1018F00044E0969587954A95E1F78F70992788B9C6
:101900005D9A5D98822F8F7085B954E03695279542
:101910005A95E1F72F70332728B95E9A5E9845B83B
:1019200048B8032D10E000951095B801769567959D
:10193000617088E00E94BD01632D6095617089E04F
:101940000E94BD011695079516950795602F617049
:101950008AE00E94BD01052D10E0652D61708EE0CA
:101960000E94BD01B8017695679561708FE00E9475
:10197000BD01B8017695679576956795617080E1B0
:101980000E94BD0183E0169507958A95E1F7602FC7
:10199000617081E10E94BD015C9A5C98E1CE0E9479
:1019A000EE031BCF450F8CCFE3EAF1E013821282E6
:1019B00088EE93E0A0E0B0E084839583A683B783AC
:1019C00089E191E09183808385EC90E0958784871D
:1019D00084EC90E09787868780EC90E0918B808BF9
:1019E00081EC90E0938B828B82EC90E0958B848BE2
:1019F00086EC90E0978B868B118E128E138E148E50
:101A00000895F999FECF92BD81BDF89A992780B5C6
:101A10000895262FF999FECF1FBA92BD81BD20BD32
:101A20000FB6F894FA9AF99A0FBE01960895EE0F40
:0E1A3000FF1F0590F491E02D0994F894FFCF6C
:101A3E0057AB12000000000020FF21000000000143
:101A4E0001FF0000FF000000006C037402A102B948
:081A5E00032A03B0021C03007F
:00000001FF
