:100000000C946A010C9492010C9492010C9492014C
:100010000C9492010C9492010C9492010C94920114
:100020000C9492010C9492010C9492010C943A0A53
:100030000C9492010C9492010C9492010C949201F4
:100040000C9498090C9492010C94080A0C94E209FF
:100050000C9492010C9492010C9492010C949201D4
:100060000C9492010C94920100000000000000002A
:100070001200580041003200330042005200570085
:1000800036004700370027003800480026001600D9
:1000900013004300220053004600510023003100AA
:1000A0005600210014002400340044005400550080
:1000B0004500350025001500170018111115111401
:1000C00018002847283728162827000028582826EF
:1000D0002821112828482838284111240000000030
:1000E000000000000000000000001E001D001C00B9
:1000F0001B001A0011250000000000000000000095
:1001000000002835282511351154115511450000DE
:100110002851285828472837170014002400340095
:1001200044005400550045003500250015002838CE
:1001300000000000000000000000000000000000BF
:1001400000000000000000000000000000000000AF
:10015000000000000000000000000000000000009F
:10016000000000000000000000000000000000008F
:10017000000000000000000000000000000000007F
:10018000000000000000000000000000000000006F
:10019000000000000000000000000000000000005F
:1001A000000000000000000000000000000000004F
:1001B000000000000000000000000000000000003F
:1001C000000000000000000000000000000000002F
:1001D000000000000000000000000000000000001F
:1001E000000000000000000000000000000000000F
:1001F00000000000000000000000000000000000FF
:1002000000000000000000000000000000000000EE
:1002100000000000000000000000000000000000DE
:100220000000000000000000280011000000000095
:100230000000280000000000000000000000000096
:1002400000000000000000000000000000000000AE
:10025000000000000000000000000000000000009E
:100260000000000000000000AAFFAAFFAAFFAAFFEA
:100270000000000000000000000000002400270033
:100280002A0000000000250028002B0000000000CC
:1002900023002600290004040404040404040202C8
:1002A00002020202030303030303010204081020F5
:1002B0004080010204081020010204081020000000
:1002C0000008000201000003040700000000000015
:1002D0000000FB1211241FBECFEFD8E0DEBFCDBF60
:1002E00022E0A8E2B1E001C01D92AB35B207E1F710
:1002F00011E0A0E0B1E0ECE8F6E202C005900D925A
:10030000A832B107D9F711E0CAE6D1E004C02197BD
:10031000FE010E943E13C936D107C9F70E94C50AE3
:100320000C9444130C940000833081F028F4813045
:1003300099F08230A9F008958730A9F08830C9F08B
:100340008430B1F4809180008F7D03C08091800063
:100350008F7780938000089584B58F7784BD08954A
:1003600084B58F7DFBCF8091B0008F778093B000F4
:1003700008958091B0008F7DF9CFCF93DF93E1EDA9
:10038000F2E08491EDEBF2E0D491E9EAF2E0C4917D
:10039000CC23A1F081110E949401EC2FF0E0EE0F2C
:1003A000FF1FE457FD4FA591B491EC91ED2381E03F
:1003B00090E009F480E0DF91CF91089580E090E033
:1003C000FACF1F93CF93DF93282F30E0F901E25447
:1003D000FD4F8491F901E655FD4FD491F901EA569C
:1003E000FD4FC491CC23A9F0162F81110E949401D6
:1003F000EC2FF0E0EE0FFF1FEE57FD4FA591B491EB
:100400008FB7F894EC91111108C0D095DE23DC93DE
:100410008FBFDF91CF911F910895DE2BF8CFCF933F
:10042000DF9390E0FC01E655FD4F24918A569D4FE5
:10043000FC0184918823C9F090E0880F991FFC018A
:10044000E858FD4FA591B491FC01EE57FD4FC591C1
:10045000D49161110DC09FB7F8948C91209582239F
:100460008C938881282328839FBFDF91CF910895A3
:10047000623051F49FB7F8943C91822F809583238A
:100480008C93E8812E2BEFCF8FB7F894EC912E2B25
:100490002C938FBFEACF3FB7F8948091750190916C
:1004A0007601A0917701B091780126B5A89B05C08F
:1004B0002F3F19F00196A11DB11D3FBFBA2FA92FE3
:1004C000982F8827BC01CD01620F711D811D911DE0
:1004D00042E0660F771F881F991F4A95D1F708954C
:1004E0008F929F92AF92BF92CF92DF92EF92FF9244
:1004F0006B017C010E944B024B015C01C114D104D1
:10050000E104F104B9F00E944B02681979098A09E3
:100510009B09683E73408105910580F321E0C21A72
:10052000D108E108F10888EE880E83E0981EA11C2E
:10053000B11CE4CFFF90EF90DF90CF90BF90AF90D1
:100540009F908F900895AF92BF92CF92DF92EF92DB
:10055000FF920F931F93CF93DF936C017B018B016D
:10056000040F151FEB015E01AE18BF08C017D107BD
:1005700059F06991D601ED91FC910190F081E02D47
:10058000C6010995892B79F7C501DF91CF911F919C
:100590000F91FF90EF90DF90CF90BF90AF900895B4
:1005A000FC01538D448D252F30E0842F90E0821B79
:1005B000930B541710F0CF96089501970895FC01FE
:1005C000918D828D981761F0A28DAE0FBF2FB11D56
:1005D0005D968C91928D9F5F9F73928F90E00895AE
:1005E0008FEF9FEF0895FC01918D828D981731F068
:1005F000828DE80FF11D858D90E008958FEF9FEFBC
:100600000895FC01918D228D892F90E0805C9F4F91
:10061000821B91098F73992708958EEB91E00E94B8
:10062000010321E0892B09F420E0822F089580E066
:1006300090E0892B29F00E940D0381110C94000099
:100640000895FC01A48DA80FB92FB11DA35ABF4F67
:100650002C91848D90E001968F739927848FA689C1
:10066000B7892C93A089B1898C91837080648C9315
:10067000938D848D981306C00288F389E02D8081C4
:100680008F7D80830895EF92FF920F931F93CF93F6
:10069000DF93EC0181E0888F9B8D8C8D98131AC0BD
:1006A000E889F989808185FF15C09FB7F894EE89A4
:1006B000FF896083E889F989808183708064808301
:1006C0009FBF81E090E0DF91CF911F910F91FF904C
:1006D000EF900895F62E0B8D10E00F5F1F4F0F73F4
:1006E0001127E02E8C8D8E110CC00FB607FCFACFAF
:1006F000E889F989808185FFF5CFCE010E94210329
:10070000F1CFEB8DEC0FFD2FF11DE35AFF4FF0827F
:100710009FB7F8940B8FEA89FB8980818062CFCFE5
:10072000CF93DF93EC01888D8823B9F0AA89BB8928
:10073000E889F9898C9185FD03C0808186FD0DC013
:100740000FB607FCF7CF8C9185FFF2CF808185FF34
:10075000EDCFCE010E942103E9CFDF91CF91089523
:10076000982F9F7195B9807E8BB987E00E94E10137
:10077000419A4198089581110C94B00308951F93F4
:10078000CF93DF93C62FD82FD627D0FF0EC0E8E235
:10079000F2E08491162F1170612F0E94BB03E9E2F1
:1007A000F2E08491612F0E94BB03D1FF0FC0C1FB17
:1007B000112710F9EAE2F2E08491612F0E94BB0355
:1007C000EBE2F2E08491612F0E94BB03D2FF0FC0E5
:1007D000C2FB112710F9ECE2F2E08491612F0E9434
:1007E000BB03EDE2F2E08491612F0E94BB03D3FFD3
:1007F0000FC0C3FB112710F9EEE2F2E08491612FE4
:100800000E94BB03EFE2F2E08491612F0E94BB03E0
:10081000D4FF0FC0C4FB112710F9E0E3F2E084918C
:10082000612F0E94BB03E1E3F2E08491612F0E94FB
:10083000BB03D5FF0FC0C5FB112710F9E2E3F2E0BF
:100840008491612F0E94BB03E3E3F2E08491612F66
:100850000E94BB03D6FF0FC0C6FB112710F9E4E3CB
:10086000F2E08491612F0E94BB03E5E3F2E0849102
:10087000612F0E94BB03D7FF10C0E6E3F2E0849132
:10088000DC2FDD1FDD27DD1F6D2F0E94BB03E7E39B
:10089000F2E084916D2F0E94BB0380914301882375
:1008A00079F080914201811102C0CC2349F0E82FF8
:1008B000F0E0E758FE4FC068C0838F5F809342012D
:1008C000DF91CF911F910895982F9F7195B9807EE8
:1008D0008BB95B9A5B98862F8F7185B9607E6BB9F7
:1008E0005A9A5A98842F8F7185B9407E4BB95C9A79
:1008F0005C9808954FEF60914C0180914D010C94EC
:100900006404FF920F931F93CF93DF93EC01F62EB5
:1009100008811981C8010E942813F81621F06F2D53
:10092000C8010E943013CE01DF91CF911F910F912A
:10093000FF900895CF93DF9300D0CDB7DEB780EF5F
:1009400093E09A8389836091B901CE0101960E9458
:10095000810489EB91E00F900F90DF91CF91089582
:10096000EF92FF920F931F93CF93DF9300D0CDB7F9
:10097000DEB709E711E0895791407C01C701800F7C
:10098000911F9A838983F80161918F01CE010196AD
:100990000E948104F1E0093B1F0781F789E791E09C
:1009A0000F900F90DF91CF911F910F91FF90EF90DB
:1009B00008958F3F910511F00E94B00410924301F9
:1009C000809181008B6F809381008091070184600A
:1009D000809307014BE050E060E071E08EEB91E026
:1009E0000E94A3021092420108950F931F93CF9388
:1009F000DF9300D0CDB7DEB78B019A838983FB01EB
:100A00006081CE0101960E948104C8010F900F9071
:100A1000DF91CF911F910F910895CF93DF93EB0159
:100A20000E9428138883CE01DF91CF910895CF9340
:100A3000DF93EB010E9428138883CE01DF91CF91D1
:100A40000895EF92FF920F931F93CF93DF93882324
:100A500009F486C0162FC82F662309F49BC3893377
:100A600049F58091070181FD23C0826080930701D1
:100A70004BE050E060E071E08EEB91E00E94A30259
:100A80008C2F90E0FC01EE0FFF1FE859FF4F2491DF
:100A90002B31D1F561E082E10E940F0260E082E13A
:100AA000DF91CF911F910F91FF90EF900C94E10196
:100AB0008D7FDCCF8C3421F761E081E10E94B003AF
:100AC00069E170E080E090E00E94700261E085E3FF
:100AD0000E94B00369E170E080E090E00E94700243
:100AE00060E085E30E94B00369E170E080E090E09F
:100AF0000E94700261E085E1DF91CF911F910F911B
:100B0000FF90EF900C94B00324912B3231F461E00C
:100B100082E10E940F0261E0C2CF24912C3139F4AE
:100B200061E081E10E940F0260E081E1B9CF249190
:100B30002C3231F461E081E10E940F0261E0F5CFD7
:100B400024912A31A1F461E083E10E940F0260E068
:100B500083E10E94E1010E947A0481E080937201A6
:100B6000DF91CF911F910F91FF90EF900895249105
:100B70002D3139F461E080E10E940F0260E080E1F4
:100B80008FCFE491ED3231F461E080E10E940F02F9
:100B900061E0F5CF20916A0127FF03C02860209310
:100BA0006A0120916A01322F387023FF95C0CE313F
:100BB00051F41092B901DF91CF911F910F91FF90E5
:100BC000EF900C949A04CF3121F481E08093B90125
:100BD000F2CFC03211F482E0F9CFC13211F483E0D8
:100BE000F5CFC73291F480910F0191E0892780936E
:100BF0000F016FE071E081EF93E0DF91CF911F91E2
:100C00000F91FF90EF900C94F504C63259F4809147
:100C1000100191E089278093100160E171E082EF7B
:100C200093E0EBCFC43121F481E08093570198CF5A
:100C3000CA3111F482E0F9CFC83011F483E0F5CF66
:100C4000C53111F484E0F1CFC73111F485E0EDCF67
:100C5000CA3209F041C0109280001092810088E0F1
:100C60009DE3909389008093880080918100886043
:100C700080938100809181008460809381008091C5
:100C80006F00826080936F00E9E7F1E089EB91E00B
:100C900011928E179F07E1F710923B0110923C01D1
:100CA00010923D0110923E0110923F0110924001BE
:100CB00010923301109234011092350110923601D6
:100CC000109237011092380181E080934301109215
:100CD00042011092300144CFC93271F42091430196
:100CE000222351F08FEF90E0DF91CF911F910F9170
:100CF000FF90EF900C94D90426EC2C0F283008F0CC
:100D000040C12091430121112BCFF6E0880F991F9C
:100D1000FA95E1F71092420110923B0110923C01CA
:100D200010923D0110923E0110923F01109240013D
:100D3000A9EBEA2EA1E0FA2E09E711E0EC01C95F68
:100D4000DF40CE01800F911F0E942813F80181938C
:100D50008F01EE16FF06A9F7C0917901CC2309F4A3
:100D6000FFCEE0914201F0E0E758FE4FC081C7FF9F
:100D700017C0DC2FDF7780913001D81719F06D2F65
:100D80000E94BF03D0933001809142018F5F809316
:100D9000420162E370E080E090E00E947002DECFEA
:100DA00080913B01C8133EC060E08C2F0E9421055A
:100DB00010923B0181E090913C01C91307C060E0B3
:100DC0008C2F0E94210510923C0181E090913D0101
:100DD000C91307C060E08C2F0E94210510923D01CD
:100DE00081E090913E01C91307C060E08C2F0E9402
:100DF000210510923E0181E090913F01C91307C087
:100E000060E08C2F0E94210510923F0181E0D0917B
:100E10004001CD1309C060E08C2F0E942105109283
:100E20004001B2CF80E0C7CF8111AECF8C2F90E0D0
:100E3000880F991FAC0148595F4FFA012491222372
:100E400091F02091410130E0220F331F28593F4F8C
:100E5000F9016491662339F0FA016491F901249152
:100E6000621709F442C0FA012491222391F02091E3
:100E7000410130E0220F331F27593F4FF9016491A0
:100E8000662339F0FA014491F9012491421709F4DB
:100E90002CC087599F4FFC012491222389F0209177
:100EA000410130E0220F331F28593F4FF90144918F
:100EB000442331F0FC014491F90124914217A9F037
:100EC000FC0124912223B9F02091410130E0220F4E
:100ED000331F27593F4FF9014491442361F0FC012E
:100EE0008491F9012491821306C062E370E080E0EE
:100EF00090E00E94700280913B01811121C0C0935B
:100F00003B0161E080913B010E94210561E08091FD
:100F10003C010E94210561E080913D010E94210574
:100F200061E080913E010E94210561E080913F01D6
:100F30000E94210561E0809140010E94210524CF9B
:100F400080913C01811103C0C0933C01DACF8091B4
:100F50003D01811103C0C0933D01D3CF80913E017B
:100F6000811103C0C0933E01CCCF80913F0181111C
:100F700003C0C0933F01C5CFD111C3CFC09340017F
:100F8000C0CF3111EDCD80914301882309F445C0D4
:100F9000C23008F442C050913301C51304C080919F
:100FA0002A011817D1F130913401C31304C0809184
:100FB0002B01181791F190913501C91304C080914C
:100FC0002C01181751F180913601C81304C02091EB
:100FD0002D01121711F120913701C21304C0409165
:100FE0002E011417D1F040913801C41304C0609150
:100FF0002F01161791F0C51338C01111E7C0809169
:101000004201E82FF0E0E758FE4FC0838F5F8093E6
:10101000420110922A0110923301C0934101D0E0A5
:10102000CC0FDD1FFE01E859FF4F8491612F0E9414
:10103000BB03FE01E759FF4F8491612FDF91CF91F0
:101040001F910F91FF90EF900C94BB03911188CDED
:10105000CC3409F098CF60E085E30E94B00360E0F3
:1010600085E30E94B00360E046CDC31311C01111A7
:10107000AFC080914201E82FF0E0E758FE4FC083F7
:101080008F5F8093420110922B0110923401C5CFE3
:10109000C91311C011119EC080914201E82FF0E0E8
:1010A000E758FE4FC0838F5F8093420110922C015E
:1010B00010923501B2CFC81311C011118DC08091AB
:1010C0004201E82FF0E0E758FE4FC0838F5F809326
:1010D000420110922D01109236019FCFC21311C010
:1010E00011117CC080914201E82FF0E0E758FE4FDB
:1010F000C0838F5F8093420110922E0110923701BE
:101100008CCFC41311C011116BC080914201E82F24
:10111000F0E0E758FE4FC0838F5F8093420110924A
:101120002F011092380179CF51115DC0112309F4BC
:1011300064C0C093330181E080932A018091420111
:10114000E82FF0E0E758FE4FC0838F5F80934201A5
:1011500064CF911109C0112309F453C0C093350124
:1011600081E080932C01EACF811109C0112309F499
:101170004AC0C093360181E080932D01DFCF211159
:1011800045C0112309F449CFC093370181E0809312
:101190002E01D4CF80916A01982F987083FF03C0ED
:1011A000CA3209F4DDCC86EC8C0F883008F04ECFC3
:1011B00080914301882309F4D3CCCA53DD0BCE01BF
:1011C00026E0880F991F2A95E1F78ECDC31302C040
:1011D000C91371CFC81382CFC21393CFC413A4CF46
:1011E000552309F4A6CF3111B4CF112341F0C09398
:1011F000340181E080932B01A1CF311112C09111F4
:10120000B3CF8111BCCF222309F407CF411105CF01
:10121000112309F402CFC093380181E080932F019C
:101220008DCF9111F0CFEDCF1F93CF93DF93882314
:1012300009F47AC0182FC82FD0E0CC0FDD1FC85991
:10124000DF4FFE01849190E08A3169F460E083E130
:101250000E940F0264E670E080E090E00E9470025D
:101260001092720191E0FE0184918D3149F460E0A9
:1012700080E10E940F0260E080E10E94E10191E0C4
:10128000FE0184918D3249F460E080E10E940F02FA
:1012900060E080E10E94E10191E0FE0184918B31E8
:1012A00029F460E082E10E940F0291E0FE01849146
:1012B0008B3229F460E082E10E940F0291E0FE018E
:1012C00084918C3129F460E081E10E940F0291E069
:1012D000FE01C491CC3239F460E081E1DF91CF911D
:1012E0001F910C940F0291111FC080916C0118176F
:1012F000D9F080916D011817B9F080916E0118171F
:1013000099F080916F01181779F08091700118178A
:1013100059F080917101181739F060E0812FDF9149
:10132000CF911F910C942105DF91CF911F910895CA
:101330001F920F920FB60F9211242F933F938F930A
:101340009F93AF93BF938091BA019091BB01A091FD
:10135000BC01B091BD013091740123E0230F2D3702
:1013600058F50196A11DB11D209374018093BA0117
:101370009093BB01A093BC01B093BD018091750116
:1013800090917601A0917701B09178010196A11D0D
:10139000B11D8093750190937601A0937701B0936E
:1013A0007801BF91AF919F918F913F912F910F90B5
:1013B0000FBE0F901F90189526E8230F0296A11DCF
:1013C000B11DD2CF1F920F920FB60F9211242F93FF
:1013D0003F934F935F936F937F938F939F93AF93BD
:1013E000BF93EF93FF938EEB91E00E942103FF9157
:1013F000EF91BF91AF919F918F917F916F915F918D
:101400004F913F912F910F900FBE0F901F90189505
:101410001F920F920FB60F9211242F938F939F93C9
:10142000EF93FF93E091CE01F091CF018081E091A5
:10143000D401F091D50182FD1BC090818091D7012C
:101440008F5F8F732091D801821741F0E091D7010F
:10145000F0E0E254FE4F958F8093D701FF91EF911A
:101460009F918F912F910F900FBE0F901F90189505
:101470008081F4CF1F920F920FB60F9211242F93F9
:101480003F934F935F936F937F938F939F93AF930C
:10149000BF93EF93FF938091070182FD1CC084608E
:1014A000809307014BE050E060E071E08EEB91E04B
:1014B0000E94A302FF91EF91BF91AF919F918F91F5
:1014C0007F916F915F914F913F912F910F900FBE40
:1014D0000F901F9018958B7FE3CFEF92FF920F93A1
:1014E0001F93CF93DF937B018C01D0E0C0E02FB737
:1014F000F8948091BA019091BB01A091BC01B09188
:10150000BD012FBF8093C6019093C701A093C8016E
:10151000B093C9018EEB91E00E94DF0297FF2CC0CF
:101520002FB7F8948091BA019091BB01A091BC01B2
:10153000B091BD012FBF4091C6015091C70160918C
:10154000C8017091C901841B950BA60BB70B409184
:10155000C2015091C3016091C4017091C50184170B
:101560009507A607B707B0F2CE01DF91CF911F9183
:101570000F91FF90EF900895F80181938F012196CC
:10158000EC16FD0609F0B3CFEFCFCF93DF9300D079
:10159000CDB7DEB7789484B5826084BD84B58160B0
:1015A00084BD85B5826085BD85B5816085BD80912E
:1015B0006E00816080936E001092810080918100A6
:1015C000826080938100809181008160809381009E
:1015D000809180008160809380008091B100846060
:1015E0008093B1008091B00081608093B0008091C1
:1015F0007A00846080937A0080917A008260809380
:101600007A0080917A00816080937A0080917A00DC
:10161000806880937A001092C10061E083E10E94AB
:101620000F0260E083E10E94E10161E084E00E943A
:101630000F0261E083E00E940F0261E082E00E94FD
:101640000F0261E08FE00E940F0261E088E00E94DB
:101650000F0261E089E00E940F0261E08AE00E94CF
:101660000F0261E08BE00E940F0261E08CE00E94BB
:101670000F0261E085E00E940F0261E086E00E94B7
:101680000F0261E087E00E940F0260E082E10E94A9
:101690000F0260E081E10E940F0260E080E10E94A1
:1016A0000F0210926100F8948FEF93E00E942813CC
:1016B0008433D9F1E9E7F1E089EB91E011928E17DB
:1016C0009F07E1F710E000E0C8010E94B004005C51
:1016D0001F4F011582E01807B9F780EF93E09A8356
:1016E000898360E0CE0101960E94810481EF93E03E
:1016F0009A83898360E0CE0101960E94810411E003
:101700001983BE016F5F7F4F81EF93E00E94F50464
:101710001983BE016F5F7F4F82EF93E00E94F50453
:1017200064E38FEF93E00E94301385E180934C01D6
:1017300086E180934D01109280001092810088E034
:101740009DE3909389008093880080918100886058
:101750008093810080916F00826080936F00789405
:1017600069EB71E080EF93E00E9417056FE071E094
:1017700081EF93E00E940D0560E171E082EF93E05C
:101780000E940D0567E571E083EF93E00E94170565
:10179000E9E7F1E089EB91E011928E179F07E1F7FD
:1017A0009EE1909379012FE120937A0180E280936A
:1017B0007B0120937C0190937D0180937E0164E600
:1017C00070E080E090E00E94700262E083E10E949D
:1017D0000F02E091CE01F091CF0182E08083E09191
:1017E000CA01F091CB011082E091CC01F091CD01C2
:1017F00080E180831092D601E091D201F091D30173
:1018000086E08083E091D001F091D10180818061F8
:101810008083E091D001F091D10180818860808344
:10182000E091D001F091D101808180688083E091C6
:10183000D001F091D10180818F7D8083809107015B
:101840008460809307011092730139EA232E30E0FF
:10185000332E44EA442E40E0542E55EA652E50E0E3
:10186000752E06EA10E097EAE92E90E0F92E2AEAB2
:10187000C22E20E0D22E8BEAA82E80E0B82E8091D6
:10188000730181110DC080917201811109C00E9404
:10189000BD01892B29F40E947A0481E080937301B1
:1018A0000E94BD01019711F4109273018EEB91E03B
:1018B0000E9401030C976CF18EEB91E00E94DF0215
:1018C0008735910531F58EEB91E00E94DF028B3A6E
:1018D0009105F9F48EEB91E00E94DF0288389105C2
:1018E000C1F48EEB91E00E94DF024C018EEB91E09F
:1018F0000E94DF0299249AE089169104BCF4E8E082
:101900008E1691040CF08AC3F7E08F16910409F447
:101910008CC380E090E0892B09F4B1CF0E940D03C5
:10192000882309F4A8CF0E9400009DCF9BE0891670
:10193000910479F7805168E070E0823008F062C06D
:101940008AE691E00E946D0A809146010E94140986
:10195000809147010E941409809148010E94140956
:10196000809149010E94140980914A010E94140942
:1019700080914B010E94140960916A018091440199
:1019800068130C94F51261E080916C010E942105AE
:1019900061E080916D010E94210561E080916E01FE
:1019A0000E94210561E080916F010E94210561E0A4
:1019B000809170010E94210561E0809171010E9477
:1019C000210580916A018093440180916B0180938D
:1019D000450180916C018093460180916D01809357
:1019E000470180916E018093480180916F0180933F
:1019F00049018091700180934A0180917101809327
:101A00004B0187CF82E691E00E946D0A80916701C9
:101A100084FF0FC0E0E9F0E0849161E00E94BB0325
:101A2000E1E9F0E0849161E00E94BB0381E08093F2
:101A300061018091670184FD12C08091610188235A
:101A400071F0E0E9F0E0849160E00E94BB03E1E91D
:101A5000F0E0849160E00E94BB03109261018091EC
:101A6000670187FF0FC0ECE9F0E0849161E00E941C
:101A7000BB03EDE9F0E0849161E00E94BB0381E0EB
:101A8000809360018091670187FD12C080916001A1
:101A9000882371F0ECE9F0E0849160E00E94BB03E0
:101AA000EDE9F0E0849160E00E94BB0310926001D8
:101AB0008091670186FF0FC0E8E7F0E0849161E064
:101AC0000E94BB03E9E7F0E0849161E00E94BB0360
:101AD00081E080935F018091670186FD12C0809153
:101AE0005F01882371F0E8E7F0E0849160E00E94F4
:101AF000BB03E9E7F0E0849160E00E94BB03109231
:101B00005F018091670185FF0FC0E2E9F0E08491F9
:101B100061E00E94BB03E3E9F0E0849161E00E9490
:101B2000BB0381E080935E018091670185FD12C057
:101B300080915E01882371F0E2E9F0E0849160E039
:101B40000E94BB03E3E9F0E0849160E00E94BB03E4
:101B500010925E018091680180FF0FC0E6E9F0E01D
:101B6000849161E00E94BB03E7E9F0E0849161E0C9
:101B70000E94BB0381E080935D018091680180FD3C
:101B800012C080915D01882371F0E6E9F0E0849154
:101B900060E00E94BB03E7E9F0E0849160E00E940E
:101BA000BB0310925D018091680182FF0FC0E0EAE3
:101BB000F0E0849161E00E94BB03E1EAF0E08491EF
:101BC00061E00E94BB0381E080935C018091680129
:101BD00082FD12C080915C01882371F0E0EAF0E0A0
:101BE000849160E00E94BB03E1EAF0E0849160E050
:101BF0000E94BB0310925C018091680181FF0FC0BD
:101C0000E8E9F0E0849161E00E94BB03E9E9F0E0DB
:101C1000849161E00E94BB0381E080935B0180912D
:101C2000680181FD12C080915B01882371F0E8E9B1
:101C3000F0E0849160E00E94BB03E9E9F0E0849168
:101C400060E00E94BB0310925B018091680183FFFA
:101C50000FC0E0E8F0E0849161E00E94BB03E1E89E
:101C6000F0E0849161E00E94BB0381E080935A011F
:101C70008091680183FD12C080915A01882371F020
:101C8000E0E8F0E0849160E00E94BB03E1E8F0E06E
:101C9000849160E00E94BB0310925A018091680118
:101CA00084FF0FC0ECE8F0E0849161E00E94BB0388
:101CB000EDE8F0E0849161E00E94BB0381E0809355
:101CC00059018091680184FD12C0809159018823D7
:101CD00071F0ECE8F0E0849160E00E94BB03EDE875
:101CE000F0E0849160E00E94BB0310925901809162
:101CF000680185FF0FC0EEE8F0E0849161E00E948A
:101D0000BB03EFE8F0E0849161E00E94BB0381E057
:101D1000809358018091680185FD12C0809158011F
:101D2000882371F0EEE8F0E0849160E00E94BB034C
:101D3000EFE8F0E0849160E00E94BB03109258014C
:101D400090905701F1E09F1295C0809163018D370B
:101D500060F4F601849161E00E94BB03F501849177
:101D600061E00E94BB0390925601809163018E371F
:101D700080F080915601813061F4F601849160E039
:101D80000E94BB03F501849160E00E94BB031092A6
:101D9000560180916301823868F0F801849161E016
:101DA0000E94BB03F701849161E00E94BB0381E0C4
:101DB0008093550180916301813880F480915501B1
:101DC000813061F4F801849160E00E94BB03F70167
:101DD000849160E00E94BB031092550180916201E2
:101DE0008D3768F4F201849161E00E94BB03F30136
:101DF000849161E00E94BB0381E080935401809153
:101E000062018E3780F080915401813061F4F201DB
:101E1000849160E00E94BB03F301849160E00E9422
:101E2000BB031092540180916201823870F0E8EA9D
:101E3000F0E0849161E00E94BB03F101849161E0D4
:101E40000E94BB0381E0809353018091620181383D
:101E500088F480915301813069F4E8EAF0E08491DC
:101E600060E00E94BB03F101849160E00E94BB032B
:101E70001092530180915701823009F096C09090E2
:101E80006401F1E09F120CC0F601849161E00E94B0
:101E9000BB03F501849161E00E94BB03909256015F
:101EA00080916401803881F480915601813061F421
:101EB000F601849160E00E94BB03F501849160E02B
:101EC0000E94BB0310925601809164018E3F69F419
:101ED000F801849161E00E94BB03F701849161E005
:101EE0000E94BB0381E0809355018091640180389A
:101EF00081F480915501813061F4F801849160E0B2
:101F00000E94BB03F701849160E00E94BB03109222
:101F1000550190906301F1E09F120CC0F201849191
:101F200061E00E94BB03F301849161E00E94BB0366
:101F30009092540180916301803881F48091540122
:101F4000813061F4F201849160E00E94BB03F301EF
:101F5000849160E00E94BB03109254018091630160
:101F60008E3F71F4E8EAF0E0849161E00E94BB03E7
:101F7000F101849161E00E94BB0381E080935301F1
:101F800080916301803889F480915301813069F434
:101F9000E8EAF0E0849160E00E94BB03F1018491E3
:101FA00060E00E94BB03109253018091570183307F
:101FB00009F0D5C1809167018F70982EF6E08F13DC
:101FC0009EC0E8EAF0E0849160E00E94BB03F1016A
:101FD000849160E00E94BB03F601849160E00E945E
:101FE000BB03F501849160E00E94BB03F80184917A
:101FF00060E00E94BB03F701849160E00E94BB0394
:10200000F201849161E00E94BB03F301849161E0DD
:102010000E94BB0381E0809353016EC18EEB91E07F
:102020000E94DF02019709F074CC64E070E081E166
:1020300091E00E946D0A8091120190E08038910534
:1020400008F09A952091510130915201820F931F0F
:1020500090935201809351012091130130E0203878
:10206000310508F03A9540914F0150915001240FED
:10207000351F3093500120934F0140911101509131
:10208000140160914E0170911001772309F4B1C2DF
:10209000651B562F50934E015091B901052E02C079
:1020A000969587950A94E2F780934D0102C0369584
:1020B00027955A95E2F76FEF70E0621B730B609300
:1020C0004C01A42FA170542F527020910F01222394
:1020D00009F481C2242F20952170E22FF0E05111E4
:1020E00003C02260E22FF0E042FFE46040914E0125
:1020F0004295407F4E0F48600E9464040ACCF4E091
:102100008F1326C0E8EAF0E0849160E00E94BB03F0
:10211000F101849160E00E94BB03F601849160E0CC
:102120000E94BB03F501849160E00E94BB03F201B1
:10213000849160E00E94BB03F301849160E00E94FF
:10214000BB03F801849161E00E94BB03F7015ECFFD
:10215000F2E08F1326C0F201849160E00E94BB037D
:10216000F301849160E00E94BB03F601849160E07A
:102170000E94BB03F501849160E00E94BB03F8015B
:10218000849160E00E94BB03F701849160E00E94AB
:10219000BB03E8EAF0E0849161E00E94BB03F10137
:1021A00035CF811126C0E8EAF0E0849160E00E941A
:1021B000BB03F101849160E00E94BB03F2018491B2
:1021C00060E00E94BB03F301849160E00E94BB03C6
:1021D000F801849160E00E94BB03F701849160E004
:1021E0000E94BB03F601849161E00E94BB03F501EC
:1021F0000DCFF5E08F131EC0F601849160E00E94C0
:10220000BB03F501849160E00E94BB03E8EAF0E0C3
:10221000849160E00E94BB03F101849160E00E9420
:10222000BB03F201849161E00E94BB03F30184913E
:1022300061E085CFF3E08F131CC0F601849160E06C
:102240000E94BB03F501849160E00E94BB03F20190
:10225000849160E00E94BB03F301849160E00E94DE
:10226000BB03E8EAF0E0849161E00E94BB03F10166
:10227000DECFF1E08F131EC0F801849160E00E9470
:10228000BB03F701849160E00E94BB03F2018491DB
:1022900060E00E94BB03F301849160E00E94BB03F5
:1022A000E8EAF0E0849161E00E94BB03F1018491CF
:1022B00061E096CFF7E08F131CC0F801849160E0D5
:1022C0000E94BB03F701849160E00E94BB03E8EA2F
:1022D000F0E0849160E00E94BB03F101849160E032
:1022E0000E94BB03F201849161E00E94BB03F301F1
:1022F000DECFF8E08F138ECE80915301813009F04C
:102300002EC088E098122BC010925301F2018491E4
:1023100060E00E94BB03F301849160E00E94BB0374
:10232000F801849160E00E94BB03F701849160E0B2
:102330000E94BB03E8EAF0E0849160E00E94BB03E6
:10234000F101849160E00E94BB03F601849160E09A
:102350000E94BB03F501849160E00E94BB03809161
:102360005701843009F096C0809164018D3768F47C
:10237000F601849161E00E94BB03F501849161E064
:102380000E94BB0381E080935601809164018E37E7
:1023900080F080915601813061F4F601849160E013
:1023A0000E94BB03F501849160E00E94BB03109280
:1023B000560180916401823868F0F801849161E0EF
:1023C0000E94BB03F701849161E00E94BB0381E09E
:1023D0008093550180916401813880F4809155018A
:1023E000813061F4F801849160E00E94BB03F70141
:1023F000849160E00E94BB031092550180916301BB
:102400008D3768F4F201849161E00E94BB03F3010F
:10241000849161E00E94BB0381E08093540180912C
:1024200063018E3780F080915401813061F4F201B4
:10243000849160E00E94BB03F301849160E00E94FC
:10244000BB031092540180916301823870F0E8EA76
:10245000F0E0849161E00E94BB03F101849161E0AE
:102460000E94BB0381E08093530180916301813816
:1024700088F480915301813069F4E8EAF0E08491B6
:1024800060E00E94BB03F101849160E00E94BB0305
:102490001092530180915701853009F03ACA80911A
:1024A00065018D3768F4F601849161E00E94BB03F9
:1024B000F501849161E00E94BB0381E080935601A5
:1024C000809165018E3780F080915601813061F4F2
:1024D000F601849160E00E94BB03F501849160E005
:1024E0000E94BB031092560180916501823868F00A
:1024F000F801849161E00E94BB03F701849161E0DF
:102500000E94BB0381E08093550180916501813871
:1025100080F480915501813061F4F801849160E08C
:102520000E94BB03F701849160E00E94BB031092FC
:102530005501809166018D3768F4F201849161E064
:102540000E94BB03F301849161E00E94BB0381E020
:1025500080935401809166018E3780F08091540100
:10256000813061F4F201849160E00E94BB03F301C9
:10257000849160E00E94BB03109254018091660137
:10258000823870F0E8EAF0E0849161E00E94BB03D9
:10259000F101849161E00E94BB0381E080935301CB
:1025A00080916601813810F00C94890C8091530160
:1025B000813011F00C94890CE8EAF0E0849160E03D
:1025C0000E94BB03F101849160E00E94BB03109262
:1025D00053010C94890C31E020E0511130E0E32FDD
:1025E000F22FA11181CDE2607FCD0E94BF030C9438
:1025F000C30C560F4FCDEEEBF1E01382128288EE42
:1026000093E0A0E0B0E084839583A683B78389E15B
:1026100091E09183808385EC90E09587848784ECBA
:1026200090E09787868780EC90E0918B808B81EC9F
:1026300090E0938B828B82EC90E0958B848B86EC80
:1026400090E0978B868B118E128E138E148E0895C8
:10265000F999FECF92BD81BDF89A992780B508956A
:10266000262FF999FECF1FBA92BD81BD20BD0FB6AE
:10267000F894FA9AF99A0FBE01960895EE0FFF1F8B
:0C2680000590F491E02D0994F894FFCF30
:10268C0057AB12000000000020FF210000000001E9
:10269C0001FF0000FF000000004303A302D00290E2
:0826AC00030103DF02F3020049
:00000001FF
